:100000000C9462000C948A000C948A000C948A0070
:100010000C948A000C948A000C948A000C948A0038
:100020000C948A000C948A000C948A000C940506A7
:100030000C948A000C948A000C948A000C948A0018
:100040000C9463050C948A000C94D3050C94AD05B4
:100050000C948A000C948A000C948A000C948A00F8
:100060000C948A000C948A000000000024002700F1
:100070002A0000000000250028002B0000000000DE
:1000800023002600290004040404040404040202DA
:100090000202020203030303030301020408102007
:1000A0004080010204081020010204081020000012
:1000B0000008000201000003040700000000000027
:1000C0000000C10611241FBECFEFD8E0DEBFCDBFB8
:1000D00012E0A0E0B1E0E8E9F8E102C005900D927D
:1000E000AC30B107D9F723E0ACE0B2E001C01D921B
:1000F000A636B207E1F710E0C2E6D0E004C02197CF
:10010000FE010E94440CC136D107C9F70E94960730
:100110000C944A0C0C940000CF92DF92EF92FF9265
:10012000DC01A03282E0B807D4F5A53BB10514F09C
:10013000A4EBB0E04091640328E830E0241B3109CF
:1001400047FD3395220F331F220F331F6901330FF1
:10015000EE08FF084091650328E532E0241B3109D1
:1001600047FD3395220F331F220F331F032E000C40
:10017000440B550B2C193D094E095F09B7FF02C00E
:10018000B0E0A0E00E94FF0B24EB30E040E050E044
:100190000E94D50BC20ED31EE41EF51ED601E091BF
:1001A0006303EC3080F52091640388E890E0821BC3
:1001B000910927FD9395880F991F880F991FA817FC
:1001C000B90784F02091650388E592E0821B9109CC
:1001D00027FD9395880F991F880F991FA817B907B6
:1001E0000CF4CD010297880F991F4FB7F8942E2F6A
:1001F00030E0F901EE0FFF1FE20FF31FE954FD4F4E
:10020000928381834FBFFF90EF90DF90CF9008954E
:1002100096E0899FD0011124A452BD4F90967C9303
:100220006E935F9791E091969C939197E09149032B
:10023000F0914A0390914803992339F0309751F097
:10024000811108C08091F8020994309719F05C96EA
:100250008C91FACF0895CF92DF92EF92FF920F9395
:100260001F9396E0899FF0011124E452FD4F11A2E3
:10027000278D30A12130310551F178F02230310540
:1002800009F451C02330310509F452C01F910F9178
:10029000FF90EF90DF90CF9008956623B9F361E06F
:1002A00070E00E9408012FB7F89480911602909197
:1002B0001702A0911802B09119022FBF8093340346
:1002C00090933503A0933603B0933703DFCF9FB7E6
:1002D000F894C0901602D0901702E0901802F090A7
:1002E00019029FBF0091340310913503209136030A
:1002F00030913703C01AD10AE20AF30A009146038B
:100300001091470330E020E00C151D052E053F0538
:1003100050F462E070E01F910F91FF90EF90DF903A
:10032000CF900C9408016111B1CF63E070E0F3CF7E
:1003300070E060E0F0CFFC01538D448D252F30E05C
:10034000842F90E0821B930B541710F0CF960895E2
:1003500001970895FC01918D828D981761F0A28D0F
:10036000AE0FBF2FB11D5D968C91928D9F5F9F73D5
:10037000928F90E008958FEF9FEF0895FC01918D8B
:10038000828D981731F0828DE80FF11D858D90E0F8
:1003900008958FEF9FEF0895FC01918D228D892F95
:1003A00090E0805C9F4F821B91098F73992708957D
:1003B000FC01A48DA80FB92FB11DA35ABF4F2C91DA
:1003C000848D90E001968F739927848FA689B789D1
:1003D0002C93A089B1898C91837080648C93938DC8
:1003E000848D981306C00288F389E02D80818F7D6B
:1003F00080830895EF92FF920F931F93CF93DF9323
:10040000EC0181E0888F9B8D8C8D98131AC0E88950
:10041000F989808185FF15C09FB7F894EE89FF891F
:100420006083E889F98980818370806480839FBFBD
:1004300081E090E0DF91CF911F910F91FF90EF90BD
:100440000895F62E0B8D10E00F5F1F4F0F731127CD
:10045000E02E8C8D8E110CC00FB607FCFACFE88908
:10046000F989808185FFF5CFCE010E94D801F1CFB7
:10047000EB8DEC0FFD2FF11DE35AFF4FF0829FB77C
:10048000F8940B8FEA89FB8980818062CFCFCF936C
:10049000DF93EC01888D8823B9F0AA89BB89E889AC
:1004A000F9898C9185FD03C0808186FD0DC00FB652
:1004B00007FCF7CF8C9185FFF2CF808185FFEDCFD0
:1004C000CE010E94D801E9CFDF91CF9108958AE152
:1004D00092E00E94CC0121E0892B09F420E0822FD8
:1004E000089580E090E0892B29F00E946702811135
:1004F0000C9400000895833081F028F4813099F045
:100500008230A9F008958730A9F08830C9F084308E
:10051000B1F4809180008F7D03C0809180008F773F
:1005200080938000089584B58F7784BD089584B545
:100530008F7DFBCF8091B0008F778093B0000895BE
:100540008091B0008F7DF9CFCF93DF93282F30E0DB
:10055000F901E255FF4F8491F901E656FF4FD4911E
:10056000F901EA57FF4FC491CC23A1F081110E94F9
:100570007B02EC2FF0E0EE0FFF1FE458FF4FA59138
:10058000B491EC91ED2381E090E009F480E0DF91FB
:10059000CF91089580E090E0FACF1F93CF93DF933F
:1005A000282F30E0F901E255FF4F8491F901E6561A
:1005B000FF4FD491F901EA57FF4FC491CC23A9F022
:1005C000162F81110E947B02EC2FF0E0EE0FFF1F2F
:1005D000EE58FF4FA591B4918FB7F894EC9111119B
:1005E00008C0D095DE23DC938FBFDF91CF911F91A0
:1005F0000895DE2BF8CFCF93DF9390E0FC01E65611
:10060000FF4F24918A579F4FFC0184918823C9F0A2
:1006100090E0880F991FFC01E859FF4FA591B49114
:10062000FC01EE58FF4FC591D49161110DC09FB7E9
:10063000F8948C91209582238C9388812823288399
:100640009FBFDF91CF910895623051F49FB7F89426
:100650003C91822F809583238C93E8812E2BEFCFC2
:100660008FB7F894EC912E2B2C938FBFEACF3FB726
:10067000F8948091120290911302A0911402B0910B
:10068000150226B5A89B05C02F3F19F00196A11DA4
:10069000B11D3FBFBA2FA92F982F8827BC01CD01CC
:1006A000620F711D811D911D42E0660F771F881F2B
:1006B000991F4A95D1F708958F929F92AF92BF925A
:1006C000CF92DF92EF92FF924B015C010E943703C1
:1006D0006B017C010E9437036C197D098E099F090B
:1006E000683E734081059105A8F321E0821A9108C4
:1006F000A108B10888EEC80E83E0D81EE11CF11CE9
:1007000081149104A104B10429F7FF90EF90DF90C8
:10071000CF90BF90AF909F908F900895862F642FB9
:100720000C94FB02862F642F0C94CD02862F0C9420
:10073000A402AF92BF92CF92DF92EF92FF920F93FB
:100740001F93CF93DF936C017B018B01040F151F67
:10075000EB015E01AE18BF08C017D10759F06991CF
:10076000D601ED91FC910190F081E02DC601099533
:10077000892B79F7C501DF91CF911F910F91FF90E0
:10078000EF90DF90CF90BF90AF900895089590E0E4
:1007900080E00895FB0101900020E9F73197AF0157
:1007A000461B570BDC01ED91FC910280F381E02D9B
:1007B0000994BC018BE493E00C94CA030F931F933C
:1007C000CF93DF93EC010E94CA038C016BE371E0CD
:1007D000CE010E94CA03800F911FDF91CF911F911C
:1007E0000F910895CF93DF93EC0160E08E810E941A
:1007F000CD0261E08E810E94CD0260E08E810E9478
:10080000CD028BE891E00197F1F7DF91CF91089548
:10081000CF92DF92EF92FF920F931F93CF93DF93CC
:100820006C017C0187E0E80EF11CD0E0C0E0062FEF
:1008300010E0B8010C2E02C0759567950A94E2F796
:100840006170F70181917F010E94CD022196C43031
:10085000D10579F7C601DF91CF911F910F91FF90DC
:10086000EF90DF90CF900C94F203CF92DF92EF9253
:10087000FF920F931F93CF93DF93EC01F62E642F1B
:100880008C810E94CD028D818F3F19F060E00E9423
:10089000CD020F2D10E08F8584FF25C06E0187E00B
:1008A000C80ED11CF12CE12CB8010E2C02C075959C
:1008B00067950A94E2F76170F60181916F010E94D9
:1008C000CD02FFEFEF1AFF0A88E0E816F10461F7A6
:1008D000CE01DF91CF911F910F91FF90EF90DF90AC
:1008E000CF900C94F203B80184E0759567958A95D2
:1008F000E1F7CE010E9408046F2DCE01DF91CF9168
:100900001F910F91FF90EF90DF90CF900C9408040F
:1009100040E0682F8BE493E00C94350481E00E9462
:1009200088048BE39FE10197F1F70895CF93DF935C
:10093000823029F490915A03986090935A038093DF
:100940005E0310925F0380E48093600380E18093F4
:10095000610380E58093620361E080914F030E9410
:10096000FB02809150038F3F19F061E00E94FB026F
:1009700061E0809151030E94FB02CBE4D3E09E0131
:100980002B54334080915A0384FD0BC084E090E0E7
:1009900021962817390744F461E08E810E94FB02FA
:1009A000EECF88E090E0F4CF8BE39DE00197F1F784
:1009B00060E080914F030E94CD0260E0809151037E
:1009C0000E94CD02809150038F3F19F060E00E9499
:1009D000CD0280915A0384FD34C063E08BE493E040
:1009E0000E940804CBE4D6E4CE010197F1F763E05E
:1009F0008BE493E00E9408042197F1F763E08BE415
:100A000093E00E94080483E592E00197F1F762E029
:100A10008BE493E00E94080480915A0380620E9454
:100A2000880484E080935B038CE00E9488040E9429
:100A30008E0482E080935C0386E0DF91CF910C947A
:100A4000880480620E9488048BE496E40197F1F7A1
:100A500080915A0380620E94880483E592E00197A6
:100A6000F1F780915A0380620E948804D5CF6430E8
:100A700008F063E090915E03691710F06FEF690F63
:100A8000E62FF0E0E55BFC4F9489890F80680C94B9
:100A9000880460E080E00E9437056EE371E08BE43B
:100AA00093E00E94DE0361E081E00E9437056DE47F
:100AB00071E08BE493E00C94DE0341E00E94350486
:100AC00081E090E008951F920F920FB60F921124CB
:100AD0002F933F938F939F93AF93BF938091160271
:100AE00090911702A0911802B09119023091110251
:100AF00023E0230F2D3758F50196A11DB11D20933A
:100B000011028093160290931702A0931802B093DB
:100B100019028091120290911302A0911402B091D7
:100B200015020196A11DB11D80931202909313022C
:100B3000A0931402B0931502BF91AF919F918F9132
:100B40003F912F910F900FBE0F901F90189526E8A0
:100B5000230F0296A11DB11DD2CF1F920F920FB687
:100B60000F9211242F933F934F935F936F937F9333
:100B70008F939F93AF93BF93EF93FF938AE192E09C
:100B80000E94D801FF91EF91BF91AF919F918F91FA
:100B90007F916F915F914F913F912F910F900FBE79
:100BA0000F901F9018951F920F920FB60F9211245D
:100BB0002F938F939F93EF93FF93E0912A02F091ED
:100BC0002B028081E0913002F091310282FD1BC046
:100BD0009081809133028F5F8F732091340282174E
:100BE00041F0E0913302F0E0E65EFD4F958F809397
:100BF0003302FF91EF919F918F912F910F900FBE34
:100C00000F901F9018958081F4CF1F920F920FB60E
:100C10000F9211242F933F934F935F936F937F9382
:100C20008F939F93AF93BF93CF93DF93EF93FF93F4
:100C300080910C02C091DB02D0E087FF24C01092AB
:100C400085001092840080910C028F5F80930C02CB
:100C500080910C02082E000C990B8C179D0724F430
:100C600080910C028C30C4F18091840090918500B9
:100C7000049680349C4908F47AC080918400909155
:100C80008500049676C080910C02082E000C990B0A
:100C90008C179D07C4F6E0910C028E2FEE0F990B76
:100CA000FC01EE0FFF1FE80FF91FE954FD4F808193
:100CB00086FFC9CFE0910C028E2FEE0F990BFC013D
:100CC000EE0FFF1FE80FF91FE954FD4F808160E030
:100CD0008F730E94CD02B7CF2091840030918500A0
:100CE000E0910C028E2FEE0F990BFC01EE0FFF1F0F
:100CF000E80FF91FE954FD4F81819281820F931F04
:100D00009093890080938800E0910C028E2FEE0F63
:100D1000990BFC01EE0FFF1FE80FF91FE954FD4F7F
:100D2000808186FF11C0E0910C028E2FEE0F990B8F
:100D3000FC01EE0FFF1FE80FF91FE954FD4F808102
:100D400061E08F730E94CD02FF91EF91DF91CF910F
:100D5000BF91AF919F918F917F916F915F914F91D3
:100D60003F912F910F900FBE0F901F90189580E428
:100D70009CE990938900809388008FEF80930C0208
:100D8000E3CF10921D0210921C0288EE93E0A0E0C7
:100D9000B0E080931E0290931F02A0932002B093B4
:100DA000210287E191E090931B0280931A0285EC67
:100DB00090E0909327028093260284EC90E0909339
:100DC00029028093280280EC90E090932B0280937C
:100DD0002A0281EC90E090932D0280932C0282EC09
:100DE00090E090932F0280932E0286EC90E09093F7
:100DF000310280933002109233021092340210922A
:100E00003502109236028091DB028C3008F08AC0E5
:100E100091E0980F9093DB028093630390E0FC01D4
:100E2000EE0FFF1FE80FF91FE954FD4F88EB9BE021
:100E30009283818310924E0310924D0383E391E0DD
:100E400090934C0380934B0382E180934F038FEF89
:100E50008093500383E18093510381E18093520397
:100E600080E1809353038FE0809354038EE080935E
:100E70005503109256031092570310925803109284
:100E8000590310925A0381E00E9496041092DE02E8
:100E90001092E2021092E1021092E30289E291E0E4
:100EA0009093DD028093DC02E8EFF2E0108214827E
:100EB00013821582369683E0E433F807B9F783E0AE
:100EC00091E090933F0380933E0380E091E0909304
:100ED00041038093400384E08093420383E0809346
:100EE000430387E091E090933D0380933C038AE0C5
:100EF00090E0909345038093440384EF91E09093B6
:100F000047038093460310924A03109249031092BC
:100F100038031092390310923A0310923B03109257
:100F2000480308958FEF8093630384CF789484B54A
:100F3000826084BD84B5816084BD85B5826085BDD5
:100F400085B5816085BD80916E00816080936E0063
:100F50001092810080918100826080938100809155
:100F60008100816080938100809180008160809306
:100F700080008091B10084608093B1008091B000C6
:100F800081608093B00080917A00846080937A00C1
:100F900080917A00826080937A0080917A008160EB
:100FA00080937A0080917A00806880937A00109212
:100FB000C1000E944905809163038C3008F051C044
:100FC00061E088E00E94FB0280916303282F30E0FB
:100FD000F901EE0FFF1FE20FF31FE954FD4F90815F
:100FE000907C9860908310926403109265032CE0CB
:100FF000622F0E94380C829FB001112430E020E063
:10100000AB01420F531FFA01EE0FFF1FE40FF51F54
:10101000E954FD4F908196FD16C02F5F3F4F2C3055
:10102000310571F781110FC01092800082E080932A
:1010300081001092850010928400B19A80916F0017
:10104000826080936F00E09163038E2F90E0FC013B
:10105000EE0FFF1FE80FF91FE954FD4F80818064F8
:10106000808382E00E949604812C912C5401839409
:1010700040E0442E40E0542E54EB652E712C8091BC
:101080000F0290911002892B11F40E94490551E042
:10109000509348038FB7F89440911602509117026D
:1010A00060911802709119028FBF8091380390915E
:1010B0003903A0913A03B0913B03481B590B6A0BCB
:1010C0007B0B8091440390914503B0E0A0E084172E
:1010D0009507A607B70708F017C1C0E08091420343
:1010E000C81760F4E0913E03F0913F03EC0FF11D4F
:1010F00062E080810E94FB02CF5FF0CF312C8091B3
:101100004303381608F05FC0032D10E0E091400360
:10111000F0914103E00FF11F61E080810E94FB022A
:10112000E0914003F0914103E00FF11F60E0808106
:101130000E94CD02D501C401032C04C0880F991F61
:10114000AA1FBB1F0A94D2F76C017C01E094F094B3
:10115000212C809142032816F8F4C22DD0E0E091B2
:101160003E03F0913F03EC0FFD1F80810E94A4021B
:101170002496CC0FDD1FC452DD4F892B41F48881AA
:1011800099818C299D29998388832394E2CF888132
:1011900099818E219F21F7CFE0914003F091410387
:1011A000E00FF11F61E080810E94CD028091400339
:1011B00090914103080F191F60E0F80180810E949F
:1011C000FB0233949CCFCCEDD2E0FE01878D90A141
:1011D000892B31F4148E8FEF9FEF968F858F11A29C
:1011E000369693E0E831F90789F7F12C80914203B4
:1011F000F81608F051C0E12C0F2D10E0000F111F60
:101200000C511D4F20914303E21608F043C0F80132
:10121000608171810E2C02C0769567950A94E2F781
:10122000F29E900111242E0D311DECEDF2E080E0D4
:10123000458D568D2417350709F4B5C28F5F369654
:101240008A30B1F760FF24C0ECEDF2E090E080E07E
:10125000448D411118C0E0913C03F0913D03E20F31
:10126000F31F408156E0589FF001599FF00D112463
:10127000E452FD4F448F368F258F10A2178E61E008
:101280000E942B0105C0019636968A30910501F720
:10129000E394B8CFF394AACF80E099A19111892F5C
:1012A000269693E0C831D907C1F79FB7F8944091CB
:1012B00016025091170260911802709119029FBF97
:1012C000409338035093390360933A0370933B0380
:1012D0008823D1F08091FD028823B1F08091FB0238
:1012E0009091FC02019781F41091F80211110FC046
:1012F0004114510409F4C3CE0E946702882309F403
:10130000BECE0E940000BBCE10924803F1CF0E94D7
:101310008E0460E080E00E9437058CE591E00E9439
:10132000D90361E087E00E94370586E691E00E94DC
:10133000D90361E087E00E943705D0E0C0E08091EA
:101340000F02909110028C179D0734F088E691E00F
:101350000E94D9032196F3CFFC01E659FE4F20816C
:101360002113D8C101969093100280930F02049725
:1013700009F0BECF64E873E080E090E00E945C0377
:1013800060E080E00E94370566E671E08BE493E060
:101390000E94DE0360E081E00E9437058FE691E065
:1013A0000E94D90361E084E00E94370569E771E09B
:1013B0008BE493E00E94DE0361E08FE00E9437053A
:1013C00066E671E08BE493E00E94DE0361E080E179
:1013D0000E94370566E671E08BE493E00E94DE032D
:1013E00061E08EE00E94370566E671E08BE493E0F1
:1013F0000E94DE0361E08DE00E94370566E671E041
:101400008BE493E00E94DE0370920E0260920D0264
:10141000C0910D02D0910E02D7FD0FC0CE010E94E7
:101420008C0065E070E080E090E00E945C0325970E
:10143000D0930E02C0930D02EBCF68EE73E080E014
:1014400090E00E945C0360EB74E080E090E00E941A
:101450005C030E948E046FE082E00E94370566E61E
:1014600071E08BE493E00E94DE036EE082E00E9474
:10147000370566E671E08BE493E00E94DE0360E0EE
:1014800082E00E94370568EC70E080E090E00E9406
:101490005C0363E871E08BE493E00E94DE0361E0AB
:1014A00084E00E94370584E991E00E94D90368EC4A
:1014B00070E080E090E00E945C030E948E0460E097
:1014C00082E00E94370566E971E08BE493E00E94B8
:1014D000DE0368EE73E080E090E00E945C0360E071
:1014E00082E00E94370566E971E08BE493E00E9498
:1014F000DE0361E084E00E9437058DE691E00E9402
:10150000D90364E670E080E090E00E945C030E94F2
:101510008E0460E082E00E94370566E971E08BE4AA
:1015200093E00E94DE0368EE73E080E090E00E94AA
:101530005C0360E082E00E94370566E971E08BE4BD
:1015400093E00E94DE0361E084E00E94370585EAB3
:1015500091E00E94D90364E670E080E090E00E9490
:101560005C030E948E0460E082E00E94370566E919
:1015700071E08BE493E00E94DE0368EE73E080E0AC
:1015800090E00E945C0360E082E00E94370566E91B
:1015900071E08BE493E00E94DE0361E084E00E944E
:1015A000370587EA91E00E94D90364E670E080E0A5
:1015B00090E00E945C030E948E0460E082E00E9442
:1015C000370566E971E08BE493E00E94DE0368EE84
:1015D00073E080E090E00E945C0361E084E00E94A0
:1015E000370589EA91E00E94D90364E670E080E063
:1015F00090E00E945C030E948E0460E082E00E9402
:1016000037056BEA71E08BE493E00E94DE0368EE3D
:1016100073E080E090E00E945C0368E270E080E0AC
:1016200090E00E945C030E948E0460E082E00E94D1
:1016300037058BEB91E00E94D90364EF71E080E005
:1016400090E00E945C0360E08CE00E94370586EC2D
:1016500091E00E94D90364EF71E080E090E00E9485
:101660005C0360E08DE00E94370586EC91E00E940B
:10167000D90364EF71E080E090E00E945C0360E0D9
:101680008EE00E94370586EC91E00E94D90360E964
:1016900071E080E090E00E945C030E948E0460E0B4
:1016A00084E00E94370588EC91E00E94D90368EB42
:1016B00071E080E090E00E945C0368EE73E080E0FF
:1016C00090E00E945C0310920E0210920D02C091F5
:1016D0000D02D0910E02C53BD1057CF4CE010E94D3
:1016E0008C006FE070E080E090E00E945C03259643
:1016F000D0930E02C0930D02EACF10921002109206
:101700000F020E948E040E9449051092100210924E
:101710000F02EECD64EF71E080E090E00E945C0388
:101720000E948E0460E081E00E94370588E491E029
:101730000E94D90360E086E00E94370580ED91E0C9
:101740000E94D90361E08FE00E94370566E671E0F0
:101750008BE493E00E94DE0361E084E00E943705A1
:101760006AED71E08BE493E00E94DE0361E08DE0BE
:101770000E94370566E671E08BE493E00E94DE0389
:1017800068EE71E08AE192E00E94DE0368EE73E0A9
:1017900080E090E00E945C0368EB7BE080E090E0FA
:1017A0000E945C03AECF61706BCD052E97FB1EF4DB
:1017B00000940E94EC0B57FD07D00E94070C07FC19
:1017C00003D04EF40C94EC0B509540953095219538
:1017D0003F4F4F4F5F4F089590958095709561955D
:1017E0007F4F8F4F9F4F08950E94290CA59F900D0A
:1017F000B49F900DA49F800D911D11240895B7FFF3
:101800000C94F40B0E94F40B821B930B0895A1E23D
:101810001A2EAA1BBB1BFD010DC0AA1FBB1FEE1F6A
:10182000FF1FA217B307E407F50720F0A21BB30BB5
:10183000E40BF50B661F771F881F991F1A9469F731
:1018400060957095809590959B01AC01BD01CF018D
:101850000895A29FB001B39FC001A39F700D811D89
:101860001124911DB29F700D811D1124911D0895A9
:10187000991B79E004C0991F961708F0961B881FE2
:101880007A95C9F780950895EE0FFF1F0590F491A2
:08189000E02D0994F894FFCF4C
:10189800040506000102033132333435363738394E
:1018A8002A302300000000FA0199039B014702CC6B
:1018B80001AA01BE01000000008E039203960300F6
:1018C8000000005D059903C703C6030D0A00454ED5
:1018D8005445522054484520434F444500544F2016
:1018E8004F50454E20444F4F5221210050415353F1
:1018F800574F52443A0020002A0030353034004A0D
:1019080041594153485245450057454C434F4D4571
:1019180021210047455420494E2057495448494EF3
:101928003A3A3A00350047455420494E2057495421
:1019380048494E3A003300320031004745542049A7
:101948004E2057495448494E3A3A0052452D4C4F7B
:10195800434B494E47002E004C4F434B4544210012
:10196800494E434F5252454354005452592041471F
:1019780041494E2021212100434F444520494E43EF
:101988004F525245435420594F55204152452055F6
:0C1998004E415554484F52495A454400F6
:00000001FF
