:100000000C9462000C948A000C948A000C948A0070
:100010000C948A000C948A000C948A000C948A0038
:100020000C948A000C948A000C948A000C948A0028
:100030000C948A000C948A000C948A000C948A0018
:100040000C9431050C948A000C94A1050C947B054A
:100050000C948A000C948A000C948A000C948A00F8
:100060000C948A000C948A000000000024002700F1
:100070002A0000000000250028002B0000000000DE
:1000800023002600290004040404040404040202DA
:100090000202020203030303030301020408102007
:1000A0004080010204081020010204081020000012
:1000B0000008000201000003040700000000000027
:1000C0000000D30511241FBECFEFD8E0DEBFCDBFA7
:1000D00011E0A0E0B1E0EEEDF7E102C005900D9275
:1000E000AE3FB107D9F723E0AEEFB1E001C01D92FA
:1000F000AA33B207E1F710E0C2E6D0E004C02197CE
:10010000FE010E94D80BC136D107C9F70E948B06A9
:100110000C94ED0B0C94000096E0899FD001112403
:10012000A553BD4F90967C936E935F9791E0919607
:100130009C939197E0913803F091390390913703A4
:10014000992339F0309751F0811108C08091E7026E
:100150000994309719F05C968C91FACF0895CF925C
:10016000DF92EF92FF920F931F9396E0899FF00129
:100170001124E553FD4F11A2278D30A12130310507
:1001800051F178F02230310509F451C023303105A6
:1001900009F452C01F910F91FF90EF90DF90CF9024
:1001A00008956623B9F361E070E00E948C002FB7D8
:1001B000F8948091120290911302A0911402B091D0
:1001C00015022FBF8093230390932403A09325034C
:1001D000B0932603DFCF9FB7F894C0901202D0905F
:1001E0001302E0901402F09015029FBF00912303C8
:1001F000109124032091250330912603C01AD10ABF
:10020000E20AF30A009135031091360330E020E052
:100210000C151D052E053F0550F462E070E01F919E
:100220000F91FF90EF90DF90CF900C948C006111B4
:10023000B1CF63E070E0F3CF70E060E0F0CFFC019D
:10024000538D448D252F30E0842F90E0821B930B3B
:10025000541710F0CF96089501970895FC01918DE1
:10026000828D981761F0A28DAE0FBF2FB11D5D96E4
:100270008C91928D9F5F9F73928F90E008958FEF86
:100280009FEF0895FC01918D828D981731F0828D3A
:10029000E80FF11D858D90E008958FEF9FEF089591
:1002A000FC01918D228D892F90E0805C9F4F821BF5
:1002B00091098F7399270895FC01A48DA80FB92F78
:1002C000B11DA35ABF4F2C91848D90E001968F737E
:1002D0009927848FA689B7892C93A089B1898C919D
:1002E000837080648C93938D848D981306C00288EC
:1002F000F389E02D80818F7D80830895EF92FF92B6
:100300000F931F93CF93DF93EC0181E0888F9B8D38
:100310008C8D98131AC0E889F989808185FF15C0F2
:100320009FB7F894EE89FF896083E889F989808115
:100330008370806480839FBF81E090E0DF91CF91E4
:100340001F910F91FF90EF900895F62E0B8D10E006
:100350000F5F1F4F0F731127E02E8C8D8E110CC075
:100360000FB607FCFACFE889F989808185FFF5CFC0
:10037000CE010E945C01F1CFEB8DEC0FFD2FF11D42
:10038000E35AFF4FF0829FB7F8940B8FEA89FB89FD
:1003900080818062CFCFCF93DF93EC01888D88235B
:1003A000B9F0AA89BB89E889F9898C9185FD03C0D8
:1003B000808186FD0DC00FB607FCF7CF8C9185FFBD
:1003C000F2CF808185FFEDCFCE010E945C01E9CFA5
:1003D000DF91CF91089586E192E00E94500121E0E3
:1003E000892B09F420E0822F089580E090E0892B8A
:1003F00029F00E94EB0181110C94000008958330D4
:1004000081F028F4813099F08230A9F00895873086
:10041000A9F08830C9F08430B1F4809180008F7DDC
:1004200003C0809180008F7780938000089584B509
:100430008F7784BD089584B58F7DFBCF8091B00008
:100440008F778093B00008958091B0008F7DF9CFB1
:10045000CF93DF93282F30E0F901E255FF4F8491CD
:10046000F901E656FF4FD491F901EA57FF4FC491C5
:10047000CC23A1F081110E94FF01EC2FF0E0EE0FE0
:10048000FF1FE458FF4FA591B491EC91ED2381E05B
:1004900090E009F480E0DF91CF91089580E090E052
:1004A000FACF1F93CF93DF93282F30E0F901E25565
:1004B000FF4F8491F901E656FF4FD491F901EA57B5
:1004C000FF4FC491CC23A9F0162F81110E94FF0188
:1004D000EC2FF0E0EE0FFF1FEE58FF4FA591B49107
:1004E0008FB7F894EC91111108C0D095DE23DC93FE
:1004F0008FBFDF91CF911F910895DE2BF8CFCF935F
:10050000DF9390E0FC01E656FF4F24918A579F4FFE
:10051000FC0184918823C9F090E0880F991FFC01A9
:10052000E859FF4FA591B491FC01EE58FF4FC591DA
:10053000D49161110DC09FB7F8948C9120958223BE
:100540008C938881282328839FBFDF91CF910895C2
:10055000623051F49FB7F8943C91822F80958323A9
:100560008C93E8812E2BEFCF8FB7F894EC912E2B44
:100570002C938FBFEACF3FB7F89480910E029091F1
:100580000F02A0911002B091110226B5A89B05C0E0
:100590002F3F19F00196A11DB11D3FBFBA2FA92F02
:1005A000982F8827BC01CD01620F711D811D911DFF
:1005B00042E0660F771F881F991F4A95D1F708956B
:1005C0008F929F92AF92BF92CF92DF92EF92FF9263
:1005D0004B015C010E94BB026B017C010E94BB02CB
:1005E0006C197D098E099F09683E7340810591054C
:1005F000A8F321E0821A9108A108B10888EEC80E7C
:1006000083E0D81EE11CF11C81149104A104B10403
:1006100029F7FF90EF90DF90CF90BF90AF909F9021
:100620008F900895862F642F0C947F02862F642F5D
:100630000C945102862F0C942802AF92BF92CF9255
:10064000DF92EF92FF920F931F93CF93DF936C0192
:100650007B018B01040F151FEB015E01AE18BF0873
:10066000C017D10759F06991D601ED91FC91019025
:10067000F081E02DC6010995892B79F7C501DF913D
:10068000CF911F910F91FF90EF90DF90CF90BF908F
:10069000AF900895089590E080E00895CF93DF93A0
:1006A000EC0160E08E810E94510261E08E810E9427
:1006B000510260E08E810E9451028BE891E0019727
:1006C000F1F7DF91CF910895CF92DF92EF92FF92F1
:1006D0000F931F93CF93DF936C017C0187E0E80EAB
:1006E000F11CD0E0C0E0062F10E0B8010C2E02C0D3
:1006F000759567950A94E2F76170F70181917F0122
:100700000E9451022196C430D10579F7C601DF91CC
:10071000CF911F910F91FF90EF90DF90CF900C94AD
:100720004E03CF92DF92EF92FF920F931F93CF93DE
:10073000DF93EC01F62E642F8C810E9451028D8193
:100740008F3F19F060E00E9451020F2D10E08F855D
:1007500084FF25C06E0187E0C80ED11CF12CE12C6E
:10076000B8010E2C02C0759567950A94E2F7617086
:10077000F60181916F010E945102FFEFEF1AFF0A0B
:1007800088E0E816F10461F7CE01DF91CF911F9167
:100790000F91FF90EF90DF90CF900C944E03B80133
:1007A00084E0759567958A95E1F7CE010E94640310
:1007B0006F2DCE01DF91CF911F910F91FF90EF90A0
:1007C000DF90CF900C94640340E0682F83EB92E0BD
:1007D0000C94910381E00E94E4038BE39FE1019775
:1007E000F1F70895CF93DF93823029F49091C202FC
:1007F00098609093C2028093C6021092C70280E470
:100800008093C80280E18093C90280E58093CA0288
:1008100061E08091B7020E947F028091B8028F3F11
:1008200019F061E00E947F0261E08091B9020E94AC
:100830007F02C3EBD2E09E01235B32408091C20273
:1008400084FD0BC084E090E021962817390744F41A
:1008500061E08E810E947F02EECF88E090E0F4CFCD
:100860008BE39DE00197F1F760E08091B7020E9471
:10087000510260E08091B9020E9451028091B80259
:100880008F3F19F060E00E9451028091C20284FD06
:1008900034C063E083EB92E00E946403CBE4D6E4CF
:1008A000CE010197F1F763E083EB92E00E946403CD
:1008B0002197F1F763E083EB92E00E94640383E504
:1008C00092E00197F1F762E083EB92E00E9464030B
:1008D0008091C20280620E94E40384E08093C3029C
:1008E0008CE00E94E4030E94EA0382E08093C40249
:1008F00086E0DF91CF910C94E40380620E94E403D0
:100900008BE496E40197F1F78091C20280620E9425
:10091000E40383E592E00197F1F78091C2028062DF
:100920000E94E403D5CF41E00E94910381E090E072
:100930000895FB0101900020E9F73197AF01461BB4
:10094000570BDC01ED91FC910280F381E02D0994BD
:10095000CF93DF93BC0186E192E00E949904EC0101
:1009600060E471E086E192E00E9499048C0F9D1F83
:10097000DF91CF910895CF92DF92EF92FF920F9384
:100980001F93CF93DF93CDB7DEB7A1970FB6F8943F
:10099000DEBF0FBECDBF6B017C01F7FE3EC041E064
:1009A0006DE283EB92E00E94910322273327A90195
:1009B0002C193D094E095F0919A28E010F5D1F4FC9
:1009C0009AE0C92ED12CE12CF12CCA01B901A70162
:1009D00096010E948C0B605DF80162938F012115D6
:1009E00031054105510589F790E080E0309729F005
:1009F000BF0183EB92E00E9499040196A1960FB685
:100A0000F894DEBF0FBECDBFDF91CF911F910F9144
:100A1000FF90EF90DF90CF900895AC019B0119A259
:100A20008E010F5D1F4F8AE0C82ED12CE12CF12CD6
:100A3000CA01B901A70196010E948C0B605DF80103
:100A400062938F01211531054105510589F790E029
:100A500080E0309799F2BF0183EB92E00E94990405
:100A6000CDCF1F920F920FB60F9211242F933F9369
:100A70008F939F93AF93BF93809112029091130233
:100A8000A0911402B091150230910D0223E0230FC2
:100A90002D3758F50196A11DB11D20930D028093AD
:100AA000120290931302A0931402B0931502809146
:100AB0000E0290910F02A0911002B09111020196C6
:100AC000A11DB11D80930E0290930F02A0931002FE
:100AD000B0931102BF91AF919F918F913F912F9150
:100AE0000F900FBE0F901F90189526E8230F0296C7
:100AF000A11DB11DD2CF1F920F920FB60F921124DC
:100B00002F933F934F935F936F937F938F939F9315
:100B1000AF93BF93EF93FF9386E192E00E945C0155
:100B2000FF91EF91BF91AF919F918F917F916F91C5
:100B30005F914F913F912F910F900FBE0F901F909B
:100B400018951F920F920FB60F9211242F938F9327
:100B50009F93EF93FF93E0912602F091270280810B
:100B6000E0912C02F0912D0282FD1BC090818091BA
:100B70002F028F5F8F7320913002821741F0E09136
:100B80002F02F0E0EA5EFD4F958F80932F02FF91D8
:100B9000EF919F918F912F910F900FBE0F901F900B
:100BA00018958081F4CF109219021092180288EEE5
:100BB00093E0A0E0B0E080931A0290931B02A09310
:100BC0001C02B0931D028CE191E090931702809378
:100BD000160285EC90E0909323028093220284EC2D
:100BE00090E0909325028093240280EC90E0909313
:100BF00027028093260281EC90E090932902809353
:100C0000280282EC90E090932B0280932A0286ECDB
:100C100090E090932D0280932C0210922F0210925C
:100C2000300210923102109232021092CD021092D4
:100C3000D1021092D0021092D2028AE391E09093F6
:100C4000CC028093CB02E7EEF2E010821482138292
:100C50001582369683E0E332F807B9F784E091E035
:100C600090932E0380932D0380E091E090933003C6
:100C700080932F0384E0809331038093320388E0D4
:100C800091E090932C0380932B038AE090E0909363
:100C900034038093330384EF91E090933603809381
:100CA00035031092390310923803109227031092E3
:100CB00028031092290310922A03109237031092EE
:100CC000B6021092B5028EE291E09093B402809346
:100CD000B30288E08093B7028FEF8093B80289E077
:100CE0008093B9028AE08093BA028BE08093BB02C2
:100CF0008CE08093BC028DE08093BD021092BE0216
:100D00001092BF021092C0021092C1021092C20251
:100D100081E00C94F203789484B5826084BD84B53C
:100D2000816084BD85B5826085BD85B5816085BDE6
:100D300080916E00816080936E001092810080919E
:100D40008100826080938100809181008160809326
:100D50008100809180008160809380008091B1004B
:100D600084608093B1008091B00081608093B00076
:100D700080917A00846080937A0080917A0082600A
:100D800080937A0080917A00816080937A008091CC
:100D90007A00806880937A001092C10082E00E94FD
:100DA000F20363E471E083EB92E00E949904E09126
:100DB000C602E23008F059C0E150F0E0ED54FD4FBA
:100DC000848980680E94E4036DE471E083EB92E023
:100DD0000E94990460ED77E080E090E00E94E002DC
:100DE0000E94EA0365E0462E512C612C712C2224CE
:100DF0002A94322C50E0852E50E0952E81E080938D
:100E000037038FB7F894409112025091130260910A
:100E10001402709115028FBF8091270390912803CF
:100E2000A0912903B0912A03481B590B6A0B7B0B35
:100E30008091330390913403B0E0A0E084179507CC
:100E4000A607B70708F098C1C0E080913103C81722
:100E500070F4E0912D03F0912E03EC0FF11D62E090
:100E600080810E947F02CF5FF0CFE1E0A6CFB12C5E
:100E700080913203B81608F061C00B2D10E0E091AC
:100E80002F03F0913003E00FF11F61E080810E9499
:100E90007F02E0912F03F0913003E00FF11F60E03B
:100EA00080810E94510281E090E0A0E0B0E00B2C34
:100EB00004C0880F991FAA1FBB1F0A94D2F76C01A8
:100EC0007C01E094F094A12C80913103A816F8F4F1
:100ED000CA2DD0E0E0912D03F0912E03EC0FFD1F01
:100EE00080810E9428022496CC0FDD1FC553DD4F60
:100EF000892B41F4888199818C299D299983888344
:100F0000A394E2CF888199818E219F21F7CFE09130
:100F10002F03F0913003E00FF11F61E080810E9408
:100F2000510280912F0390913003080F191F60E048
:100F3000D8018C910E947F02B3949ACF2BECC22EE1
:100F400022E0D22EE6018F8D98A1892B21F41C8EF0
:100F50003E8E2D8E19A22696E7E0F3E0EC17FD07F2
:100F600091F710E096E0B92E80913103181708F040
:100F700052C000E0E12EF12CEE0CFF1C97012D5227
:100F80003D4F790120913203021708F042C0D7018A
:100F90006D917C91002E02C0769567950A94E2F7D8
:100FA000129F90011124200F311DEBECF2E080E044
:100FB000458D568D2417350709F49CC38F5F3696EF
:100FC0008A30B1F760FF23C0EBECF2E090E080E004
:100FD000448D411117C0E0912B03F0912C03E20FD7
:100FE000F31F6081B89EF001B99EF00D1124E55306
:100FF000FD4F648F368F258F10A2178E61E00E94FF
:10100000AF0005C0019636968A30910509F70F5F4B
:10101000B9CF1F5FA9CF80E0F60191A19111892F6F
:10102000F6E0CF0ED11CCC15DD05B1F79FB7F894D3
:1010300040911202509113026091140270911502B6
:101040009FBF409327035093280360932903709315
:101050002A03882309F490C08091EC02882309F4C4
:101060008BC08091EA029091EB02019709F084C055
:10107000C091E702C0930C02C11183C0C090070267
:10108000D0900802E0900902F0900A0280910B02D1
:101090008823C9F0809106028B3209F0E7C2809163
:1010A000020290910302A0910402B09105028C0DFE
:1010B0009D1DAE1DBF1D8093FE019093FF01A09367
:1010C0000002B0930102E1E08091C6028111E0E0EC
:1010D000E195F0E0ED54FD4F848980680E94E403BF
:1010E000C701B6010E94BB0441E06091060283EB98
:1010F00092E00E949103609102027091030280913C
:101100000402909105020E94BB0480910B02882387
:1011100081F06AEF71E083EB92E00E9499046091A4
:10112000FE017091FF0180910002909101020E94E6
:10113000BB04E091C602E23008F0DAC2E150F0E010
:10114000ED54FD4F848980680E94E4036091FE01A4
:101150007091FF0180910002909101020E94BB04F6
:101160008114910409F44ACE0E94EB01882309F40A
:101170003ECE0E9400003BCE1092370310920C022C
:101180007DCF0E94EA03CA32F1F488E591E00E9423
:10119000A80410920202109203021092040210920C
:1011A0000502109207021092080210920902109292
:1011B0000A021092FE011092FF011092000210929A
:1011C000010210920B0280910C028133F1F486E649
:1011D00091E00E94A8042091FE013091FF0140910E
:1011E000000250910102211531054105510509F018
:1011F000A4C121E030E040E050E02093FE013093B4
:10120000FF01409300025093010280910C0284334D
:10121000F1F48FE691E00E94A8042091FE01309144
:10122000FF01409100025091010221153105410555
:10123000510509F093C184E090E0A0E0B0E0809314
:10124000FE019093FF01A0930002B09301028091F0
:101250000C028733F1F488E791E00E94A804209102
:10126000FE013091FF0140910002509101022115D1
:1012700031054105510509F082C127E030E040E029
:1012800050E02093FE013093FF0140930002509301
:10129000010280910C028033E9F481E891E00E9420
:1012A000A8042091FE013091FF014091000250916D
:1012B0000102211531054105510561F0AAE0B0E0B8
:1012C0000E94CD0B6093FE017093FF01809300029A
:1012D0009093010280910C028233F1F48AE891E04C
:1012E0000E94A8042091FE013091FF01409100026C
:1012F00050910102211531054105510509F050C1F8
:1013000082E090E0A0E0B0E08093FE019093FF01C6
:10131000A0930002B093010280910C028533D1F4B6
:1013200083E991E00E94A8042091FE013091FF0121
:1013300040910002509101022115310541055105EE
:1013400009F03FC14092FE015092FF0160920002FD
:101350007092010280910C028833F1F48CE991E0E3
:101360000E94A8042091FE013091FF0140910002EB
:1013700050910102211531054105510509F032C195
:1013800028E030E040E050E02093FE013093FF0180
:10139000409300025093010280910C028332B9F411
:1013A00085EA91E00E94A8048091FE019091FF01DE
:1013B000A0910002B0910102809302029093030277
:1013C000A0930402B093050281E080930B02809108
:1013D0000C028333F1F482EB91E00E94A804209187
:1013E000FE013091FF014091000250910102211550
:1013F00031054105510509F006C183E090E0A0E008
:10140000B0E08093FE019093FF01A0930002B0939F
:10141000010280910C028633F1F48BEB91E00E9483
:10142000A8042091FE013091FF01409100025091EB
:101430000102211531054105510509F0F5C026E0ED
:1014400030E040E050E02093FE013093FF014093F4
:1014500000025093010280910C028933F1F484EC74
:1014600091E00E94A8042091FE013091FF0140917B
:10147000000250910102211531054105510509F085
:10148000E4C089E090E0A0E0B0E08093FE0190939A
:10149000FF01A0930002B093010280910C029FEB28
:1014A000980F943008F0EACD4091FE015091FF0171
:1014B000609100027091010240930702509308026C
:1014C0006093090270930A021092FE011092FF01CC
:1014D0001092000210920102813439F48DEC91E0F7
:1014E0000E94A8048BE28093060280910C02823451
:1014F00039F486ED91E00E94A8048DE28093060203
:1015000080910C02833439F482EE91E00E94A804A9
:101510008AE28093060280910C02843439F481EFD0
:1015200091E00E94A8048FE28093060264E670E0D6
:1015300080E090E00E94E002A1CDAAE0B0E00E942D
:10154000CD0B6F5F7F4F8F4F9F4F6093FE01709366
:10155000FF01809300029093010257CEAAE0B0E011
:101560000E94CD0B6C5F7F4F8F4F9F4F6093FE01AA
:101570007093FF01809300029093010268CEAAE06D
:10158000B0E00E94CD0B695F7F4F8F4F9F4F6093FC
:10159000FE017093FF01809300029093010279CEC7
:1015A000AAE0B0E00E94CD0B6E5F7F4F8F4F9F4F40
:1015B0006093FE017093FF018093000290930102FB
:1015C000ABCEAAE0B0E00E94CD0B6B5F7F4F8F4F98
:1015D0009F4F6093FE017093FF01809300029093F0
:1015E0000102B8CEAAE0B0E00E94CD0B685F7F4F49
:1015F0008F4F9F4F6093FE017093FF018093000215
:1016000090930102C9CEAAE0B0E00E94CD0B6D5FBD
:101610007F4F8F4F9F4F6093FE017093FF01809328
:10162000000290930102F5CEAAE0B0E00E94CD0B3B
:101630006A5F7F4F8F4F9F4F6093FE017093FF0152
:10164000809300029093010206CFAAE0B0E00E94CE
:10165000CD0B675F7F4F8F4F9F4F6093FE0170935D
:10166000FF01809300029093010217CF8D3289F41D
:101670008091020290910302A0910402B0910502B0
:10168000A7019601281B390B4A0B5B0BDA01C90134
:1016900012CD8A32A9F420910202309103024091C6
:1016A000040250910502C701B6010E947C0B6093B1
:1016B000FE017093FF01809300029093010203CD1D
:1016C0008F3209F000CD2091020230910302409147
:1016D000040250910502C701B6010E94AE0B20938F
:1016E000FE013093FF014093000250930102EBCCC6
:1016F000E1E025CD617083CCDB018F939F930E9445
:10170000CD0BBF91AF91A29F800D911DA39F900D16
:10171000B29F900D11240895A1E21A2EAA1BBB1BA3
:10172000FD010DC0AA1FBB1FEE1FFF1FA217B307AD
:10173000E407F50720F0A21BB30BE40BF50B661FC3
:10174000771F881F991F1A9469F760957095809587
:1017500090959B01AC01BD01CF010895052E97FB2B
:101760001EF400940E94C50B57FD07D00E948C0BFD
:1017700007FC03D04EF40C94C50B50954095309562
:1017800021953F4F4F4F5F4F0895909580957095ED
:1017900061957F4F8F4F9F4F08950E94DE0BA59F4D
:1017A000900DB49F900DA49F800D911D112408955C
:1017B000EE0FFF1F0590F491E02D0994A29FB00158
:1017C000B39FC001A39F700D811D1124911DB29F75
:0E17D000700D811D1124911D0895F894FFCF16
:1017DE000405060700010203373839443435364311
:1017EE00313233422A302341000000007E011D03B6
:1017FE001F01CB0150012E01420100000000930495
:10180E001D034B034A0300000000120316031A03C4
:10181E000D0A004A41594153485245450043414C37
:10182E0043554C41544F5200427574746F6E2043B1
:10183E00616E63656C00427574746F6E2031004288
:10184E007574746F6E203400427574746F6E203729
:10185E0000427574746F6E203000427574746F6E32
:10186E00203200427574746F6E20350042757474A8
:10187E006F6E203800427574746F6E2045717561FD
:10188E006C00427574746F6E203300427574746F01
:10189E006E203600427574746F6E20390041646498
:1018AE006974696F6E005375627472616374696FE7
:1018BE006E004D756C7469706C69636174696F6EDE
:0E18CE00004465766573696F6E00203D000072
:00000001FF
