:100000000C945E000C9486000C9486000C94860080
:100010000C9486000C9486000C9486000C94860048
:100020000C9486000C9486000C9486000C94860038
:100030000C9486000C9486000C9486000C94860028
:100040000C9445040C9486000C94B5040C948F0415
:100050000C9486000C9486000C9486000C94860008
:100060000C9486000C948600000000080002010039
:100070000003040700000000000000000000000072
:10008000250028002B0000000000240027002A0083
:10009000040404040404040402020202020203032E
:1000A0000303030301020408102040800102040836
:1000B0001020010204081020E7049E0711241FBE2F
:1000C000CFEFD8E0DEBFCDBF22E0A4EDB1E001C0AC
:1000D0001D92AC39B207E1F711E0A0E0B1E0E8ED24
:1000E000F3E102C005900D92A43DB107D9F710E0ED
:1000F000CDE5D0E004C02197FE010E94DE07CC359B
:10010000D107C9F70E9489050C94DF090C940000FF
:1001100090E0FC01EC55FF4F249180579F4FFC016C
:100120008491882399F090E0880F991FFC01EA5789
:10013000FF4FA591B491FC01E458FF4F8591949134
:100140008FB7F894EC91E22BEC938FBF089590E079
:10015000FC01E859FF4F2491FC01EC55FF4F34910D
:10016000FC01E057FF4FE491EE23C9F0222339F060
:10017000233001F1A8F4213019F1223029F1F0E007
:10018000EE0FFF1FE458FF4FA591B4918FB7F8947D
:10019000EC91611126C030953E233C938FBF0895AA
:1001A0002730A9F02830C9F0243049F78091800029
:1001B0008F7D03C0809180008F7780938000DFCF98
:1001C00084B58F7784BDDBCF84B58F7DFBCF8091E5
:1001D000B0008F778093B000D2CF8091B0008F7D38
:1001E000F9CF3E2BDACF3FB7F8948091D5019091AB
:1001F000D601A091D701B091D80126B5A89B05C022
:100200002F3F19F00196A11DB11D3FBFBA2FA92F95
:10021000982F8827BC01CD01620F711D811D911D92
:1002200042E0660F771F881F991F4A95D1F70895FE
:100230008F929F92AF92BF92CF92DF92EF92FF92F6
:100240004B015C010E94F3006B017C010E94F300F2
:100250006C197D098E099F09683E734081059105DF
:10026000A8F321E0821A9108A108B10888EEC80E0F
:1002700083E0D81EE11CF11C81149104A104B10497
:1002800029F7FF90EF90DF90CF90BF90AF909F90B5
:100290008F9008950895AF92BF92CF92DF92EF9220
:1002A000FF920F931F93CF93DF936C017B018B0120
:1002B000040F151FEB015E01AE18BF08C017D10770
:1002C00059F06991D601ED91FC910190F081E02DFA
:1002D000C6010995892B79F7C501DF91CF911F914F
:1002E0000F91FF90EF90DF90CF90BF90AF90089567
:1002F000FC01538D448D252F30E0842F90E0821B2C
:10030000930B541710F0CF96089501970895FC01B0
:10031000918D828D981761F0A28DAE0FBF2FB11D08
:100320005D968C91928D9F5F9F73928F90E0089560
:100330008FEF9FEF08952FB7F8948091D901909196
:10034000DA01A091DB01B091DC012FBF8093E501C0
:100350009093E601A093E701B093E8018DED91E061
:100360000E94870197FF26C02FB7F8948091D9018A
:100370009091DA01A091DB01B091DC012FBF409197
:10038000E5015091E6016091E7017091E801841B5D
:10039000950BA60BB70B4091E1015091E2016091E2
:1003A000E3017091E40184179507A607B707B0F23F
:1003B0008FEF9FEF0895FC01918D828D981731F09A
:1003C000828DE80FF11D858D90E008958FEF9FEFEE
:1003D0000895FC01918D228D892F90E0805C9F4FC4
:1003E000821B91098F73992708958DED91E00E94EA
:1003F000E90121E0892B09F420E0822F089580E0B3
:1004000090E0892B29F00E94F50181110C940000E5
:100410000895FC01A48DA80FB92FB11DA35ABF4F99
:100420002C91848D90E001968F739927848FA689F3
:10043000B7892C93A089B1898C91837080648C9347
:10044000938D848D981306C00288F389E02D8081F6
:100450008F7D80830895EF92FF920F931F93CF9328
:10046000DF93EC0181E0888F9B8D8C8D98131AC0EF
:10047000E889F989808185FF15C09FB7F894EE89D6
:10048000FF896083E889F989808183708064808333
:100490009FBF81E090E0DF91CF911F910F91FF907E
:1004A000EF900895F62E0B8D10E00F5F1F4F0F7326
:1004B0001127E02E8C8D8E110CC00FB607FCFACFE1
:1004C000E889F989808185FFF5CFCE010E94090274
:1004D000F1CFEB8DEC0FFD2FF11DE35AFF4FF082B2
:1004E0009FB7F8940B8FEA89FB8980818062CFCF18
:1004F000CF93DF93EC01888D8823B9F0AA89BB895B
:10050000E889F9898C9185FD03C0808186FD0DC045
:100510000FB607FCF7CF8C9185FFF2CF808185FF66
:10052000EDCFCE010E940902E9CFDF91CF9108956E
:1005300090E080E00895CF93DF93EC0160E08E813E
:100540000E94A70061E08E810E94A70060E08E817A
:100550000E94A7008BE891E00197F1F7DF91CF911E
:100560000895CF92DF92EF92FF920F931F93CF9354
:10057000DF936C017C0187E0E80EF11CD0E0C0E065
:10058000062F10E0B8010C2E02C0759567950A94ED
:10059000E2F76170F70181917F010E94A700219627
:1005A000C430D10579F7C601DF91CF911F910F912A
:1005B000FF90EF90DF90CF900C949B02CF92DF9250
:1005C000EF92FF920F931F93CF93DF93EC01F62EE0
:1005D000642F8C810E94A7008D818F3F19F060E00D
:1005E0000E94A7000F2D10E08F8584FF25C06E01AB
:1005F00087E0C80ED11CF12CE12CB8010E2C02C0F2
:10060000759567950A94E2F76170F60181916F0123
:100610000E94A700FFEFEF1AFF0A88E0E816F10436
:1006200061F7CE01DF91CF911F910F91FF90EF9075
:10063000DF90CF900C949B02B80184E0759567958C
:100640008A95E1F7CE010E94B1026F2DCE01DF91B4
:10065000CF911F910F91FF90EF90DF90CF900C946E
:10066000B10240E0682F80E892E00C94DE0281E065
:100670000E9431038BE39FE10197F1F70895CF9337
:10068000DF93823029F490918F02986090938F02CB
:10069000809393021092940280E48093950280E10B
:1006A0008093960280E580939702809184020E9455
:1006B0008800809185028F3F11F00E948800809110
:1006C00086020E948800C0E8D2E09E012058324095
:1006D00080918F0284FD0AC084E090E02196281763
:1006E00039073CF48E810E948800EFCF88E090E0CB
:1006F000F5CF8BE39DE00197F1F760E080918402F4
:100700000E94A70060E0809186020E94A70080916D
:1007100085028F3F19F060E00E94A70080918F0250
:1007200084FD34C063E080E892E00E94B102CBE433
:10073000D6E4CE010197F1F763E080E892E00E94F1
:10074000B1022197F1F763E080E892E00E94B102E4
:1007500083E592E00197F1F762E080E892E00E9481
:10076000B10280918F0280620E94310384E0809305
:1007700090028CE00E9431030E94370382E0809354
:10078000910286E0DF91CF910C94310380620E9448
:1007900031038BE496E40197F1F780918F02806238
:1007A0000E94310383E592E00197F1F780918F0277
:1007B00080620E943103D5CF41E00E94DE0281E0D9
:1007C00090E00895FB0101900020E9F73197AF0117
:1007D000461B570BDC01ED91FC910280F381E02D6B
:1007E0000994CF93DF93BC018DED91E00E94E20369
:1007F000EC0164E271E08DED91E00E94E2038C0F68
:100800009D1FDF91CF91089520917E0230917F024C
:10081000232B39F421E0FC018081882361F020E062
:100820000AC0BC0180917A0290917B020E94CF099C
:1008300021E0892BA1F7822F08950F931F93CF9367
:10084000DF93EC0188819981009759F02A813B81DF
:100850002617370730F081E0DF91CF911F910F917C
:1008600008958B016F5F7F4F0E940909009759F02F
:10087000998388831B830A832C813D81232B59F71D
:10088000FC011082E8CF80E0E7CF1F920F920FB6F5
:100890000F9211242F933F938F939F93AF93BF9306
:1008A0008091D9019091DA01A091DB01B091DC0136
:1008B0003091D40123E0230F2D3758F50196A11D67
:1008C000B11D2093D4018093D9019093DA01A093B4
:1008D000DB01B093DC018091D5019091D601A0910C
:1008E000D701B091D8010196A11DB11D8093D5010A
:1008F0009093D601A093D701B093D801BF91AF9147
:100900009F918F913F912F910F900FBE0F901F904D
:10091000189526E8230F0296A11DB11DD2CF1F9274
:100920000F920FB60F9211242F933F934F935F9323
:100930006F937F938F939F93AF93BF93EF93FF93A7
:100940008DED91E00E940902FF91EF91BF91AF916F
:100950009F918F917F916F915F914F913F912F91D7
:100960000F900FBE0F901F9018951F920F920FB609
:100970000F9211242F938F939F93EF93FF93E09106
:10098000ED01F091EE018081E091F301F091F4012D
:1009900082FD1BC090818091F6018F5F8F73209143
:1009A000F701821741F0E091F601F0E0E352FE4FCB
:1009B000958F8093F601FF91EF919F918F912F91E9
:1009C0000F900FBE0F901F9018958081F4CF10925A
:1009D000E0011092DF0188EE93E0A0E0B0E08093A8
:1009E000E1019093E201A093E301B093E4018AE076
:1009F00091E09093DE018093DD0185EC90E090938F
:100A0000EA018093E90184EC90E09093EC018093FB
:100A1000EB0180EC90E09093EE018093ED0181EC8E
:100A200090E09093F0018093EF0182EC90E090933E
:100A3000F2018093F10186EC90E09093F4018093B1
:100A4000F3011092F6011092F7011092F801109242
:100A5000F90110928302109282028CE191E090934E
:100A600081028093800282E0809384028FEF8093E2
:100A7000850283E08093860284E08093870285E08C
:100A80008093880286E08093890287E080938A02BF
:100A900010928B0210928C0210928D0210928E0294
:100AA00010928F0281E00E943F0310927B0210920D
:100AB0007A0210927D0210927C0210927F021092B4
:100AC0007E0270E060E08AE792E00E941D042091BF
:100AD0007A0230917B02811113C02115310519F082
:100AE000C9010E94800810927B0210927A02109233
:100AF0007F0210927E0210927D0210927C02089575
:100B000010927F0210927E0266E271E0C9010C949D
:100B1000D809CF93DF93CDB7DEB728970FB6F894F7
:100B2000DEBF0FBECDBF789484B5826084BD84B52E
:100B3000816084BD85B5826085BD85B5816085BDD8
:100B400080916E00816080936E0010928100809190
:100B50008100826080938100809181008160809318
:100B60008100809180008160809380008091B1003D
:100B700084608093B1008091B00081608093B00068
:100B800080917A00846080937A0080917A008260FC
:100B900080937A0080917A00816080937A008091BE
:100BA0007A00806880937A001092C100E091ED0194
:100BB000F091EE0182E08083E091E901F091EA0199
:100BC0001082E091EB01F091EC018FEC80831092A8
:100BD000F501E091F101F091F20186E08083E0916E
:100BE000EF01F091F001808180618083E091EF015D
:100BF000F091F001808188608083E091EF01F091B5
:100C0000F001808180688083E091EF01F091F00134
:100C100080818F7D808388E00E94880089E00E9427
:100C200088008AE00E94880087E291E00E94F10338
:100C300064E670E080E090E00E94180182E00E948B
:100C40003F0364E371E080E892E00E94E203E091F8
:100C50009302E33008F090C0E150F0E0E058FD4F1F
:100C6000848980680E9431036DE371E080E892E03E
:100C70000E94E20368EE73E080E090E00E941801B9
:100C80008DE491E00E94F10368EE73E080E090E073
:100C90000E94180187E591E00E94F10368EE73E07D
:100CA00080E090E00E94180180E0E82E80E0F82EBD
:100CB0000E9437036BE671E080E892E00E94E20355
:100CC000E0919302E33008F059C0E150F0E0E058C1
:100CD000FD4F848980680E94310368E771E080E8F5
:100CE00092E00E94E20364E670E080E090E00E94FF
:100CF00018018DED91E00E94E901181619060CF01B
:100D000011C11A8219821C821B821E821D8270E010
:100D100060E0CE0101960E941D0429813A81811173
:100D20002FC02115310519F0C9010E9480081A82CF
:100D300019821E821D821C821B820E949B0197FDCC
:100D400027C08F8318860D811E810F5F1F4FB8014A
:100D5000CE0101960E941D04882379F329813A81EE
:100D60008D819E81BE01695F7F4F820F931F0E941C
:100D7000D8091E830D83E1CFE2E06FCFE2E0A6CF7A
:100D80001E821D8266E271E0C9010E94D809D5CF9A
:100D900080917A0290917B02009709F44EC069819C
:100DA0007A816115710509F446C040917C02509129
:100DB0007D022D813E8142175307E8F10E94D80938
:100DC0008D819E8190937F0280937E021E821D8280
:100DD00089819A81009711F00E94800820917E02FB
:100DE00030917F02C90101978217930758F4E0916F
:100DF0007A02F0917B02E80FF91F90937F028093B3
:100E00007E02108280E891E00E940404882361F150
:100E10000E94370367E871E080E892E00E94E203F5
:100E200064E670E080E090E00E94180161E088E0F4
:100E30000E94A70058CF0E94800889819A819093D0
:100E40007B0280937A028B819C8190937D028093B8
:100E50007C028D819E8190937F0280937E021A8214
:100E600019821C821B82B2CF80E991E00E940404A7
:100E7000882381F00E94370368E971E080E892E0FE
:100E80000E94E20364E670E080E090E00E941801B6
:100E900060E0CDCF82EA91E00E940404882389F0CB
:100EA0000E9437036AEA71E080E892E00E94E20360
:100EB00064E670E080E090E00E94180161E089E063
:100EC000B7CF82EB91E00E940404882381F00E9456
:100ED00037036BEB71E080E892E00E94E20364E686
:100EE00070E080E090E00E94180160E0E8CF0E948E
:100EF000370364EC71E080E892E00E94E20364E66C
:100F000070E080E090E00E94180161E08AE00E94B9
:100F1000A70064EF71E080E090E00E94180160E0BB
:100F20008AE086CFE114F10409F4C2CE0E94F501F3
:100F3000882309F4BDCE0E940000BACE80917A02C7
:100F400090917B02009711F00C94800808952F92E5
:100F50003F924F925F926F927F928F929F92AF9249
:100F6000BF92CF92DF92EF92FF920F931F93CF9396
:100F7000DF93CDB7DEB7CA1BDB0B0FB6F894DEBF2D
:100F80000FBECDBF09942A88398848885F846E8453
:100F90007D848C849B84AA84B984C884DF80EE809D
:100FA000FD800C811B81AA81B981CE0FD11D0FB6A6
:100FB000F894DEBF0FBECDBFED010895EE0FFF1F09
:100FC0000590F491E02D09940F931F93CF93DF9335
:100FD0008230910510F482E090E0E0919A02F09165
:100FE0009B0230E020E0B0E0A0E0309799F42115BA
:100FF000310509F44AC0281B390B24303105D8F5D6
:101000008A819B816115710589F1FB01938382833C
:10101000FE0111C040815181028113814817590797
:10102000E0F04817590799F4109761F012960C9365
:10103000129713961C933296CF01DF91CF911F9197
:101040000F91089500939A0210939B02F4CF2115FB
:10105000310551F04217530738F0A901DB019A011D
:10106000BD01DF01F801C1CFEF01F9CF90939B02E1
:1010700080939A02CDCFFE01E20FF31F81939193EB
:101080002250310939832883D7CF2091980230919B
:101090009902232B41F420910201309103013093F6
:1010A00099022093980220910001309101012115AD
:1010B000310541F42DB73EB740910401509105012F
:1010C000241B350BE0919802F0919902E217F30787
:1010D000A0F42E1B3F0B2817390778F0AC014E5FA8
:1010E0005F4F2417350748F04E0F5F1F509399024A
:1010F00040939802819391939FCFF0E0E0E09CCFE2
:10110000CF93DF930097E9F0FC01329713821282AC
:10111000A0919A02B0919B02ED0130E020E010977F
:10112000A1F420813181820F931F20919802309188
:1011300099022817390709F061C0F0939902E093EA
:101140009802DF91CF910895EA01CE17DF07E8F505
:101150004A815B819E0141155105B1F7E901FB838D
:10116000EA8349915991C40FD51FEC17FD0761F42B
:10117000808191810296840F951FE901998388836C
:10118000828193819B838A83F0E0E0E012968D91C7
:101190009C9113970097B9F52D913C911197CD0132
:1011A0000296820F931F209198023091990228177E
:1011B000390739F6309751F510929B0210929A0236
:1011C000B0939902A0939802BCCFD383C28340818D
:1011D0005181840F951FC817D90761F44E5F5F4F87
:1011E00088819981480F591F518340838A819B814F
:1011F000938382832115310509F0B0CFF0939B02D0
:10120000E0939A029ECFFD01DC01C0CF13821282CF
:10121000D7CFB0E0A0E0EFE0F9E00C94A9078C0193
:10122000009751F4CB010E94E4078C01C801CDB7AF
:10123000DEB7E0E10C94C507FC01E60FF71F9C0147
:1012400022503109E217F30708F49DC0D901CD916E
:10125000DC911197C617D70798F0C530D10530F348
:10126000CE0104978617970708F3C61BD70B229762
:10127000C193D1936D937C93CF010E948008D6CF08
:101280005B01AC1ABD0A4C018C0E9D1EA0919A0206
:10129000B0919B02512C412CF12CE12C109731F58F
:1012A00080919802909199028815990509F05CC087
:1012B0004616570608F058C0809100019091010130
:1012C000009741F48DB79EB74091040150910501FC
:1012D000841B950BE817F90708F055C0F0939902A5
:1012E000E0939802F90171836083A0CF8D919C9166
:1012F000119712966C90129713967C901397A815DD
:10130000B90559F56C0142E0C40ED11CCA14DB04C6
:1013100020F1AC014A195B09DA011296159780F0A9
:101320006282738251834083D9016D937C93E1146F
:10133000F10471F0D7011396FC93EE93129776CFD8
:1013400022968C0F9D1FF90191838083F301EFCFCB
:10135000F0939B02E0939A0269CF4816590608F46D
:101360002C017D01D3019ACFCB010E94E4077C01BF
:10137000009749F0AE01B8010E94C609C8010E9459
:101380008008870153CF10E000E050CFFB01DC0163
:1013900002C001900D9241505040D8F70895FB01D2
:1013A000DC018D91019080190110D9F3990B0895FA
:1013B000FB01DC0101900D920020E1F7089510E09F
:1013C000CDE5D0E004C0FE010E94DE072196CE35B7
:0813D000D107C9F7F894FFCF23
:1013D80000009C028000000000002B024B017801F5
:1013E8007802E9018701DB0100000000DC034B0102
:1013F80098024A010D0A00496E20536574757020E1
:101408002E2E2E0047534D204261736500486F6DA4
:1014180065204175746F6D6174696F6E0041542B5E
:10142800434D47463D310041542B434E4D49203DE5
:1014380020322C322C302C302C30005761697469E2
:101448006E6720666F722000636F6D6D616E640059
:1014580046414E5F4F4E006D6F746F72204F6E00A5
:1014680046414E5F4F4646006D6F746F72204F467F
:10147800460042554C425F4F4E0042554C42204F69
:101488004E0042554C425F4F46460042554C422062
:101498004F46460077726F6E672070617373776F7F
:0414A800726400006A
:00000001FF
