:100000000C9463000C948B000C948B000C946E0683
:100010000C946E060C946E060C948B000C948B0062
:100020000C948B000C948B000C948B000C948B0024
:100030000C948B000C948B000C948B000C948B0014
:100040000C94CC050C948B000C943C060C94160676
:100050000C948B000C948B000C948B000C948B00F4
:100060000C948B000C948B000000000024002700EF
:100070002A0000000008000201000003040700003D
:1000800000000000000000000000230026002900FE
:1000900000000000250028002B00040404040404D0
:1000A0000404020202020202030303030303010227
:1000B00004081020408001020408102001020408F6
:1000C00010202B07580B11241FBECFEFD8E0DEBF46
:1000D000CDBF12E0A0E0B1E0EEE1FAE102C0059090
:1000E0000D92A238B107D9F723E0A2E8B2E001C02F
:1000F0001D92A73AB207E1F710E0C2E6D0E004C0D3
:100100002197FE010E94FC0CC136D107C9F70E945D
:1001100000080C94020D0C94000090E0FC01EE58D5
:10012000FF4F2491FC01E255FF4F3491FC01E6564C
:10013000FF4FE491EE23C9F0222339F0233001F17F
:10014000A8F4213019F1223029F1F0E0EE0FFF1F61
:10015000E057FF4FA591B4918FB7F894EC916111DE
:1001600026C030953E233C938FBF08952730A9F0D9
:100170002830C9F0243049F7809180008F7D03C07A
:10018000809180008F7780938000DFCF84B58F7758
:1001900084BDDBCF84B58F7DFBCF8091B0008F779E
:1001A0008093B000D2CF8091B0008F7DF9CF3E2BED
:1001B000DACFCF93DF9390E0FC01E255FF4F24911B
:1001C00086569F4FFC0184918823D1F090E0880FE0
:1001D000991FFC01E859FF4FA591B491FC01E0572C
:1001E000FF4FC591D49161110EC09FB7F8948C91C7
:1001F000E22FE0958E238C932881E223E8839FBF32
:10020000DF91CF9108958FB7F894EC91E22BEC93A6
:100210008FBFF6CF3FB7F8948091CF029091D00274
:10022000A091D102B091D20226B5A89B05C02F3F64
:1002300019F00196A11DB11D3FBFBA2FA92F982F0C
:100240008827BC01CD01620F711D811D911D42E007
:10025000660F771F881F991F4A95D1F708958F92CF
:100260009F92AF92BF92CF92DF92EF92FF924B019B
:100270005C010E940A016B017C010E940A016C1959
:100280007D098E099F09683E734081059105A8F399
:1002900021E0821A9108A108B10888EEC80E83E017
:1002A000D81EE11CF11C81149104A104B10429F7AA
:1002B000FF90EF90DF90CF90BF90AF909F908F9086
:1002C0000895AF92BF92CF92DF92EF92FF920F9379
:1002D0001F93CF93DF936C017B018B01040F151FDC
:1002E000EB015E01AE18BF08C017D10759F0699144
:1002F000D601ED91FC910190F081E02DC6010995A8
:10030000892B79F7C501DF91CF911F910F91FF9054
:10031000EF90DF90CF90BF90AF900895FC01538D88
:10032000448D252F30E0842F90E0821B930B5417CF
:1003300010F0CF96089501970895FC01918D828D5C
:10034000981761F0A28DAE0FBF2FB11D5D968C91F5
:10035000928D9F5F9F73928F90E008958FEF9FEF34
:100360000895FC01918D828D981731F0828DE80FF0
:10037000F11D858D90E008958FEF9FEF0895FC01AA
:10038000918D228D892F90E0805C9F4F821B910977
:100390008F739927089583ED92E00E94BF0121E0B9
:1003A000892B09F420E0822F089580E090E0892BCA
:1003B00029F00E94CB0181110C9400000895FC01EA
:1003C000A48DA80FB92FB11DA35ABF4F2C91848DB6
:1003D00090E001968F739927848FA689B7892C9313
:1003E000A089B1898C91837080648C93938D848D66
:1003F000981306C00288F389E02D80818F7D808369
:100400000895EF92FF920F931F93CF93DF93EC0128
:1004100081E0888F9B8D8C8D98131AC0E889F989AB
:10042000808185FF15C09FB7F894EE89FF896083AE
:10043000E889F98980818370806480839FBF81E02F
:1004400090E0DF91CF911F910F91FF90EF90089571
:10045000F62E0B8D10E00F5F1F4F0F731127E02E4C
:100460008C8D8E110CC00FB607FCFACFE889F98984
:10047000808185FFF5CFCE010E94DF01F1CFEB8DAA
:10048000EC0FFD2FF11DE35AFF4FF0829FB7F89458
:100490000B8FEA89FB8980818062CFCFCF93DF9376
:1004A000EC01888D8823B9F0AA89BB89E889F9898C
:1004B0008C9185FD03C0808186FD0DC00FB607FCC1
:1004C000F7CF8C9185FFF2CF808185FFEDCFCE01F4
:1004D0000E94DF01E9CFDF91CF9108952091C402FE
:1004E0003091C5022817390771F49091C2028091AA
:1004F000C302981741F0E091C202F0E0EE57FD4FC1
:10050000808190E008958FEF9FEF08950895EF9216
:10051000FF920F931F93CF93DF93DC015C96ED90D6
:10052000FC905D97E114F10479F481E090E013967A
:100530009C938E93129790E080E0DF91CF911F9172
:100540000F91FF90EF9008955196ED91FC91529785
:1005500050968C915097982F90950FB75E962C914E
:100560005E97122F127021FD6095F894208111235F
:1005700019F1282B2083E7012197F1F728E0462F76
:1005800050E0308160FF1AC0382B3083E70121979B
:10059000F1F7BA0175956795215089F7112381F01C
:1005A0008081892380830FBF5C968D919C910197F8
:1005B000F1F781E090E0C1CF2923DCCF3923E5CFEB
:1005C0009081892BEFCF2091C4023091C50228176A
:1005D000390761F48091C3022091C20290E0805CEF
:1005E0009F4F821B91098F739927089590E080E0B7
:1005F00008952091C4023091C50228173907B9F433
:100600009091C2028091C302981789F0E091C202D2
:10061000F0E0EE57FD4F80812091C20230E02F5F65
:100620003F4F2F7333272093C20290E008958FEF3E
:100630009FEF0895089590E080E00895CF93DF93B1
:10064000EC0160E08E810E948D0061E08E810E944D
:100650008D0060E08E810E948D008BE891E0019713
:10066000F1F7DF91CF910895CF92DF92EF92FF9251
:100670000F931F93CF93DF936C017C0187E0E80E0B
:10068000F11CD0E0C0E0062F10E0B8010C2E02C033
:10069000759567950A94E2F76170F70181917F0182
:1006A0000E948D002196C430D10579F7C601DF91F3
:1006B000CF911F910F91FF90EF90DF90CF900C940E
:1006C0001E03CF92DF92EF92FF920F931F93CF936F
:1006D000DF93EC01F62E642F8C810E948D008D81BA
:1006E0008F3F19F060E00E948D000F2D10E08F8584
:1006F00084FF25C06E0187E0C80ED11CF12CE12CCF
:10070000B8010E2C02C0759567950A94E2F76170E6
:10071000F60181916F010E948D00FFEFEF1AFF0A31
:1007200088E0E816F10461F7CE01DF91CF911F91C7
:100730000F91FF90EF90DF90CF900C941E03B801C3
:1007400084E0759567958A95E1F7CE010E943403A0
:100750006F2DCE01DF91CF911F910F91FF90EF9000
:10076000DF90CF900C94340340E0682F80E793E053
:100770000C94610381E00E94B4038BE39FE1019735
:10078000F1F70895CF93DF93613029F090917F03C3
:10079000986090937F03609383031092840390E4A6
:1007A0009093850380938603805C8093870361E048
:1007B000809174030E94D900809175038F3F19F0D6
:1007C00061E00E94D90061E0809176030E94D90027
:1007D000C0E7D3E09E012057334080917F0384FD22
:1007E0000BC084E090E021962817390744F461E0BB
:1007F0008E810E94D900EECF88E090E0F4CF8BE3A9
:100800009DE00197F1F760E0809174030E948D00F4
:1008100060E0809176030E948D00809175038F3F88
:1008200019F060E00E948D0080917F0384FD34C048
:1008300063E080E793E00E943403CBE4D6E4CE018A
:100840000197F1F763E080E793E00E94340321977A
:10085000F1F763E080E793E00E94340383E592E0E0
:100860000197F1F762E080E793E00E943403809102
:100870007F0380620E94B40384E0809380038CE055
:100880000E94B4030E94BA0382E08093810386E051
:10089000DF91CF910C94B40380620E94B4038BE487
:1008A00096E40197F1F780917F0380620E94B40380
:1008B00083E592E00197F1F780917F0380620E94C7
:1008C000B403D5CF90918303891710F08FEF890F70
:1008D000E82FF0E0E059FC4F848980680C94B40361
:1008E00041E00E94610381E090E00895FB010190E6
:1008F0000020E9F73197AF01461B570BDC01ED9162
:10090000FC910280F381E02D09948F929F92AF9227
:10091000BF92CF92DF92EF92FF92CF93DF93CDB74A
:10092000DEB7A1970FB6F894DEBF0FBECDBF6C0146
:10093000990FEE08FF08F7FE40C041E06DE280E746
:1009400093E00E94610322273327A9012C193D0956
:100950004E095F0919A2CE0181967C019AE0892E89
:10096000912CA12CB12CCA01B901A50194010E94BE
:10097000930B605DF70162937F01211531054105FD
:10098000510589F790E080E0309729F0BF0180E7BA
:1009900093E00E9476040196A1960FB6F894DEBF0C
:1009A0000FBECDBFDF91CF91FF90EF90DF90CF9042
:1009B000BF90AF909F908F900895A701960119A2C4
:1009C000CE0181967C018AE0882E912CA12CB12C3D
:1009D000CA01B901A50194010E94930B605DF70162
:1009E00062937F01211531054105510589F790E09A
:1009F00080E0309789F2BF0180E793E00E9476049F
:100A0000CBCF60E371E00C9476040F931F93CF93E8
:100A1000DF93EC01E881F9810190F081E02D6AE13A
:100A200009958C01CE010E940105800F911FDF9175
:100A3000CF911F910F9108950F931F93CF93DF9341
:100A4000EC010E9476048C01CE010E940105800F0A
:100A5000911FDF91CF911F910F9108950C9476040F
:100A600063E371E088E893E00E942E0568EC70E093
:100A700080E090E00E942F016EE371E088E893E04F
:100A80000E941C056AE571E088E893E00E941C055D
:100A90006AE571E083ED92E00E941C0588E893E02E
:100AA0000E94050583ED92E00E94050588E893E029
:100AB0000C94010563E371E088E893E00E942E0541
:100AC0006AE671E088E893E00E941C0566E871E040
:100AD00088E893E00E941C0566E871E083ED92E0EF
:100AE0000E941C0588E893E00E94050583ED92E0D2
:100AF0000E94050588E893E00C94010563E371E02A
:100B000088E893E00E942E056EE371E088E893E0A8
:100B10000E941C056AE971E088E893E00E941C05C8
:100B20006AE971E083ED92E00E941C0588E893E099
:100B30000E94050583ED92E00E94050588E893E098
:100B40000C94010563E371E088E893E00E942E05B0
:100B500068EC70E080E090E00E942F016AE671E0AE
:100B600088E893E00E941C056BEA71E088E893E056
:100B70000E941C056BEA71E083ED92E00E941C0567
:100B800088E893E00E94050583ED92E00E94050548
:100B900088E893E00C9401051F920F920FB60F9214
:100BA00011242F933F938F939F93AF93BF93809183
:100BB000CB029091CC02A091CD02B091CE023091A7
:100BC000CA0223E0230F2D3758F50196A11DB11D50
:100BD0002093CA028093CB029093CC02A093CD02C3
:100BE000B093CE028091CF029091D002A091D10219
:100BF000B091D2020196A11DB11D8093CF029093B6
:100C0000D002A093D102B093D202BF91AF919F9135
:100C10008F913F912F910F900FBE0F901F901895BD
:100C200026E8230F0296A11DB11DD2CF1F920F926D
:100C30000FB60F9211242F933F934F935F936F93AF
:100C40007F938F939F93AF93BF93EF93FF9383ED26
:100C500092E00E94DF01FF91EF91BF91AF919F91D0
:100C60008F917F916F915F914F913F912F910F9055
:100C70000FBE0F901F9018951F920F920FB60F92F4
:100C800011242F938F939F93EF93FF93E091E302AF
:100C9000F091E4028081E091E902F091EA0282FDA4
:100CA0001BC090818091EC028F5F8F732091ED02C9
:100CB000821741F0E091EC02F0E0ED52FD4F958F8C
:100CC0008093EC02FF91EF919F918F912F910F9064
:100CD0000FBE0F901F9018958081F4CF1F920F9236
:100CE0000FB60F9211242F933F934F935F936F93FF
:100CF0007F938F939F93AF93BF93EF93FF93E09175
:100D0000C402F091C502309749F0A685B785858564
:100D1000968D91FF14C09C918923A1F4FF91EF91CE
:100D2000BF91AF919F918F917F916F915F914F9103
:100D30003F912F910F900FBE0F901F9018959C918F
:100D4000892361F7A389B4899C918589809589233A
:100D50008C93868997890197F1F7608D718DA685AF
:100D6000B785558538E020E0CB010197F1F7822F58
:100D700090E095958795282F4C91452309F02068A0
:100D8000315091F7868D81FD20958091C30290E0CE
:100D900001968F7399273091C202381799F0A0916C
:100DA000C302B0E0AE57BD4F2C938093C302828D37
:100DB000938D0197F1F7A389B4898C919589892B3B
:100DC0008C93ACCF868D8160868FF1CFCF92DF92EE
:100DD000EF92FF920F931F93E82FF92F05C0015058
:100DE00011092109310961F1908196239417B9F312
:100DF00005C0015011092109310911F19081962393
:100E00009413F7CFC12CD12CE12CF12C0AC08FEF19
:100E1000C81AD80AE80AF80A0C151D052E053F0560
:100E200079F080818623841791F36C2D7D2D8E2D92
:100E30009F2D1F910F91FF90EF90DF90CF9008951D
:100E400060E070E080E090E01F910F91FF90EF90E4
:100E5000DF90CF9008951092D6021092D50288EEBE
:100E600093E0A0E0B0E08093D7029093D802A093E3
:100E7000D902B093DA0224E031E03093D402209317
:100E8000D30225EC30E03093E0022093DF0224EC23
:100E900030E03093E2022093E10220EC30E0309326
:100EA000E4022093E30221EC30E03093E602209349
:100EB000E50222EC30E03093E8022093E70226ECD2
:100EC00030E03093EA022093E9021092EC02109293
:100ED000ED021092EE021092EF0210928B0310922C
:100EE0008A0380938C0390938D03A0938E03B09319
:100EF0008F0382E291E0909389038093880310929C
:100F00009F0310929E031092A1031092A0031092CF
:100F1000A3031092A2031092A5031092A403609160
:100F2000A6036E7F6D7F6093A6036695617081E076
:100F300068270E948D0061E081E00E94D900EFEAFD
:100F4000F0E0E491E0939803EBE9F0E0E491F0E065
:100F5000EE0FFF1FE057FF4F8591949190939A03F6
:100F60008093990360E080E00E94D9008091A603FD
:100F700081FD04C061E080E00E948D001092940326
:100F8000EEEAF0E0E491E0939503EAE9F0E0E49121
:100F9000F0E0EE0FFF1FEA57FF4F85919491909379
:100FA000970380939603109273031092720386E165
:100FB00091E090937103809370038CE080937403AD
:100FC0008FEF809375038BE08093760388E08093A6
:100FD000770387E08093780386E08093790385E048
:100FE00080937A0310927B0310927C0310927D030E
:100FF00010927E0310927F0361E080E10C94C203A3
:10100000789484B5826084BD84B5816084BD85B5E3
:10101000826085BD85B5816085BD80916E008160EF
:1010200080936E0010928100809181008260809395
:101030008100809181008160809381008091800097
:101040008160809380008091B10084608093B100C2
:101050008091B00081608093B00080917A008460BC
:1010600080937A0080917A00826080937A008091E8
:101070007A00816080937A0080917A008068809302
:101080007A001092C10064E084E10E94C2031092D1
:10109000A3031092A2031092A1031092A003109236
:1010A0009F0310929E038DE991E09093A503809396
:1010B000A40390919403963108F047C02DEB30E0E3
:1010C00030939F0320939E032BE931E03093A103DB
:1010D0002093A0032CE231E03093A3032093A203DA
:1010E0002091680084E0983048F031E09E3008F4A8
:1010F00030E081E001C0880F3A95EAF7822B8093B7
:1011000068002DE630E0983050F02BE630E09E305D
:1011100030F02CE630E0963110F030E020E03093F3
:101120009C0320939B03292F30E0983008F092C154
:1011300081E001C0880F9A95EAF780939D03809122
:10114000A4039091A5030197F1F78091A2039091D8
:10115000A303892B49F1E091C402F091C50283E019
:10116000E838F80709F1309739F0A389B4899C91E0
:101170008589809589238C938091A6038E7F8093A7
:10118000A6031092C3021092C20288E893E09093E3
:10119000C5028093C402E0919B03F0919C0380817F
:1011A00090919D03892B8083E091E302F091E4020A
:1011B00082E08083E091DF02F091E0021082E09112
:1011C000E102F091E2028FEC80831092EB02E09159
:1011D000E702F091E80286E08083E091E502F09179
:1011E000E602808180618083E091E502F091E60271
:1011F000808188608083E091E502F091E602808141
:1012000080688083E091E502F091E60280818F7D25
:10121000808360E089E00E94D90060E08EE00E9457
:10122000D90061E08AE00E94D90060E08AE00E9473
:101230008D0061E08DE00E94D90061E084E00E94B1
:10124000D90060E08DE00E948D0060E084E00E94A3
:101250008D0081E00E94620460EC71E080E793E021
:101260000E942E0582E00E94620465ED71E080E735
:1012700093E00E942E0583E00E94620467EE71E015
:1012800080E793E00E942E0564EF71E080E090E03B
:101290000E942F010E94BA03C3E0D0E093E2E92E3E
:1012A000F12C27EB822E20E0922E33EAC32E30E081
:1012B000D32E44244A9443E0542E612C712C50E4E4
:1012C000352E60E0A62E60E0B62E60E08AE00E9437
:1012D0008D00CE010197F1F761E08AE00E948D0058
:1012E000C7010197F1F760E08AE00E948D00F401E8
:1012F0006491F6018491E82FF0E0EE0FFF1FEA57AA
:10130000FF4F8591949100E412E42FE030E0462FE6
:101310000E94E606611571058105910529F06F5F50
:101320007F4F8F4F9F4F9F700E94FC0B26E933E445
:101330004BE85CE30E94600C0E94C40BDB0124E6D6
:1013400030E00E94F50CA30192010E94740B3093CF
:10135000C9022093C80230927C0080917A00806498
:1013600080937A0080917A0086FDFCCFA09178006E
:10137000B091790024E630E00E94F50CA3019201BF
:101380000E94740BC9013093C7022093C6022091BA
:10139000C8023091C902223431050CF468C0853589
:1013A00091050CF0D4C00E94BA0380E00E94620450
:1013B0006CEF71E080E793E00E942E058091C802F7
:1013C0009091C9020E9485046AE072E080E793E090
:1013D0000E942E0581E00E9462046CE072E080E7CA
:1013E00093E00E942E058091C6029091C7020E9450
:1013F00085046AE072E080E793E00E942E0582E0B7
:101400000E9462046CE172E080E793E00E942E0586
:1014100061E472E080E793E00E942E0583E00E9481
:1014200062046BE272E080E793E00E942E056AE3BB
:1014300072E080E793E00E942E0560E084E00E9465
:101440008D0061E08DE00E948D000E947E050E946B
:101450005A056BC09E3040F42850310981E001C02C
:10146000880F2A95EAF769CE2E503109F7CF21343B
:10147000310509F460C0863591050CF4C0C00E94A6
:10148000BA0380E00E9462046CEF71E080E793E0B1
:101490000E942E058091C8029091C9020E94850485
:1014A0006AE072E080E793E00E942E0581E00E94EE
:1014B00062046CE072E080E793E00E942E05809168
:1014C000C6029091C7020E9485046AE072E080E73C
:1014D00093E00E942E0582E00E9462046CE172E0BB
:1014E00080E793E00E942E056AE372E080E793E0D4
:1014F0000E942E0583E00E9462046BE272E080E7A6
:1015000093E00E942E0560E472E080E793E00E9481
:101510002E0561E084E00E948D0060E08DE00E9475
:101520008D000E9430050E94A20564EF71E080E00A
:1015300090E00E942F01A114B10409F4C6CE0E94CC
:10154000CB01882309F4C1CE0E940000BECE8535B0
:10155000910589F30E94BA0380E00E9462046CEF57
:1015600071E080E793E00E942E058091C80290917F
:10157000C9020E9485046AE072E080E793E00E945D
:101580002E0581E00E9462046CE072E080E793E047
:101590000E942E058091C6029091C7020E94850488
:1015A0006AE072E080E793E00E942E0582E00E94EC
:1015B000620466E472E080E793E00E942E056AE32D
:1015C00072E080E793E00E942E0583E00E946204AF
:1015D00064E572E080E793E00E942E056AE372E022
:1015E00080E793E00E942E0560E084E00E948D0079
:1015F00060E08DE00E948D000E947E0594CF8535CD
:10160000910509F498CF0E94BA0380E00E94620419
:101610006CEF71E080E793E00E942E058091C80294
:101620009091C9020E9485046AE072E080E793E02D
:101630000E942E0581E00E9462046CE072E080E767
:1016400093E00E942E058091C6029091C7020E94ED
:1016500085046AE072E080E793E00E942E0582E054
:101660000E94620462E672E080E793E00E942E0529
:1016700061E472E080E793E00E942E0583E00E941F
:10168000620462E772E080E793E00E942E0561E465
:1016900072E080E793E00E942E0561E084E00E9402
:1016A0008D0061E08DE00E948D000E943005CFCE5C
:1016B00082E291E090938903809388038091C40231
:1016C0009091C5028858934071F4E0919B03F0918A
:1016D0009C03908180919D03809589238083109243
:1016E000C5021092C4020895052E97FB1EF40094C3
:1016F0000E948B0B57FD07D00E94930B07FC03D071
:101700004EF40C948B0B50954095309521953F4F9E
:101710004F4F5F4F089590958095709561957F4FDD
:101720008F4F9F4F0895A1E21A2EAA1BBB1BFD01EC
:101730000DC0AA1FBB1FEE1FFF1FA217B307E407B0
:10174000F50720F0A21BB30BE40BF50B661F771F08
:10175000881F991F1A9469F76095709580959095E8
:101760009B01AC01BD01CF010895A29FB001B39FC1
:10177000C001A39F700D811D1124911DB29F700D9A
:10178000811D1124911D08950E94CB0B6894B11105
:101790000C945A0C08950E943F0C88F09F5798F0C3
:1017A000B92F9927B751B0F0E1F0660F771F881F66
:1017B000991F1AF0BA95C9F714C0B13091F00E9480
:1017C000590CB1E008950C94590C672F782F882795
:1017D000B85F39F0B93FCCF3869577956795B395A7
:1017E000D9F73EF490958095709561957F4F8F4F16
:1017F0009F4F0895E89409C097FB3EF4909580951B
:10180000709561957F4F8F4F9F4F9923A9F0F92FC6
:1018100096E9BB279395F695879577956795B79544
:10182000F111F8CFFAF4BB0F11F460FF1BC06F5F2A
:101830007F4F8F4F9F4F16C0882311F096E911C03C
:10184000772321F09EE8872F762F05C0662371F05D
:1018500096E8862F70E060E02AF09A95660F771F71
:10186000881FDAF7880F9695879597F9089557FDA1
:101870009058440F551F59F05F3F71F04795880FFE
:1018800097FB991F61F09F3F79F087950895121695
:1018900013061406551FF2CF4695F1DF08C0161641
:1018A00017061806991FF1CF8695710561050894F2
:1018B0000895E894BB2766277727CB0197F9089509
:1018C0000E94730C0C94E40C0E94D60C38F00E9419
:1018D000DD0C20F0952311F00C94CD0C0C94D30C5E
:1018E00011240C945A0C0E94370C70F3959FC1F38D
:1018F000950F50E0551F629FF001729FBB27F00DBE
:10190000B11D639FAA27F00DB11DAA1F649F662712
:10191000B00DA11D661F829F2227B00DA11D621F61
:10192000739FB00DA11D621F839FA00D611D221F1B
:10193000749F3327A00D611D231F849F600D211DFF
:10194000822F762F6A2F11249F5750409AF0F1F082
:1019500088234AF0EE0FFF1FBB1F661F771F881FEB
:1019600091505040A9F79E3F510580F00C94CD0C4A
:101970000C945A0C5F3FE4F3983ED4F38695779528
:101980006795B795F795E7959F5FC1F7FE2B880F91
:10199000911D9695879597F9089597F99F6780E827
:1019A00070E060E008959FEF80EC089500240A94B1
:1019B0001616170618060906089500240A9412162A
:1019C0001306140605060895092E0394000C11F45D
:1019D000882352F0BB0F40F4BF2B11F460FF04C00A
:1019E0006F5F7F4F8F4F9F4F08950E94B50BB7FFDA
:1019F0000895821B930B0895EE0FFF1F0590F4913D
:101A0000E02D099410E0C2E6D0E004C0FE010E947F
:0E1A1000FC0C2196C336D107C9F7F894FFCF1E
:101A1E0000000000010261018E014E02BF019D0116
:101A2E00B10100000000700461011B031A030000E5
:101A3E000000870261011B038602E302F9026E02B7
:101A4E000D0A0041542B434D47463D310D00415484
:101A5E00202B20434D4753203D20222B39317878BF
:101A6E007878787878787878220054414E4B2050E8
:101A7E00554D50204953204F4E004154202B2043AA
:101A8E004D4753203D20222B3931373438333637EA
:101A9E003339353422005741544552494E47205070
:101AAE00554D50204953204F4E0054414E4B20501F
:101ABE00554D50204953204F4646005741544552EC
:101ACE00494E472050554D50204953204F46460011
:101ADE004155544F4D415449432049525249474173
:101AEE0054494F4E005553494E472047534D2C53A2
:101AFE004F4E41522026004D4F49535455524520CA
:101B0E0053454E534F522E2E2E2E2E0054414E4BD9
:101B1E00204C4556454C3D20200025004D4F495345
:101B2E005420434F4E54454E543D2000572D505592
:101B3E004D50205354415455532000542D50554D63
:101B4E005020535441545553200020204F464600F8
:101B5E002020204F4E00572D50554D5020535441AC
:101B6E0054555300542D50554D50205354415455F7
:101B7E005300572D50554D5020535441545553201A
:101B8E002000542D50554D50205354415455532040
:021B9E00200025
:00000001FF
