:100000000C9462000C948A000C948A000C948A0070
:100010000C948A000C948A000C948A000C948A0038
:100020000C948A000C948A000C948A000C948A0028
:100030000C948A000C948A000C948A000C948A0018
:100040000C94DB020C948A000C948A000C948A00B5
:100050000C948A000C948A000C948A000C948A00F8
:100060000C948A000C948A000000000024002700F1
:100070002A0000000000250028002B0000000000DE
:1000800023002600290004040404040404040202DA
:100090000202020203030303030301020408102007
:1000A0004080010204081020010204081020000012
:1000B0000008000201000003040700000000000027
:1000C0000000960411241FBECFEFD8E0DEBFCDBFE5
:1000D00011E0A0E0B1E0E8E7F9E002C005900D9280
:1000E000AC3DB107D9F722E0ACEDB1E001C01D9203
:1000F000A330B207E1F710E0C2E6D0E004C02197D8
:10010000FE010E94B404C136D107C9F70E9425033D
:100110000C94BA040C940000833081F028F48130F0
:1001200099F08230A9F008958730A9F08830C9F09D
:100130008430B1F4809180008F7D03C08091800075
:100140008F7780938000089584B58F7784BD08955C
:1001500084B58F7DFBCF8091B0008F778093B00006
:1001600008958091B0008F7DF9CFCF93DF93282F32
:1001700030E0F901E255FF4F8491F901E656FF4F57
:10018000D491F901EA57FF4FC491CC23A1F081111A
:100190000E948C00EC2FF0E0EE0FFF1FE458FF4FA1
:1001A000A591B491EC91ED2381E090E009F480E019
:1001B000DF91CF91089580E090E0FACF1F93CF9325
:1001C000DF93282F30E0F901E255FF4F8491F901C8
:1001D000E656FF4FD491F901EA57FF4FC491CC2363
:1001E000A9F0162F81110E948C00EC2FF0E0EE0F89
:1001F000FF1FEE58FF4FA591B4918FB7F894EC9183
:10020000111108C0D095DE23DC938FBFDF91CF9111
:100210001F910895DE2BF8CFCF93DF9390E0FC0180
:10022000E656FF4F24918A579F4FFC018491882303
:10023000D1F090E0880F991FFC01E859FF4FA5917C
:10024000B491FC01EE58FF4FC591D49161110EC0DD
:100250009FB7F8948C91E22FE0958E238C932881A0
:10026000E223E8839FBFDF91CF9108958FB7F89481
:10027000EC91E22BEC938FBFF6CFAF92BF92CF926F
:10028000DF92EF92FF920F931F93CF93DF936C0156
:100290007B018B01040F151FEB015E01AE18BF0837
:1002A000C017D10759F06991D601ED91FC910190E9
:1002B000F081E02DC6010995892B79F7C501DF9101
:1002C000CF911F910F91FF90EF90DF90CF90BF9053
:1002D000AF900895089590E080E00895FC010190AA
:1002E0000020E9F73197AF01481B590BBC018BEE99
:1002F00091E00C943D01CF93DF93EC0160E08E819F
:100300000E94DE0061E08E810E94DE0060E08E814E
:100310000E94DE008BE891E00197F1F7DF91CF9129
:100320000895CF92DF92EF92FF920F931F93CF9396
:10033000DF936C017C0187E0E80EF11CD0E0C0E0A7
:10034000062F10E0B8010C2E02C0759567950A942F
:10035000E2F76170F70181917F010E94DE00219632
:10036000C430D10579F7C601DF91CF911F910F916C
:10037000FF90EF90DF90CF900C947B01CF92DF92B3
:10038000EF92FF920F931F93CF93DF93EC01F62E22
:10039000642F8C810E94DE008D818F3F19F060E018
:1003A0000E94DE000F2D10E08F8584FF25C06E01B6
:1003B00087E0C80ED11CF12CE12CB8010E2C02C034
:1003C000759567950A94E2F76170F60181916F0166
:1003D0000E94DE00FFEFEF1AFF0A88E0E816F10442
:1003E00061F7CE01DF91CF911F910F91FF90EF90B8
:1003F000DF90CF900C947B01B80184E075956795F0
:100400008A95E1F7CE010E9491016F2DCE01DF9117
:10041000CF911F910F91FF90EF90DF90CF900C94B0
:10042000910140E0682F8BEE91E00C94BE01CF93D8
:10043000DF93823029F49091FA0198609093FA0149
:100440008093FE011092FF0180E48093000280E11E
:100450008093010280E58093020261E08091EF01C8
:100460000E940C018091F0018F3F19F061E00E9421
:100470000C0161E08091F1010E940C01CBEED1E012
:100480009E012B5E31408091FA0184FD0BC084E017
:1004900090E021962817390744F461E08E810E948C
:1004A0000C01EECF88E090E0F4CF8BE39DE0019764
:1004B000F1F760E08091EF010E94DE0060E0809142
:1004C000F1010E94DE008091F0018F3F19F060E0A1
:1004D0000E94DE008091FA0184FD39C063E08BEE5A
:1004E00091E00E949101CBE4D6E4CE010197F1F7AF
:1004F00063E08BEE91E00E9491012197F1F763E0B8
:100500008BEE91E00E94910183E592E00197F1F773
:1005100062E08BEE91E00E9491018091FA0180628D
:100520000E94110284E08093FB018CE00E94110282
:1005300081E00E9411028BE39FE10197F1F782E0D5
:100540008093FC0186E0DF91CF910C9411028062D0
:100550000E9411028BE496E40197F1F78091FA0171
:1005600080620E94110283E592E00197F1F7809189
:10057000FA0180620E941102D0CF9091FE016917AA
:1005800010F06FEF690FE62FF0E0E551FE4F948910
:10059000890F80680C94110241E00E94BE0181E045
:1005A00090E0089541E0682F8BEE91E00E94BE013B
:1005B00081E090E008951F920F920FB60F921124E0
:1005C0002F933F938F939F93AF93BF938091E701B6
:1005D0009091E801A091E901B091EA013091E60122
:1005E00023E0230F2D3758F50196A11DB11D20934F
:1005F000E6018093E7019093E801A093E901B093AD
:10060000EA018091E2019091E301A091E401B091AF
:10061000E5010196A11DB11D8093E2019093E301D4
:10062000A093E401B093E501BF91AF919F918F91A9
:100630003F912F910F900FBE0F901F90189526E8B5
:10064000230F0296A11DB11DD2CF789484B582608C
:1006500084BD84B5816084BD85B5826085BD85B566
:10066000816085BD80916E00816080936E001092E4
:10067000810080918100826080938100809181005F
:1006800081608093810080918000816080938000F0
:100690008091B10084608093B1008091B00081604E
:1006A0008093B00080917A00846080937A0080917A
:1006B0007A00826080937A0080917A0081608093D2
:1006C0007A0080917A00806880937A001092C1004D
:1006D00082E00E9417028CE091E00E946E0160E0CF
:1006E0008EE00E940C0160E08FE00E940C0160E04F
:1006F00080E10E940C0160E081E10E940C0161E058
:100700008DE00E940C018BE3C82E8FE1D82E90E083
:10071000E92E90E0F92E8EE00E94B5005C019093E6
:10072000E1018093E0018FE00E94B5008C0190937D
:10073000DF018093DE0180E10E94B500EC0190931F
:10074000DD018093DC0181E10E94B50021E0A21669
:10075000B104C1F50130110509F0CDC0219709F0B0
:10076000CAC0019709F0C7C060E080E00E94BD02E6
:100770008BED0E94D2028BED0E94D2028BED0E9483
:10078000D2028BED0E94D20280E20E94D20260E08F
:1007900085E00E94BD0281E291E00E946E0161E06D
:1007A00080E00E94BD0283E391E00E946E0160E060
:1007B0008DE00E94DE00E114F10409F4ACCF0E9448
:1007C0000000A9CFAB2809F096C00130110501F552
:1007D000219709F090C0019709F08DC060E080E09A
:1007E0000E94BD028BED0E94D2028BED0E94D202CC
:1007F0008BED0E94D2028FE50E94D20280E20E941D
:10080000D20260E085E00E94BD0280E591E0C5CFA4
:10081000012B09F070C0C130D10551F5019709F0E5
:100820006AC060E080E00E94BD028BED0E94D202AF
:100830008BED0E94D20280E691E00E946E0180E67C
:1008400091E00E946E0180E20E94D20260E085E0A9
:100850000E94BD0282E691E00E946E0161E080E0AC
:100860000E94BD0287E791E00E946E0161E0A0CF87
:10087000CD2B09F040C081309105E9F460E080E0C3
:100880000E94BD028BED0E94D20280E691E00E94A0
:100890006E0180E691E00E946E0180E691E00E9488
:1008A0006E0180E20E94D20260E085E00E94BD02FB
:1008B00083E991E0D1CF892BF1F460E080E00E94E0
:1008C000BD0280E691E00E946E0180E691E00E9408
:1008D0006E0180E691E00E946E0180E691E00E9448
:1008E0006E0180E20E94D20260E085E00E94BD02BB
:1008F00084EA91E0B1CF60E08DE00E94DE0081E00B
:100900000E941102C6010197F1F760E080E00E94A9
:10091000BD0287EB91E00E946E0161E080E00E94E1
:10092000BD0284EC91E00E946E0145CFEBEEF1E058
:100930001382128284E091E0918380838CE084832F
:100940008FEF85838BE0868385E0878384E08087D3
:1009500083E0818782E08287138614861586168657
:10096000178681E00C941702EE0FFF1F0590F4919B
:08097000E02D0994F894FFCF7B
:1009780000000000CC023D016B016A0154616E6BFE
:10098800205374617475732E2E2E2E2E2E2E2E2E1D
:100998000046554C4C2E2E2E2E2E2E2E2E2E2E2E22
:1009A8002E2E004D4F544F52206973204F4646203B
:1009B800202020202020202020202020202020004F
:1009C80048414C462E2E2E2E2E2E2E2E2E2E2E000A
:1009D8005F00515541525445522E2E2E2E2E2E2E4A
:1009E8002E2E2E2E2E2E004D4F544F52206973203E
:1009F8004F4E202020202020202020202020202092
:100A08002020004C4F572E2E2E2E2E2E2E2E2E2EE0
:100A18002E2E2E00454D5054592E2E2E2E2E2E2E73
:100A28002E2E2E2E2E2E0053656E736F7220466169
:100A3800696C21004E45454420434845434B2D559C
:0C0A4800502E2E2E2E2E2E2E2E2E0000B4
:00000001FF
