:020000040000FA
:100000000C9462000C948A000C948A000C948A0070
:100010000C948A000C948A000C948A000C948A0038
:100020000C948A000C948A000C948A000C948A0028
:100030000C948A000C948A000C948A000C948A0018
:100040000C9411030C948A000C948A000C948A007E
:100050000C948A000C948A000C948A000C948A00F8
:100060000C948A000C948A000000000023002600F3
:10007000290000000000240027002A0000000000E2
:10008000250028002B0004040404040404040202D4
:100090000202020203030303030301020408102007
:1000A0004080010204081020010204081020000012
:1000B0000008000201000003040700000000000027
:1000C0000000070411241FBECFEFD8E0DEBFCDBF74
:1000D00011E0A0E0B1E0EAE5F8E002C005900D9281
:1000E000AE31B107D9F721E0AEE1B1E001C01D9218
:1000F000A334B207E1F710E0C2E6D0E004C02197D4
:10010000FE010E942504C136D107C9F70E945B0396
:100110000C942B040C940000833081F028F481307F
:1001200099F08230A9F008958730A9F08830C9F09D
:100130008430B1F4809180008F7D03C08091800075
:100140008F7780938000089584B58F7784BD08955C
:1001500084B58F7DFBCF8091B0008F778093B00006
:1001600008958091B0008F7DF9CF1F93CF93DF93D7
:10017000282F30E0F901E255FF4F8491F901E6564E
:10018000FF4FD491F901EA57FF4FC491CC23A9F056
:10019000162F81110E948C00EC2FF0E0EE0FFF1F54
:1001A000E458FF4FA591B4918FB7F894EC911111D9
:1001B00008C0D095DE23DC938FBFDF91CF911F91D4
:1001C0000895DE2BF8CFCF93DF9390E0FC01E65645
:1001D000FF4F24918A579F4FFC0184918823D1F0CF
:1001E00090E0880F991FFC01EE58FF4FA591B49144
:1001F000FC01E458FF4FC591D49161110EC09FB727
:10020000F8948C91E22FE0958E238C932881E22341
:10021000E8839FBFDF91CF9108958FB7F894EC9159
:10022000E22BEC938FBFF6CFCF93DF93EC0161E02D
:1002300081E00E94E300209731F460E081E0DF91EB
:10024000CF910C94B500CF3FD10511F461E0F6CF0A
:10025000EFEAF0E0E491E33029F140F4E130B1F06D
:10026000E230D9F0C038D1058CF7E7CFE73021F183
:10027000E83051F1E430B1F78091800080628093E2
:100280008000D0938B00C0938A0004C084B580683E
:1002900084BDC7BDDF91CF91089584B5806284BDD0
:1002A000C8BDF8CF80918000806880938000D09393
:1002B0008900C0938800EECF8091B0008068809361
:1002C000B000C093B300E6CF8091B000806280930D
:1002D000B000C093B400DECFAF92BF92CF92DF9256
:1002E000EF92FF920F931F93CF93DF936C017B01EB
:1002F0008B01040F151FEB015E01AE18BF08C0177C
:10030000D10759F06991D601ED91FC910190F081EE
:10031000E02DC6010995892B79F7C501DF91CF91B1
:100320001F910F91FF90EF90DF90CF90BF90AF9013
:100330000895089590E080E00895CF93DF93EC0155
:1003400060E08E810E94B50061E08E810E94B50060
:1003500060E08E810E94B5008BE891E00197F1F793
:10036000DF91CF910895CF92DF92EF92FF920F939A
:100370001F93CF93DF936C017C0187E0E80EF11CA3
:10038000D0E0C0E0062F10E0B8010C2E02C0759539
:1003900067950A94E2F76170F70181917F010E94ED
:1003A000B5002196C430D10579F7C601DF91CF9110
:1003B0001F910F91FF90EF90DF90CF900C949D01D3
:1003C000CF92DF92EF92FF920F931F93CF93DF9321
:1003D000EC01F62E642F8C810E94B5008D818F3F39
:1003E00019F060E00E94B5000F2D10E08F8584FFAA
:1003F00025C06E0187E0C80ED11CF12CE12CB8019C
:100400000E2C02C0759567950A94E2F76170F601AB
:1004100081916F010E94B500FFEFEF1AFF0A88E09B
:10042000E816F10461F7CE01DF91CF911F910F9192
:10043000FF90EF90DF90CF900C949D01B80184E085
:10044000759567958A95E1F7CE010E94B3016F2DEE
:10045000CE01DF91CF911F910F91FF90EF90DF9030
:10046000CF900C94B30140E0682F8BE291E00C94A4
:10047000E001CF93DF93823029F490913A019860A4
:1004800090933A0180933E0110923F0180E4809363
:10049000400180E18093410180E58093420161E069
:1004A00080912F010E94E300809130018F3F19F06D
:1004B00061E00E94E30061E0809131010E94E3006D
:1004C000CBE2D1E09E012B52314080913A0184FD74
:1004D0000BC084E090E021962817390744F461E0CE
:1004E0008E810E94E300EECF88E090E0F4CF8BE3B2
:1004F0009DE00197F1F760E080912F010E94B50027
:1005000060E0809131010E94B500809130018F3F01
:1005100019F060E00E94B50080913A0184FD39C075
:1005200063E08BE291E00E94B301CBE4D6E4CE011C
:100530000197F1F763E08BE291E00E94B30121970C
:10054000F1F763E08BE291E00E94B30183E592E072
:100550000197F1F762E08BE291E00E94B301809194
:100560003A0180620E94330284E080933B018CE078
:100570000E94330281E00E9433028BE39FE10197E6
:10058000F1F782E080933C0186E0DF91CF910C94FB
:10059000330280620E9433028BE496E40197F1F704
:1005A00080913A0180620E94330283E592E00197D4
:1005B000F1F780913A0180620E943302D0CF41E08E
:1005C0000E94E00181E090E0089581E00E94330202
:1005D0008BE39FE10197F1F7E1E080913E0181110A
:1005E000E0E0E195F0E0E55DFE4F848980680E94DF
:1005F000330247E050E06EE071E08BE291E00E9450
:100600006C0180911E0190911F0143E050E066E172
:1006100071E0892B11F06AE171E08BE291E00C94BA
:100620006C011F920F920FB60F9211242F933F93DC
:100630008F939F93AF93BF9380912701909128014F
:10064000A0912901B0912A013091260123E0230FC6
:100650002D3758F50196A11DB11D209326018093D9
:10066000270190932801A0932901B0932A0180913A
:10067000220190912301A0912401B09125010196BE
:10068000A11DB11D8093220190932301A093240109
:10069000B0932501BF91AF919F918F913F912F9181
:1006A0000F900FBE0F901F90189526E8230F02960B
:1006B000A11DB11DD2CF789484B5826084BD84B56C
:1006C000816084BD85B5826085BD85B5816085BD4D
:1006D00080916E00816080936E0010928100809105
:1006E000810082608093810080918100816080938D
:1006F0008100809180008160809380008091B100B2
:1007000084608093B1008091B00081608093B000DC
:1007100080917A00846080937A0080917A00826070
:1007200080937A0080917A00816080937A00809132
:100730007A00806880937A001092C10082E00E9463
:10074000390260E083E10E94E30080911E019091F4
:100750001F010E9414010E94E502C1ECD0E00DEAE5
:1007600010E099E9E92E90E0F92EAA24AA94B12C80
:1007700030E0C32E30E0D32EFE018491F801949036
:10078000F7018490882009F43FC081110E948C00F9
:10079000E82DF0E0EE0FFF1FE859FF4FA591B4914F
:1007A0008C91982231E020E009F430E0832F922FE1
:1007B000909321018093200120910001309101014B
:1007C0002817390791F0892B81F480911E019091AF
:1007D0001F019501281B390BC90130931F0120937C
:1007E0001E010E9414010E94E50280912001909157
:1007F00021019093010180930001C114D10409F4F7
:10080000BBCF0E940000B8CF90E080E0D1CFEBE2F8
:10081000F1E01382128286E091E0918380838CE084
:1008200084838FEF85838BE0868385E0878384E0F4
:10083000808783E0818782E082871386148615860D
:100840001686178681E00C943902EE0FFF1F059083
:10085000F491E02D0994F894FFCF0100000000000E
:10086000DF026C019A0199014D6F746F723A20009A
:080870004F4646004F4E2000E8
:107E0000112484B714BE81FFF0D085E080938100F7
:107E100082E08093C00088E18093C10086E0809377
:107E2000C20080E18093C4008EE0C9D0259A86E02C
:107E300020E33CEF91E0309385002093840096BBD3
:107E4000B09BFECF1D9AA8958150A9F7CC24DD24C4
:107E500088248394B5E0AB2EA1E19A2EF3E0BF2EE7
:107E6000A2D0813461F49FD0082FAFD0023811F036
:107E7000013811F484E001C083E08DD089C08234E0
:107E800011F484E103C0853419F485E0A6D080C0E4
:107E9000853579F488D0E82EFF2485D0082F10E0AE
:107EA000102F00270E291F29000F111F8ED06801E7
:107EB0006FC0863521F484E090D080E0DECF843638
:107EC00009F040C070D06FD0082F6DD080E0C81688
:107ED00080E7D80618F4F601B7BEE895C0E0D1E017
:107EE00062D089930C17E1F7F0E0CF16F0E7DF06D8
:107EF00018F0F601B7BEE89568D007B600FCFDCFD4
:107F0000A601A0E0B1E02C9130E011968C91119780
:107F100090E0982F8827822B932B1296FA010C0160
:107F200087BEE89511244E5F5F4FF1E0A038BF0790
:107F300051F7F601A7BEE89507B600FCFDCF97BE46
:107F4000E89526C08437B1F42ED02DD0F82E2BD052
:107F50003CD0F601EF2C8F010F5F1F4F84911BD097
:107F6000EA94F801C1F70894C11CD11CFA94CF0C13
:107F7000D11C0EC0853739F428D08EE10CD085E9AC
:107F80000AD08FE07ACF813511F488E018D01DD067
:107F900080E101D065CF982F8091C00085FFFCCF94
:107FA0009093C60008958091C00087FFFCCF809118
:107FB000C00084FD01C0A8958091C6000895E0E648
:107FC000F0E098E1908380830895EDDF803219F02E
:107FD00088E0F5DFFFCF84E1DECF1F93182FE3DFCA
:107FE0001150E9F7F2DF1F91089580E0E8DFEE27F6
:047FF000FF270994CA
:027FFE00040479
:00000001FF
