:100000000C9462000C948A000C948A000C948A0070
:100010000C948A000C948A000C948A000C948A0038
:100020000C948A000C948A000C948A000C948A0028
:100030000C948A000C948A000C948A000C948A0018
:100040000C9431050C948A000C94A1050C947B054A
:100050000C948A000C948A000C948A000C948A00F8
:100060000C948A000C948A000000000024002700F1
:100070002A0000000000250028002B0000000000DE
:1000800023002600290004040404040404040202DA
:100090000202020203030303030301020408102007
:1000A0004080010204081020010204081020000012
:1000B0000008000201000003040700000000000027
:1000C0000000D30511241FBECFEFD8E0DEBFCDBFA7
:1000D00012E0A0E0B1E0EEEDF7E102C005900D9274
:1000E000A030B107D9F723E0A0E0B2E001C01D9233
:1000F000AC33B207E1F710E0C2E6D0E004C02197CC
:10010000FE010E94D80BC136D107C9F70E948B06A9
:100110000C94ED0B0C94000096E0899FD001112403
:10012000A353BD4F90967C936E935F9791E0919609
:100130009C939197E0913A03F0913B03909139039E
:10014000992339F0309751F0811108C08091E9026C
:100150000994309719F05C968C91FACF0895CF925C
:10016000DF92EF92FF920F931F9396E0899FF00129
:100170001124E353FD4F11A2278D30A12130310509
:1001800051F178F02230310509F451C023303105A6
:1001900009F452C01F910F91FF90EF90DF90CF9024
:1001A00008956623B9F361E070E00E948C002FB7D8
:1001B000F8948091140290911502A0911602B091CA
:1001C00017022FBF8093250390932603A093270344
:1001D000B0932803DFCF9FB7F894C0901402D0905B
:1001E0001502E0901602F09017029FBF00912503C0
:1001F000109126032091270330912803C01AD10AB9
:10020000E20AF30A009137031091380330E020E04E
:100210000C151D052E053F0550F462E070E01F919E
:100220000F91FF90EF90DF90CF900C948C006111B4
:10023000B1CF63E070E0F3CF70E060E0F0CFFC019D
:10024000538D448D252F30E0842F90E0821B930B3B
:10025000541710F0CF96089501970895FC01918DE1
:10026000828D981761F0A28DAE0FBF2FB11D5D96E4
:100270008C91928D9F5F9F73928F90E008958FEF86
:100280009FEF0895FC01918D828D981731F0828D3A
:10029000E80FF11D858D90E008958FEF9FEF089591
:1002A000FC01918D228D892F90E0805C9F4F821BF5
:1002B00091098F7399270895FC01A48DA80FB92F78
:1002C000B11DA35ABF4F2C91848D90E001968F737E
:1002D0009927848FA689B7892C93A089B1898C919D
:1002E000837080648C93938D848D981306C00288EC
:1002F000F389E02D80818F7D80830895EF92FF92B6
:100300000F931F93CF93DF93EC0181E0888F9B8D38
:100310008C8D98131AC0E889F989808185FF15C0F2
:100320009FB7F894EE89FF896083E889F989808115
:100330008370806480839FBF81E090E0DF91CF91E4
:100340001F910F91FF90EF900895F62E0B8D10E006
:100350000F5F1F4F0F731127E02E8C8D8E110CC075
:100360000FB607FCFACFE889F989808185FFF5CFC0
:10037000CE010E945C01F1CFEB8DEC0FFD2FF11D42
:10038000E35AFF4FF0829FB7F8940B8FEA89FB89FD
:1003900080818062CFCFCF93DF93EC01888D88235B
:1003A000B9F0AA89BB89E889F9898C9185FD03C0D8
:1003B000808186FD0DC00FB607FCF7CF8C9185FFBD
:1003C000F2CF808185FFEDCFCE010E945C01E9CFA5
:1003D000DF91CF91089588E192E00E94500121E0E1
:1003E000892B09F420E0822F089580E090E0892B8A
:1003F00029F00E94EB0181110C94000008958330D4
:1004000081F028F4813099F08230A9F00895873086
:10041000A9F08830C9F08430B1F4809180008F7DDC
:1004200003C0809180008F7780938000089584B509
:100430008F7784BD089584B58F7DFBCF8091B00008
:100440008F778093B00008958091B0008F7DF9CFB1
:10045000CF93DF93282F30E0F901E255FF4F8491CD
:10046000F901E656FF4FD491F901EA57FF4FC491C5
:10047000CC23A1F081110E94FF01EC2FF0E0EE0FE0
:10048000FF1FE458FF4FA591B491EC91ED2381E05B
:1004900090E009F480E0DF91CF91089580E090E052
:1004A000FACF1F93CF93DF93282F30E0F901E25565
:1004B000FF4F8491F901E656FF4FD491F901EA57B5
:1004C000FF4FC491CC23A9F0162F81110E94FF0188
:1004D000EC2FF0E0EE0FFF1FEE58FF4FA591B49107
:1004E0008FB7F894EC91111108C0D095DE23DC93FE
:1004F0008FBFDF91CF911F910895DE2BF8CFCF935F
:10050000DF9390E0FC01E656FF4F24918A579F4FFE
:10051000FC0184918823C9F090E0880F991FFC01A9
:10052000E859FF4FA591B491FC01EE58FF4FC591DA
:10053000D49161110DC09FB7F8948C9120958223BE
:100540008C938881282328839FBFDF91CF910895C2
:10055000623051F49FB7F8943C91822F80958323A9
:100560008C93E8812E2BEFCF8FB7F894EC912E2B44
:100570002C938FBFEACF3FB7F894809110029091EF
:100580001102A0911202B091130226B5A89B05C0DA
:100590002F3F19F00196A11DB11D3FBFBA2FA92F02
:1005A000982F8827BC01CD01620F711D811D911DFF
:1005B00042E0660F771F881F991F4A95D1F708956B
:1005C0008F929F92AF92BF92CF92DF92EF92FF9263
:1005D0004B015C010E94BB026B017C010E94BB02CB
:1005E0006C197D098E099F09683E7340810591054C
:1005F000A8F321E0821A9108A108B10888EEC80E7C
:1006000083E0D81EE11CF11C81149104A104B10403
:1006100029F7FF90EF90DF90CF90BF90AF909F9021
:100620008F900895862F642F0C947F02862F642F5D
:100630000C945102862F0C942802AF92BF92CF9255
:10064000DF92EF92FF920F931F93CF93DF936C0192
:100650007B018B01040F151FEB015E01AE18BF0873
:10066000C017D10759F06991D601ED91FC91019025
:10067000F081E02DC6010995892B79F7C501DF913D
:10068000CF911F910F91FF90EF90DF90CF90BF908F
:10069000AF900895089590E080E00895CF93DF93A0
:1006A000EC0160E08E810E94510261E08E810E9427
:1006B000510260E08E810E9451028BE891E0019727
:1006C000F1F7DF91CF910895CF92DF92EF92FF92F1
:1006D0000F931F93CF93DF936C017C0187E0E80EAB
:1006E000F11CD0E0C0E0062F10E0B8010C2E02C0D3
:1006F000759567950A94E2F76170F70181917F0122
:100700000E9451022196C430D10579F7C601DF91CC
:10071000CF911F910F91FF90EF90DF90CF900C94AD
:100720004E03CF92DF92EF92FF920F931F93CF93DE
:10073000DF93EC01F62E642F8C810E9451028D8193
:100740008F3F19F060E00E9451020F2D10E08F855D
:1007500084FF25C06E0187E0C80ED11CF12CE12C6E
:10076000B8010E2C02C0759567950A94E2F7617086
:10077000F60181916F010E945102FFEFEF1AFF0A0B
:1007800088E0E816F10461F7CE01DF91CF911F9167
:100790000F91FF90EF90DF90CF900C944E03B80133
:1007A00084E0759567958A95E1F7CE010E94640310
:1007B0006F2DCE01DF91CF911F910F91FF90EF90A0
:1007C000DF90CF900C94640340E0682F85EB92E0BB
:1007D0000C94910381E00E94E4038BE39FE1019775
:1007E000F1F70895CF93DF93823029F49091C402FA
:1007F00098609093C4028093C8021092C90280E46A
:100800008093CA0280E18093CB0280E58093CC0282
:1008100061E08091B9020E947F028091BA028F3F0D
:1008200019F061E00E947F0261E08091BB020E94AA
:100830007F02C5EBD2E09E01255B32408091C4026D
:1008400084FD0BC084E090E021962817390744F41A
:1008500061E08E810E947F02EECF88E090E0F4CFCD
:100860008BE39DE00197F1F760E08091B9020E946F
:10087000510260E08091BB020E9451028091BA0255
:100880008F3F19F060E00E9451028091C40284FD04
:1008900034C063E085EB92E00E946403CBE4D6E4CD
:1008A000CE010197F1F763E085EB92E00E946403CB
:1008B0002197F1F763E085EB92E00E94640383E502
:1008C00092E00197F1F762E085EB92E00E94640309
:1008D0008091C40280620E94E40384E08093C50298
:1008E0008CE00E94E4030E94EA0382E08093C60247
:1008F00086E0DF91CF910C94E40380620E94E403D0
:100900008BE496E40197F1F78091C40280620E9423
:10091000E40383E592E00197F1F78091C4028062DD
:100920000E94E403D5CF41E00E94910381E090E072
:100930000895FB0101900020E9F73197AF01461BB4
:10094000570BDC01ED91FC910280F381E02D0994BD
:10095000CF93DF93BC0188E192E00E949904EC01FF
:1009600060E471E088E192E00E9499048C0F9D1F81
:10097000DF91CF910895CF92DF92EF92FF920F9384
:100980001F93CF93DF93CDB7DEB7A1970FB6F8943F
:10099000DEBF0FBECDBF6B017C01F7FE3EC041E064
:1009A0006DE285EB92E00E94910322273327A90193
:1009B0002C193D094E095F0919A28E010F5D1F4FC9
:1009C0009AE0C92ED12CE12CF12CCA01B901A70162
:1009D00096010E948C0B605DF80162938F012115D6
:1009E00031054105510589F790E080E0309729F005
:1009F000BF0185EB92E00E9499040196A1960FB683
:100A0000F894DEBF0FBECDBFDF91CF911F910F9144
:100A1000FF90EF90DF90CF900895AC019B0119A259
:100A20008E010F5D1F4F8AE0C82ED12CE12CF12CD6
:100A3000CA01B901A70196010E948C0B605DF80103
:100A400062938F01211531054105510589F790E029
:100A500080E0309799F2BF0185EB92E00E94990403
:100A6000CDCF1F920F920FB60F9211242F933F9369
:100A70008F939F93AF93BF9380911402909115022F
:100A8000A0911602B091170230910F0223E0230FBC
:100A90002D3758F50196A11DB11D20930F028093AB
:100AA000140290931502A0931602B093170280913E
:100AB000100290911102A0911202B09113020196BE
:100AC000A11DB11D8093100290931102A0931202F8
:100AD000B0931302BF91AF919F918F913F912F914E
:100AE0000F900FBE0F901F90189526E8230F0296C7
:100AF000A11DB11DD2CF1F920F920FB60F921124DC
:100B00002F933F934F935F936F937F938F939F9315
:100B1000AF93BF93EF93FF9388E192E00E945C0153
:100B2000FF91EF91BF91AF919F918F917F916F91C5
:100B30005F914F913F912F910F900FBE0F901F909B
:100B400018951F920F920FB60F9211242F938F9327
:100B50009F93EF93FF93E0912802F0912902808107
:100B6000E0912E02F0912F0282FD1BC090818091B6
:100B700031028F5F8F7320913202821741F0E09132
:100B80003102F0E0E85EFD4F958F80933102FF91D6
:100B9000EF919F918F912F910F900FBE0F901F900B
:100BA00018958081F4CF10921B0210921A0288EEE1
:100BB00093E0A0E0B0E080931C0290931D02A0930C
:100BC0001E02B0931F028CE191E090931902809372
:100BD000180285EC90E0909325028093240284EC27
:100BE00090E0909327028093260280EC90E090930F
:100BF00029028093280281EC90E090932B0280934D
:100C00002A0282EC90E090932D0280932C0286ECD5
:100C100090E090932F0280932E0210923102109256
:100C2000320210923302109234021092CF021092CC
:100C3000D3021092D2021092D4028AE391E09093F0
:100C4000CE028093CD02E9EEF2E01082148213828C
:100C50001582369683E0E532F807B9F784E091E033
:100C60009093300380932F0380E091E090933203C0
:100C70008093310384E0809333038093340388E0CE
:100C800091E090932E0380932D038AE090E090935F
:100C900036038093350384EF91E09093380380937B
:100CA000370310923B0310923A03109229031092DB
:100CB0002A0310922B0310922C03109239031092E6
:100CC000B8021092B7028EE291E09093B602809340
:100CD000B50288E08093B9028FEF8093BA0289E071
:100CE0008093BB028AE08093BC028BE08093BD02BC
:100CF0008CE08093BE028DE08093BF021092C00210
:100D00001092C1021092C2021092C3021092C40249
:100D100081E00C94F203789484B5826084BD84B53C
:100D2000816084BD85B5826085BD85B5816085BDE6
:100D300080916E00816080936E001092810080919E
:100D40008100826080938100809181008160809326
:100D50008100809180008160809380008091B1004B
:100D600084608093B1008091B00081608093B00076
:100D700080917A00846080937A0080917A0082600A
:100D800080937A0080917A00816080937A008091CC
:100D90007A00806880937A001092C10082E00E94FD
:100DA000F20363E471E085EB92E00E949904E09124
:100DB000C802E23008F059C0E150F0E0EB54FD4FBA
:100DC000848980680E94E40360E571E085EB92E02D
:100DD0000E94990460ED77E080E090E00E94E002DC
:100DE0000E94EA0365E0462E512C612C712C2224CE
:100DF0002A94322C50E0852E50E0952E81E080938D
:100E000039038FB7F8944091140250911502609104
:100E10001602709117028FBF8091290390912A03C7
:100E2000A0912B03B0912C03481B590B6A0B7B0B31
:100E30008091350390913603B0E0A0E084179507C8
:100E4000A607B70708F098C1C0E080913303C81720
:100E500070F4E0912F03F0913003EC0FF11D62E08C
:100E600080810E947F02CF5FF0CFE1E0A6CFB12C5E
:100E700080913403B81608F061C00B2D10E0E091AA
:100E80003103F0913203E00FF11F61E080810E9495
:100E90007F02E0913103F0913203E00FF11F60E037
:100EA00080810E94510281E090E0A0E0B0E00B2C34
:100EB00004C0880F991FAA1FBB1F0A94D2F76C01A8
:100EC0007C01E094F094A12C80913303A816F8F4EF
:100ED000CA2DD0E0E0912F03F0913003EC0FFD1FFD
:100EE00080810E9428022496CC0FDD1FC353DD4F62
:100EF000892B41F4888199818C299D299983888344
:100F0000A394E2CF888199818E219F21F7CFE09130
:100F10003103F0913203E00FF11F61E080810E9404
:100F200051028091310390913203080F191F60E044
:100F3000D8018C910E947F02B3949ACF2DECC22EDF
:100F400022E0D22EE6018F8D98A1892B21F41C8EF0
:100F50003E8E2D8E19A22696E9E0F3E0EC17FD07F0
:100F600091F710E096E0B92E80913303181708F03E
:100F700052C000E0E12EF12CEE0CFF1C97012B5229
:100F80003D4F790120913403021708F042C0D70188
:100F90006D917C91002E02C0769567950A94E2F7D8
:100FA000129F90011124200F311DEDECF2E080E042
:100FB000458D568D2417350709F49CC38F5F3696EF
:100FC0008A30B1F760FF23C0EDECF2E090E080E002
:100FD000448D411117C0E0912D03F0912E03E20FD3
:100FE000F31F6081B89EF001B99EF00D1124E35308
:100FF000FD4F648F368F258F10A2178E61E00E94FF
:10100000AF0005C0019636968A30910509F70F5F4B
:10101000B9CF1F5FA9CF80E0F60191A19111892F6F
:10102000F6E0CF0ED11CCC15DD05B1F79FB7F894D3
:1010300040911402509115026091160270911702AE
:101040009FBF4093290350932A0360932B0370930F
:101050002C03882309F490C08091EE02882309F4C0
:101060008BC08091EC029091ED02019709F084C051
:10107000C091E902C0930E02C11183C0C090090261
:10108000D0900A02E0900B02F0900C0280910D02C9
:101090008823C9F0809108028B3209F0E7C2809161
:1010A000040290910502A0910602B09107028C0DF6
:1010B0009D1DAE1DBF1D8093000290930102A09361
:1010C0000202B0930302E1E08091C8028111E0E0E6
:1010D000E195F0E0EB54FD4F848980680E94E403C1
:1010E000C701B6010E94BB0441E06091080285EB94
:1010F00092E00E9491036091040270910502809138
:101100000602909107020E94BB0480910D02882381
:1011100081F06DEF71E085EB92E00E94990460919F
:1011200000027091010280910202909103020E94DC
:10113000BB04E091C802E23008F0DAC2E150F0E00E
:10114000EB54FD4F848980680E94E40360910002A3
:101150007091010280910202909103020E94BB04EF
:101160008114910409F44ACE0E94EB01882309F40A
:101170003ECE0E9400003BCE1092390310920E0228
:101180007DCF0E94EA03CA32F1F48BE591E00E9420
:10119000A804109204021092050210920602109206
:1011A00007021092090210920A0210920B0210928A
:1011B0000C02109200021092010210920202109290
:1011C000030210920D0280910E028133F1F489E640
:1011D00091E00E94A8042091000230910102409108
:1011E000020250910302211531054105510509F014
:1011F000A4C121E030E040E050E0209300023093B1
:101200000102409302025093030280910E02843344
:10121000F1F482E791E00E94A8042091000230914D
:10122000010240910202509103022115310541054E
:10123000510509F093C184E090E0A0E0B0E0809314
:10124000000290930102A0930202B09303028091E6
:101250000E028733F1F48BE791E00E94A8042091FD
:1012600000023091010240910202509103022115C7
:1012700031054105510509F082C127E030E040E029
:1012800050E02093000230930102409302025093F9
:10129000030280910E028033E9F484E891E00E9419
:1012A000A804209100023091010240910202509165
:1012B0000302211531054105510561F0AAE0B0E0B6
:1012C0000E94CD0B60930002709301028093020292
:1012D0009093030280910E028233F1F48DE891E045
:1012E0000E94A80420910002309101024091020264
:1012F00050910302211531054105510509F050C1F6
:1013000082E090E0A0E0B0E08093000290930102C0
:10131000A0930202B093030280910E028533D1F4B0
:1013200086E991E00E94A804209100023091010218
:1013300040910202509103022115310541055105EA
:1013400009F03FC1409200025092010260920202F5
:101350007092030280910E028833F1F48FE991E0DC
:101360000E94A804209100023091010240910202E3
:1013700050910302211531054105510509F032C193
:1013800028E030E040E050E020930002309301027A
:10139000409302025093030280910E028332B9F40B
:1013A00088EA91E00E94A8048091000290910102D5
:1013B000A0910202B091030280930402909305026F
:1013C000A0930602B093070281E080930D02809102
:1013D0000E028333F1F485EB91E00E94A804209182
:1013E0000002309101024091020250910302211546
:1013F00031054105510509F006C183E090E0A0E008
:10140000B0E08093000290930102A0930202B09397
:10141000030280910E028633F1F48EEB91E00E947C
:10142000A8042091000230910102409102025091E3
:101430000302211531054105510509F0F5C026E0EB
:1014400030E040E050E020930002309301024093EE
:1014500002025093030280910E028933F1F487EC6B
:1014600091E00E94A8042091000230910102409175
:10147000020250910302211531054105510509F081
:10148000E4C089E090E0A0E0B0E080930002909397
:101490000102A0930202B093030280910E029FEB1F
:1014A000980F943008F0EACD40910002509101026B
:1014B00060910202709103024093090250930A0264
:1014C00060930B0270930C021092000210920102C2
:1014D0001092020210920302813439F480ED91E0FF
:1014E0000E94A8048BE28093080280910E0282344D
:1014F00039F489ED91E00E94A8048DE280930802FE
:1015000080910E02833439F485EE91E00E94A804A4
:101510008AE28093080280910E02843439F484EFC9
:1015200091E00E94A8048FE28093080264E670E0D4
:1015300080E090E00E94E002A1CDAAE0B0E00E942D
:10154000CD0B6F5F7F4F8F4F9F4F60930002709363
:101550000102809302029093030257CEAAE0B0E00A
:101560000E94CD0B6C5F7F4F8F4F9F4F60930002A7
:1015700070930102809302029093030268CEAAE066
:10158000B0E00E94CD0B695F7F4F8F4F9F4F6093FC
:10159000000270930102809302029093030279CEBD
:1015A000AAE0B0E00E94CD0B6E5F7F4F8F4F9F4F40
:1015B00060930002709301028093020290930302F1
:1015C000ABCEAAE0B0E00E94CD0B6B5F7F4F8F4F98
:1015D0009F4F6093000270930102809302029093E8
:1015E0000302B8CEAAE0B0E00E94CD0B685F7F4F47
:1015F0008F4F9F4F6093000270930102809302020D
:1016000090930302C9CEAAE0B0E00E94CD0B6D5FBB
:101610007F4F8F4F9F4F6093000270930102809322
:10162000020290930302F5CEAAE0B0E00E94CD0B37
:101630006A5F7F4F8F4F9F4F60930002709301024C
:10164000809302029093030206CFAAE0B0E00E94CA
:10165000CD0B675F7F4F8F4F9F4F6093000270935A
:101660000102809302029093030217CF8D3289F416
:101670008091040290910502A0910602B0910702A8
:10168000A7019601281B390B4A0B5B0BDA01C90134
:1016900012CD8A32A9F420910402309105024091C2
:1016A000060250910702C701B6010E947C0B6093AD
:1016B000000270930102809302029093030203CD13
:1016C0008F3209F000CD2091040230910502409143
:1016D000060250910702C701B6010E94AE0B20938B
:1016E0000002309301024093020250930302EBCCBC
:1016F000E1E025CD617083CCDB018F939F930E9445
:10170000CD0BBF91AF91A29F800D911DA39F900D16
:10171000B29F900D11240895A1E21A2EAA1BBB1BA3
:10172000FD010DC0AA1FBB1FEE1FFF1FA217B307AD
:10173000E407F50720F0A21BB30BE40BF50B661FC3
:10174000771F881F991F1A9469F760957095809587
:1017500090959B01AC01BD01CF010895052E97FB2B
:101760001EF400940E94C50B57FD07D00E948C0BFD
:1017700007FC03D04EF40C94C50B50954095309562
:1017800021953F4F4F4F5F4F0895909580957095ED
:1017900061957F4F8F4F9F4F08950E94DE0BA59F4D
:1017A000900DB49F900DA49F800D911D112408955C
:1017B000EE0FFF1F0590F491E02D0994A29FB00158
:1017C000B39FC001A39F700D811D1124911DB29F75
:0E17D000700D811D1124911D0895F894FFCF16
:1017DE000405060700010203373839443435364311
:1017EE00313233422A302341000000007E011D03B6
:1017FE001F01CB0150012E01420100000000930495
:10180E001D034B034A0300000000120316031A03C4
:10181E000D0A00534F574D5941205348524545002C
:10182E0043414C43554C41544F5200427574746FB2
:10183E006E2043616E63656C00427574746F6E202A
:10184E003100427574746F6E203400427574746F7B
:10185E006E203700427574746F6E203000427574BE
:10186E00746F6E203200427574746F6E20350042B4
:10187E007574746F6E203800427574746F6E2045E7
:10188E007175616C00427574746F6E203300427511
:10189E0074746F6E203600427574746F6E2039004A
:1018AE004164646974696F6E00537562747261632A
:1018BE0074696F6E004D756C7469706C69636174D8
:1018CE00696F6E004465766573696F6E00203D002A
:00000001FF
