:100000000C9462000C948A000C948A000C948A0070
:100010000C948A000C948A000C948A000C948A0038
:100020000C948A000C948A000C948A000C9451045D
:100030000C948A000C948A000C948A000C948A0018
:100040000C9407040C948A000C948A000C948A0087
:100050000C948A000C948A000C948A000C948A00F8
:100060000C948A000C948A000000000024002700F1
:100070002A0000000000250028002B0000000000DE
:1000800023002600290004040404040404040202DA
:100090000202020203030303030301020408102007
:1000A0004080010204081020010204081020000012
:1000B0000008000201000003040700000000000027
:1000C00000007B0611241FBECFEFD8E0DEBFCDBFFE
:1000D00011E0A0E0B1E0E0E7FEE002C005900D9283
:1000E000AE35B107D9F721E0AEE5B1E001C01D9210
:1000F000AE3AB207E1F710E0C2E6D0E004C02197C3
:10010000FE010E943007C136D107C9F70E940D05D4
:100110000C9436070C9400008F929F92AF92BF927E
:10012000FF920F931F93CF93DF93F09093012BE0F7
:100130002F1508F44CC02091950108E512E0021B30
:10014000110927FD1395000F111F000F111F20919A
:100150009401C8E8D0E0C21BD10927FDD395CC0F8C
:10016000DD1FCC0FDD1F4E010D2E000CAA08BB08B1
:100170009801012E000C440B550B281939094A0926
:100180005B09DC010E94EB0624EB30E040E050E02C
:100190000E94C106820E931EA41EB51E8C169D06DB
:1001A0002CF0E801801691060CF4E4012297CC0FA4
:1001B000DD1F2FB7F8948F2D90E0FC01EE0FFF1F8D
:1001C000E80FF91FE159FE4FD283C1832FBFDF91A2
:1001D000CF911F910F91FF90BF90AF909F908F9004
:1001E0000895833081F028F4813099F08230A9F0AD
:1001F00008958730A9F08830C9F08430B1F4809137
:1002000080008F7D03C0809180008F778093800075
:10021000089584B58F7784BD089584B58F7DFBCF15
:100220008091B0008F778093B00008958091B000E6
:100230008F7DF9CFCF93DF93282F30E0F901E2557E
:10024000FF4F8491F901E656FF4FD491F901EA5727
:10025000FF4FC491CC23A1F081110E94F100EC2F3B
:10026000F0E0EE0FFF1FE458FF4FA591B491EC9121
:10027000ED2381E090E009F480E0DF91CF910895D3
:1002800080E090E0FACF1F93CF93DF93282F30E0E8
:10029000F901E255FF4F8491F901E656FF4FD491E1
:1002A000F901EA57FF4FC491CC23A9F0162F811111
:1002B0000E94F100EC2FF0E0EE0FFF1FEE58FF4F11
:1002C000A591B4918FB7F894EC91111108C0D09515
:1002D000DE23DC938FBFDF91CF911F910895DE2B3A
:1002E000F8CFCF93DF9390E0FC01E656FF4F2491C7
:1002F0008A579F4FFC0184918823D1F090E0880FAA
:10030000991FFC01E859FF4FA591B491FC01EE58EB
:10031000FF4FC591D49161110EC09FB7F8948C9195
:10032000E22FE0958E238C932881E223E8839FBF00
:10033000DF91CF9108958FB7F894EC91E22BEC9375
:100340008FBFF6CF3FB7F89480916B0190916C010D
:10035000A0916D01B0916E0126B5A89B05C02F3FFD
:1003600019F00196A11DB11D3FBFBA2FA92F982FDB
:100370008827BC01CD01620F711D811D911D42E0D6
:10038000660F771F881F991F4A95D1F708958F929E
:100390009F92AF92BF92CF92DF92EF92FF924B016A
:1003A0005C010E94A2016B017C010E94A2016C19F8
:1003B0007D098E099F09683E734081059105A8F368
:1003C00021E0821A9108A108B10888EEC80E83E0E6
:1003D000D81EE11CF11C81149104A104B10429F779
:1003E000FF90EF90DF90CF90BF90AF909F908F9055
:1003F0000895AF92BF92CF92DF92EF92FF920F9348
:100400001F93CF93DF936C017B018B01040F151FAA
:10041000EB015E01AE18BF08C017D10759F0699112
:10042000D601ED91FC910190F081E02DC601099576
:10043000892B79F7C501DF91CF911F910F91FF9023
:10044000EF90DF90CF90BF90AF900895089590E027
:1004500080E008958F929F92AF92BF920F931F9367
:10046000CF93DF93CDB7DEB7A1970FB6F894DEBF79
:100470000FBECDBF19A2423008F44AE08E010F5DD5
:100480001F4F842E912CB12CA12CA50194010E9408
:10049000F306E62FB901CA01EA3044F5E05DD80160
:1004A000EE938D01232B242B252B79F790E080E010
:1004B000109769F0FD0101900020E9F73197AF0135
:1004C0004A1B5B0BBD0186E991E00E94F901A196F0
:1004D0000FB6F894DEBF0FBECDBFDF91CF911F9155
:1004E0000F91BF90AF909F908F900895E95CD7CF08
:1004F000FC0101900020E9F73197AF01481B590B2F
:10050000BC0186E991E00C94F901CF93DF93EC01F3
:1005100060E08E810E94430161E08E810E94430170
:1005200060E08E810E9443018BE891E00197F1F732
:10053000DF91CF910895CF92DF92EF92FF920F93C8
:100540001F93CF93DF936C017C0187E0E80EF11CD1
:10055000D0E0C0E0062F10E0B8010C2E02C0759567
:1005600067950A94E2F76170F70181917F010E941B
:1005700043012196C430D10579F7C601DF91CF91AF
:100580001F910F91FF90EF90DF90CF900C94850218
:10059000CF92DF92EF92FF920F931F93CF93DF934F
:1005A000EC01F62E642F8C810E9443018D818F3FD8
:1005B00019F060E00E9443010F2D10E08F8584FF49
:1005C00025C06E0187E0C80ED11CF12CE12CB801CA
:1005D0000E2C02C0759567950A94E2F76170F601DA
:1005E00081916F010E944301FFEFEF1AFF0A88E03B
:1005F000E816F10461F7CE01DF91CF911F910F91C1
:10060000FF90EF90DF90CF900C948502B80184E0CA
:10061000759567958A95E1F7CE010E949B026F2D33
:10062000CE01DF91CF911F910F91FF90EF90DF905E
:10063000CF900C949B0240E0682F86E991E00C94E7
:10064000C80281E00E941B038BE39FE10197F1F751
:100650000895CF93DF93823029F49091A50198609B
:100660009093A5018093A9011092AA0180E4809340
:10067000AB0180E18093AC0180E58093AD0161E046
:1006800080919A010E94710180919B018F3F19F026
:1006900061E00E94710161E080919C010E94710102
:1006A000C6E9D1E09E01265931408091A50184FD23
:1006B0000BC084E090E021962817390744F461E0EC
:1006C0008E810E947101EECF88E090E0F4CF8BE341
:1006D0009DE00197F1F760E080919A010E9443014B
:1006E00060E080919C010E94430180919B018F3FBB
:1006F00019F060E00E9443018091A50184FD34C09F
:1007000063E086E991E00E949B02CBE4D6E4CE014F
:100710000197F1F763E086E991E00E949B0221973F
:10072000F1F763E086E991E00E949B0283E592E0A5
:100730000197F1F762E086E991E00E949B028091C7
:10074000A50180620E941B0384E08093A6018CE0D7
:100750000E941B030E94210382E08093A70186E090
:10076000DF91CF910C941B0380620E941B038BE4EA
:1007700096E40197F1F78091A50180620E941B0326
:1007800083E592E00197F1F78091A50180620E94D4
:100790001B03D5CF9091A901891710F08FEF890F16
:1007A000E82FF0E0EA56FE4F848980680C941B0322
:1007B00041E00E94C80281E090E00895CF92DF926C
:1007C000EF92FF926C01990FEE08FF08F7FE16C03A
:1007D00041E06DE286E991E00E94C8026627772732
:1007E000CB016C197D098E099F094AE00E942A02FB
:1007F0000196FF90EF90DF90CF9008954AE0C701F7
:10080000B601FF90EF90DF90CF900C942A021F92D8
:100810000F920FB60F9211242F933F938F939F93B4
:10082000AF93BF938091670190916801A091690196
:10083000B0916A013091660123E0230F2D3758F5FE
:100840000196A11DB11D20936601809367019093CD
:100850006801A0936901B0936A0180916B01909146
:100860006C01A0916D01B0916E010196A11DB11DA9
:1008700080936B0190936C01A0936D01B0936E0116
:10088000BF91AF919F918F913F912F910F900FBE8C
:100890000F901F90189526E8230F0296A11DB11DF9
:1008A000D2CF1F920F920FB60F9211242F933F9326
:1008B0004F935F936F937F938F939F93AF93BF9368
:1008C000CF93DF93EF93FF9380915F01C0915E011F
:1008D000D0E087FF24C010928500109284008091A0
:1008E0005F018F5F80935F0180915F01082E000C94
:1008F000990B8C179D0724F480915F018C30C4F113
:100900008091840090918500049680349C4908F47D
:100910007AC08091840090918500049676C0809181
:100920005F01082E000C990B8C179D07C4F6E0910F
:100930005F018E2FEE0F990BFC01EE0FFF1FE80FEA
:10094000F91FE159FE4F808186FFC9CFE0915F0119
:100950008E2FEE0F990BFC01EE0FFF1FE80FF91F12
:10096000E159FE4F808160E08F730E944301B7CF51
:100970002091840030918500E0915F018E2FEE0F71
:10098000990BFC01EE0FFF1FE80FF91FE159FE4F15
:1009900081819281820F931F9093890080938800B8
:1009A000E0915F018E2FEE0F990BFC01EE0FFF1F00
:1009B000E80FF91FE159FE4F808186FF11C0E091D9
:1009C0005F018E2FEE0F990BFC01EE0FFF1FE80F5A
:1009D000F91FE159FE4F808161E08F730E9443014E
:1009E000FF91EF91DF91CF91BF91AF919F918F9147
:1009F0007F916F915F914F913F912F910F900FBE1B
:100A00000F901F90189580E49CE990938900809343
:100A100088008FEF80935F01E3CF789484B5826084
:100A200084BD84B5816084BD85B5826085BD85B592
:100A3000816085BD80916E00816080936E00109210
:100A4000810080918100826080938100809181008B
:100A5000816080938100809180008160809380001C
:100A60008091B10084608093B1008091B00081607A
:100A70008093B00080917A00846080937A008091A6
:100A80007A00826080937A0080917A0081608093FE
:100A90007A0080917A00806880937A001092C10079
:100AA00060E082E00E94710160E084E00E947101D8
:100AB000809193018C3008F051C061E083E00E9486
:100AC000710180919301282F30E0F901EE0FFF1F93
:100AD000E20FF31FE159FE4F9081907C9360908369
:100AE00010929401109295012CE0622F0E9424072D
:100AF000829FB001112430E020E0AB01420F531F70
:100B0000FA01EE0FFF1FE40FF51FE159FE4F908130
:100B100096FD16C02F5F3F4F2C30310571F78111C4
:100B20000FC01092800082E08093810010928500B7
:100B300010928400B19A80916F00826080936F0060
:100B4000E09193018E2F90E0FC01EE0FFF1FE80F64
:100B5000F91FE159FE4F80818064808384E690E034
:100B60000E948C0082E00E94290380E00E94CA0358
:100B70008CE091E00E94780281E00E94CA038AE141
:100B800091E00E94780260ED77E080E090E00E94C2
:100B9000C7010E94210385E090E090936301809358
:100BA000620180E0E82E80E0F82E01E010E082E0B3
:100BB0000E941A01892B01F58091640190916501D1
:100BC000892BD1F4C0916201D09163011C161D06DE
:100BD000D4F51093650100936401809160019091B8
:100BE0006101892B49F490E080E00E948C002197FC
:100BF000D0936301C093620184E00E941A012091A6
:100C0000640130916501892BA9F12130310509F08A
:100C10004CC08091600190916101019709F045C03D
:100C200068EE73E080E090E00E94C70184E690E007
:100C30000E948C0010926501109264011092610173
:100C40001092600132C080E00E94CA0383E291E00A
:100C50000E94780281E00E94CA0384E391E00E942E
:100C6000780268EE73E080E090E00E94C7010E9485
:100C70002103C2CF8091600190916101892B29F6F7
:100C800010936101009360012115310509F0BDCF7A
:100C900090E080E00E948C0080916201909163015D
:100CA0000196909363018093620180E00E94CA03E1
:100CB00080E491E00E94780285E090E00E94DE03EB
:100CC00081E00E94CA0380E591E00E94780281E001
:100CD0000E94CA038FE491E00E9478028091620131
:100CE000909163010E94DE03E114F10409F45FCFE7
:100CF0000E9400005CCF80915E018C30F0F591E0A5
:100D0000980F90935E018093930190E0FC01EE0FA9
:100D1000FF1FE80FF91FE159FE4F88EB9BE092831C
:100D20008183109299011092980184E091E0909350
:100D30009701809396018EE080939A018FEF8093C4
:100D40009B018FE080939C0180E180939D0181E174
:100D500080939E0182E180939F0183E18093A001B3
:100D60001092A1011092A2011092A3011092A4016D
:100D70001092A50181E00C9429038FEF80939301D9
:100D8000D0CF052E97FB1EF400940E94D80657FD85
:100D900007D00E94F30607FC03D04EF40C94D8064B
:100DA00050954095309521953F4F4F4F5F4F089597
:100DB00090958095709561957F4F8F4F9F4F0895C7
:100DC0000E941507A59F900DB49F900DA49F800DC4
:100DD000911D11240895B7FF0C94E0060E94E006CF
:100DE000821B930B0895A1E21A2EAA1BBB1BFD01C7
:100DF0000DC0AA1FBB1FEE1FFF1FA217B307E407FA
:100E0000F50720F0A21BB30BE40BF50B661F771F51
:100E1000881F991F1A9469F7609570958095909531
:100E20009B01AC01BD01CF010895A29FB001B39F0A
:100E3000C001A39F700D811D1124911DB29F700DE3
:100E4000811D1124911D0895991B79E004C0991FFB
:100E5000961708F0961B881F7A95C9F78095089514
:100E6000EE0FFF1F0590F491E02D0994F894FFCF49
:100E700000000000D803F9012702260220636172F6
:100E8000207061726B696E672000207379737465DE
:100E90006D200020736F727279206E6F74207370F2
:100EA0006163650020617661696C61626C65200038
:100EB00020546F74616C2073706163653A20002068
:0E0EC000486176652073706163653A2000001A
:00000001FF
