:020000040000FA
:100000000C9462000C948A000C948A000C948A0070
:100010000C948A000C948A000C948A000C948A0038
:100020000C948A000C948A000C948A000C948A0028
:100030000C948A000C948A000C948A000C948A0018
:100040000C94C2020C948A000C948A000C948A00CE
:100050000C948A000C948A000C948A000C948A00F8
:100060000C948A000C948A000000000023002600F3
:10007000290000000000240027002A0000000000E2
:10008000250028002B0004040404040404040202D4
:100090000202020203030303030301020408102007
:1000A0004080010204081020010204081020000012
:1000B0000008000201000003040700000000000027
:1000C0000000E10311241FBECFEFD8E0DEBFCDBF9B
:1000D00011E0A0E0B1E0EEE0F8E002C005900D9282
:1000E000A832B107D9F721E0A8E2B1E001C01D9222
:1000F000A934B207E1F710E0C2E6D0E004C02197CE
:10010000FE010E94FF03C136D107C9F70E940C030C
:100110000C9405040C940000833081F028F48130A5
:1001200099F08230A9F008958730A9F08830C9F09D
:100130008430B1F4809180008F7D03C08091800075
:100140008F7780938000089584B58F7784BD08955C
:1001500084B58F7DFBCF8091B0008F778093B00006
:1001600008958091B0008F7DF9CF1F93CF93DF93D7
:10017000282F30E0F901E255FF4F8491F901E6564E
:10018000FF4FD491F901EA57FF4FC491CC23A9F056
:10019000162F81110E948C00EC2FF0E0EE0FFF1F54
:1001A000E458FF4FA591B4918FB7F894EC911111D9
:1001B00008C0D095DE23DC938FBFDF91CF911F91D4
:1001C0000895DE2BF8CFCF93DF9390E0FC01E65645
:1001D000FF4F24918A579F4FFC0184918823D1F0CF
:1001E00090E0880F991FFC01EE58FF4FA591B49144
:1001F000FC01E458FF4FC591D49161110EC09FB727
:10020000F8948C91E22FE0958E238C932881E22341
:10021000E8839FBFDF91CF9108958FB7F894EC9159
:10022000E22BEC938FBFF6CF3FB7F89480912D016E
:1002300090912E01A0912F01B091300126B5A89B7D
:1002400005C02F3F19F00196A11DB11D3FBFBA2F68
:10025000A92F982F8827BC01CD01620F711D811D28
:10026000911D42E0660F771F881F991F4A95D1F7AD
:100270000895AF92BF92CF92DF92EF92FF920F93C9
:100280001F93CF93DF936C017B018B01040F151F2C
:10029000EB015E01AE18BF08C017D10759F0699194
:1002A000D601ED91FC910190F081E02DC6010995F8
:1002B000892B79F7C501DF91CF911F910F91FF90A5
:1002C000EF90DF90CF90BF90AF900895089590E0A9
:1002D00080E00895FC0101900020E9F73197AF011B
:1002E000481B590BBC0181E391E00C943901CF9379
:1002F000DF93EC0160E08E810E94B50061E08E81A9
:100300000E94B50060E08E810E94B5008BE891E00C
:100310000197F1F7DF91CF910895CF92DF92EF929D
:10032000FF920F931F93CF93DF936C017C0187E0C3
:10033000E80EF11CD0E0C0E0062F10E0B8010C2E52
:1003400002C0759567950A94E2F76170F701819193
:100350007F010E94B5002196C430D10579F7C6010E
:10036000DF91CF911F910F91FF90EF90DF90CF9091
:100370000C947701CF92DF92EF92FF920F931F932D
:10038000CF93DF93EC01F62E642F8C810E94B50091
:100390008D818F3F19F060E00E94B5000F2D10E0B5
:1003A0008F8584FF25C06E0187E0C80ED11CF12C1B
:1003B000E12CB8010E2C02C0759567950A94E2F7FE
:1003C0006170F60181916F010E94B500FFEFEF1A95
:1003D000FF0A88E0E816F10461F7CE01DF91CF91C2
:1003E0001F910F91FF90EF90DF90CF900C947701C9
:1003F000B80184E0759567958A95E1F7CE010E9472
:100400008D016F2DCE01DF91CF911F910F91FF9044
:10041000EF90DF90CF900C948D0140E0682F81E346
:1004200091E00C94BA0181E00E940D028BE39FE100
:100430000197F1F70895CF93DF93823029F49091DB
:1004400040019860909340018093440110924501CF
:1004500080E48093460180E18093470180E58093AA
:10046000480161E0809135010E94E30080913601EE
:100470008F3F19F061E00E94E30061E08091370155
:100480000E94E300C1E3D1E09E01215331408091FD
:10049000400184FD0BC084E090E0219628173907C5
:1004A00044F461E08E810E94E300EECF88E090E0AA
:1004B000F4CF8BE39DE00197F1F760E08091350187
:1004C0000E94B50060E0809137010E94B5008091E4
:1004D00036018F3F19F060E00E94B5008091400125
:1004E00084FD34C063E081E391E00E948D01CBE4A0
:1004F000D6E4CE010197F1F763E081E391E00E9439
:100500008D012197F1F763E081E391E00E948D0175
:1005100083E592E00197F1F762E081E391E00E94C8
:100520008D018091400180620E940D0284E08093E1
:1005300041018CE00E940D020E94130282E0809330
:10054000420186E0DF91CF910C940D0280620E94FF
:100550000D028BE496E40197F1F7809140018062EF
:100560000E940D0283E592E00197F1F7809140012E
:1005700080620E940D02D5CF41E00E94BA0181E065
:1005800090E008951F920F920FB60F9211242F93AF
:100590003F938F939F93AF93BF9380912901909145
:1005A0002A01A0912B01B0912C013091280123E068
:1005B000230F2D3758F50196A11DB11D2093280159
:1005C0008093290190932A01A0932B01B0932C01D1
:1005D00080912D0190912E01A0912F01B0913001B9
:1005E0000196A11DB11D80932D0190932E01A09322
:1005F0002F01B0933001BF91AF919F918F913F91A7
:100600002F910F900FBE0F901F90189526E8230F83
:100610000296A11DB11DD2CF789484B5826084BDAD
:1006200084B5816084BD85B5826085BD85B58160F6
:1006300085BD80916E00816080936E001092810074
:10064000809181008260809381008091810081602F
:1006500080938100809180008160809380008091F0
:10066000B10084608093B1008091B000816080937C
:10067000B00080917A00846080937A0080917A0043
:10068000826080937A0080917A00816080937A0002
:1006900080917A00806880937A001092C10082E095
:1006A0000E941B0260E083E10E94E30061E081E0C0
:1006B0000E94E30021EC822E20E0922ECDEAD0E0D1
:1006C00009E910E030E0A32E30E0B32EF40184916C
:1006D000FE01E490F801F490FF2009F457C0811165
:1006E0000E948C00EF2DF0E0EE0FFF1FE859FF4F46
:1006F000A591B4918C91E82209F448C061E081E0B1
:100700000E94B5000E9413028CE091E00E946A01F1
:10071000E0914401E230C0F5E150F0E0EF5CFE4FC3
:10072000848980680E940D0282E291E00E946A0141
:100730000E9414016B017C0188EE482E83E0582E44
:10074000612C712C0E9414016C197D098E099F097E
:10075000683E734081059105A8F3F1E04F1A5108F6
:100760006108710828EEC20E23E0D21EE11CF11CC4
:10077000411451046104710429F7A114B10409F46E
:10078000A5CF0E940000A2CFE1E0C7CF60E081E0EA
:100790000E94B5000E94130285E191E00E946A0167
:1007A000E0914401E23058F4E150F0E0EF5CFE4F9C
:1007B000848980680E940D028FE191E0B7CFE1E06B
:1007C000F4CFE1E3F1E01382128284E091E09183BF
:1007D00080838CE084838FEF85838BE0868385E044
:1007E000878384E0808783E0818782E08287138625
:1007F000148615861686178681E00C941B02EE0F70
:10080000FF1F0590F491E02D0994F894FFCF0000AC
:100810000000BC023901670166016D6F746F723DA3
:100820006F6E006D6F746F723D6F6666004E6F2065
:060830007261696E000018
:107E0000112484B714BE81FFF0D085E080938100F7
:107E100082E08093C00088E18093C10086E0809377
:107E2000C20080E18093C4008EE0C9D0259A86E02C
:107E300020E33CEF91E0309385002093840096BBD3
:107E4000B09BFECF1D9AA8958150A9F7CC24DD24C4
:107E500088248394B5E0AB2EA1E19A2EF3E0BF2EE7
:107E6000A2D0813461F49FD0082FAFD0023811F036
:107E7000013811F484E001C083E08DD089C08234E0
:107E800011F484E103C0853419F485E0A6D080C0E4
:107E9000853579F488D0E82EFF2485D0082F10E0AE
:107EA000102F00270E291F29000F111F8ED06801E7
:107EB0006FC0863521F484E090D080E0DECF843638
:107EC00009F040C070D06FD0082F6DD080E0C81688
:107ED00080E7D80618F4F601B7BEE895C0E0D1E017
:107EE00062D089930C17E1F7F0E0CF16F0E7DF06D8
:107EF00018F0F601B7BEE89568D007B600FCFDCFD4
:107F0000A601A0E0B1E02C9130E011968C91119780
:107F100090E0982F8827822B932B1296FA010C0160
:107F200087BEE89511244E5F5F4FF1E0A038BF0790
:107F300051F7F601A7BEE89507B600FCFDCF97BE46
:107F4000E89526C08437B1F42ED02DD0F82E2BD052
:107F50003CD0F601EF2C8F010F5F1F4F84911BD097
:107F6000EA94F801C1F70894C11CD11CFA94CF0C13
:107F7000D11C0EC0853739F428D08EE10CD085E9AC
:107F80000AD08FE07ACF813511F488E018D01DD067
:107F900080E101D065CF982F8091C00085FFFCCF94
:107FA0009093C60008958091C00087FFFCCF809118
:107FB000C00084FD01C0A8958091C6000895E0E648
:107FC000F0E098E1908380830895EDDF803219F02E
:107FD00088E0F5DFFFCF84E1DECF1F93182FE3DFCA
:107FE0001150E9F7F2DF1F91089580E0E8DFEE27F6
:047FF000FF270994CA
:027FFE00040479
:00000001FF
