:100000000C9462000C948A000C948A000C948A0070
:100010000C948A000C948A000C948A000C948A0038
:100020000C948A000C948A000C948A000C948A0028
:100030000C948A000C948A000C948A000C948A0018
:100040000C9431050C948A000C94A1050C947B054A
:100050000C948A000C948A000C948A000C948A00F8
:100060000C948A000C948A000000000024002700F1
:100070002A0000000000250028002B0000000000DE
:1000800023002600290004040404040404040202DA
:100090000202020203030303030301020408102007
:1000A0004080010204081020010204081020000012
:1000B0000008000201000003040700000000000027
:1000C0000000D30511241FBECFEFD8E0DEBFCDBFA7
:1000D00011E0A0E0B1E0EEEDF7E102C005900D9275
:1000E000AC3FB107D9F723E0ACEFB1E001C01D92FE
:1000F000A833B207E1F710E0C2E6D0E004C02197D0
:10010000FE010E94D80BC136D107C9F70E948B06A9
:100110000C94ED0B0C94000096E0899FD001112403
:10012000A753BD4F90967C936E935F9791E0919605
:100130009C939197E0913603F091370390913503AA
:10014000992339F0309751F0811108C08091E50270
:100150000994309719F05C968C91FACF0895CF925C
:10016000DF92EF92FF920F931F9396E0899FF00129
:100170001124E753FD4F11A2278D30A12130310505
:1001800051F178F02230310509F451C023303105A6
:1001900009F452C01F910F91FF90EF90DF90CF9024
:1001A00008956623B9F361E070E00E948C002FB7D8
:1001B000F8948091100290911102A0911202B091D6
:1001C00013022FBF8093210390932203A093230354
:1001D000B0932403DFCF9FB7F894C0901002D09063
:1001E0001102E0901202F09013029FBF00912103D0
:1001F000109122032091230330912403C01AD10AC5
:10020000E20AF30A009133031091340330E020E056
:100210000C151D052E053F0550F462E070E01F919E
:100220000F91FF90EF90DF90CF900C948C006111B4
:10023000B1CF63E070E0F3CF70E060E0F0CFFC019D
:10024000538D448D252F30E0842F90E0821B930B3B
:10025000541710F0CF96089501970895FC01918DE1
:10026000828D981761F0A28DAE0FBF2FB11D5D96E4
:100270008C91928D9F5F9F73928F90E008958FEF86
:100280009FEF0895FC01918D828D981731F0828D3A
:10029000E80FF11D858D90E008958FEF9FEF089591
:1002A000FC01918D228D892F90E0805C9F4F821BF5
:1002B00091098F7399270895FC01A48DA80FB92F78
:1002C000B11DA35ABF4F2C91848D90E001968F737E
:1002D0009927848FA689B7892C93A089B1898C919D
:1002E000837080648C93938D848D981306C00288EC
:1002F000F389E02D80818F7D80830895EF92FF92B6
:100300000F931F93CF93DF93EC0181E0888F9B8D38
:100310008C8D98131AC0E889F989808185FF15C0F2
:100320009FB7F894EE89FF896083E889F989808115
:100330008370806480839FBF81E090E0DF91CF91E4
:100340001F910F91FF90EF900895F62E0B8D10E006
:100350000F5F1F4F0F731127E02E8C8D8E110CC075
:100360000FB607FCFACFE889F989808185FFF5CFC0
:10037000CE010E945C01F1CFEB8DEC0FFD2FF11D42
:10038000E35AFF4FF0829FB7F8940B8FEA89FB89FD
:1003900080818062CFCFCF93DF93EC01888D88235B
:1003A000B9F0AA89BB89E889F9898C9185FD03C0D8
:1003B000808186FD0DC00FB607FCF7CF8C9185FFBD
:1003C000F2CF808185FFEDCFCE010E945C01E9CFA5
:1003D000DF91CF91089584E192E00E94500121E0E5
:1003E000892B09F420E0822F089580E090E0892B8A
:1003F00029F00E94EB0181110C94000008958330D4
:1004000081F028F4813099F08230A9F00895873086
:10041000A9F08830C9F08430B1F4809180008F7DDC
:1004200003C0809180008F7780938000089584B509
:100430008F7784BD089584B58F7DFBCF8091B00008
:100440008F778093B00008958091B0008F7DF9CFB1
:10045000CF93DF93282F30E0F901E255FF4F8491CD
:10046000F901E656FF4FD491F901EA57FF4FC491C5
:10047000CC23A1F081110E94FF01EC2FF0E0EE0FE0
:10048000FF1FE458FF4FA591B491EC91ED2381E05B
:1004900090E009F480E0DF91CF91089580E090E052
:1004A000FACF1F93CF93DF93282F30E0F901E25565
:1004B000FF4F8491F901E656FF4FD491F901EA57B5
:1004C000FF4FC491CC23A9F0162F81110E94FF0188
:1004D000EC2FF0E0EE0FFF1FEE58FF4FA591B49107
:1004E0008FB7F894EC91111108C0D095DE23DC93FE
:1004F0008FBFDF91CF911F910895DE2BF8CFCF935F
:10050000DF9390E0FC01E656FF4F24918A579F4FFE
:10051000FC0184918823C9F090E0880F991FFC01A9
:10052000E859FF4FA591B491FC01EE58FF4FC591DA
:10053000D49161110DC09FB7F8948C9120958223BE
:100540008C938881282328839FBFDF91CF910895C2
:10055000623051F49FB7F8943C91822F80958323A9
:100560008C93E8812E2BEFCF8FB7F894EC912E2B44
:100570002C938FBFEACF3FB7F89480910C029091F3
:100580000D02A0910E02B0910F0226B5A89B05C0E6
:100590002F3F19F00196A11DB11D3FBFBA2FA92F02
:1005A000982F8827BC01CD01620F711D811D911DFF
:1005B00042E0660F771F881F991F4A95D1F708956B
:1005C0008F929F92AF92BF92CF92DF92EF92FF9263
:1005D0004B015C010E94BB026B017C010E94BB02CB
:1005E0006C197D098E099F09683E7340810591054C
:1005F000A8F321E0821A9108A108B10888EEC80E7C
:1006000083E0D81EE11CF11C81149104A104B10403
:1006100029F7FF90EF90DF90CF90BF90AF909F9021
:100620008F900895862F642F0C947F02862F642F5D
:100630000C945102862F0C942802AF92BF92CF9255
:10064000DF92EF92FF920F931F93CF93DF936C0192
:100650007B018B01040F151FEB015E01AE18BF0873
:10066000C017D10759F06991D601ED91FC91019025
:10067000F081E02DC6010995892B79F7C501DF913D
:10068000CF911F910F91FF90EF90DF90CF90BF908F
:10069000AF900895089590E080E00895CF93DF93A0
:1006A000EC0160E08E810E94510261E08E810E9427
:1006B000510260E08E810E9451028BE891E0019727
:1006C000F1F7DF91CF910895CF92DF92EF92FF92F1
:1006D0000F931F93CF93DF936C017C0187E0E80EAB
:1006E000F11CD0E0C0E0062F10E0B8010C2E02C0D3
:1006F000759567950A94E2F76170F70181917F0122
:100700000E9451022196C430D10579F7C601DF91CC
:10071000CF911F910F91FF90EF90DF90CF900C94AD
:100720004E03CF92DF92EF92FF920F931F93CF93DE
:10073000DF93EC01F62E642F8C810E9451028D8193
:100740008F3F19F060E00E9451020F2D10E08F855D
:1007500084FF25C06E0187E0C80ED11CF12CE12C6E
:10076000B8010E2C02C0759567950A94E2F7617086
:10077000F60181916F010E945102FFEFEF1AFF0A0B
:1007800088E0E816F10461F7CE01DF91CF911F9167
:100790000F91FF90EF90DF90CF900C944E03B80133
:1007A00084E0759567958A95E1F7CE010E94640310
:1007B0006F2DCE01DF91CF911F910F91FF90EF90A0
:1007C000DF90CF900C94640340E0682F81EB92E0BF
:1007D0000C94910381E00E94E4038BE39FE1019775
:1007E000F1F70895CF93DF93823029F49091C002FE
:1007F00098609093C0028093C4021092C50280E476
:100800008093C60280E18093C70280E58093C8028E
:1008100061E08091B5020E947F028091B6028F3F15
:1008200019F061E00E947F0261E08091B7020E94AE
:100830007F02C1EBD2E09E01215B32408091C00279
:1008400084FD0BC084E090E021962817390744F41A
:1008500061E08E810E947F02EECF88E090E0F4CFCD
:100860008BE39DE00197F1F760E08091B5020E9473
:10087000510260E08091B7020E9451028091B6025D
:100880008F3F19F060E00E9451028091C00284FD08
:1008900034C063E081EB92E00E946403CBE4D6E4D1
:1008A000CE010197F1F763E081EB92E00E946403CF
:1008B0002197F1F763E081EB92E00E94640383E506
:1008C00092E00197F1F762E081EB92E00E9464030D
:1008D0008091C00280620E94E40384E08093C102A0
:1008E0008CE00E94E4030E94EA0382E08093C2024B
:1008F00086E0DF91CF910C94E40380620E94E403D0
:100900008BE496E40197F1F78091C00280620E9427
:10091000E40383E592E00197F1F78091C0028062E1
:100920000E94E403D5CF41E00E94910381E090E072
:100930000895FB0101900020E9F73197AF01461BB4
:10094000570BDC01ED91FC910280F381E02D0994BD
:10095000CF93DF93BC0184E192E00E949904EC0103
:1009600060E471E084E192E00E9499048C0F9D1F85
:10097000DF91CF910895CF92DF92EF92FF920F9384
:100980001F93CF93DF93CDB7DEB7A1970FB6F8943F
:10099000DEBF0FBECDBF6B017C01F7FE3EC041E064
:1009A0006DE281EB92E00E94910322273327A90197
:1009B0002C193D094E095F0919A28E010F5D1F4FC9
:1009C0009AE0C92ED12CE12CF12CCA01B901A70162
:1009D00096010E948C0B605DF80162938F012115D6
:1009E00031054105510589F790E080E0309729F005
:1009F000BF0181EB92E00E9499040196A1960FB687
:100A0000F894DEBF0FBECDBFDF91CF911F910F9144
:100A1000FF90EF90DF90CF900895AC019B0119A259
:100A20008E010F5D1F4F8AE0C82ED12CE12CF12CD6
:100A3000CA01B901A70196010E948C0B605DF80103
:100A400062938F01211531054105510589F790E029
:100A500080E0309799F2BF0181EB92E00E94990407
:100A6000CDCF1F920F920FB60F9211242F933F9369
:100A70008F939F93AF93BF93809110029091110237
:100A8000A0911202B091130230910B0223E0230FC8
:100A90002D3758F50196A11DB11D20930B028093AF
:100AA000100290931102A0931202B093130280914E
:100AB0000C0290910D02A0910E02B0910F020196CE
:100AC000A11DB11D80930C0290930D02A0930E0204
:100AD000B0930F02BF91AF919F918F913F912F9152
:100AE0000F900FBE0F901F90189526E8230F0296C7
:100AF000A11DB11DD2CF1F920F920FB60F921124DC
:100B00002F933F934F935F936F937F938F939F9315
:100B1000AF93BF93EF93FF9384E192E00E945C0157
:100B2000FF91EF91BF91AF919F918F917F916F91C5
:100B30005F914F913F912F910F900FBE0F901F909B
:100B400018951F920F920FB60F9211242F938F9327
:100B50009F93EF93FF93E0912402F091250280810F
:100B6000E0912A02F0912B0282FD1BC090818091BE
:100B70002D028F5F8F7320912E02821741F0E0913A
:100B80002D02F0E0EC5EFD4F958F80932D02FF91DA
:100B9000EF919F918F912F910F900FBE0F901F900B
:100BA00018958081F4CF109217021092160288EEE9
:100BB00093E0A0E0B0E08093180290931902A09314
:100BC0001A02B0931B028CE191E09093150280937E
:100BD000140285EC90E0909321028093200284EC33
:100BE00090E0909323028093220280EC90E0909317
:100BF00025028093240281EC90E090932702809359
:100C0000260282EC90E0909329028093280286ECE1
:100C100090E090932B0280932A0210922D02109262
:100C20002E0210922F02109230021092CB021092DC
:100C3000CF021092CE021092D0028AE391E09093FC
:100C4000CA028093C902E5EEF2E010821482138298
:100C50001582369683E0E132F807B9F784E091E037
:100C600090932C0380932B0380E091E090932E03CC
:100C700080932D0384E080932F038093300388E0DA
:100C800091E090932A03809329038AE090E0909367
:100C900032038093310384EF91E090933403809387
:100CA00033031092370310923603109225031092EB
:100CB00026031092270310922803109235031092F6
:100CC000B4021092B3028EE291E09093B20280934C
:100CD000B10288E08093B5028FEF8093B60289E07D
:100CE0008093B7028AE08093B8028BE08093B902C8
:100CF0008CE08093BA028DE08093BB021092BC021C
:100D00001092BD021092BE021092BF021092C00259
:100D100081E00C94F203789484B5826084BD84B53C
:100D2000816084BD85B5826085BD85B5816085BDE6
:100D300080916E00816080936E001092810080919E
:100D40008100826080938100809181008160809326
:100D50008100809180008160809380008091B1004B
:100D600084608093B1008091B00081608093B00076
:100D700080917A00846080937A0080917A0082600A
:100D800080937A0080917A00816080937A008091CC
:100D90007A00806880937A001092C10082E00E94FD
:100DA000F20363E471E081EB92E00E949904E09128
:100DB000C402E23008F059C0E150F0E0EF54FD4FBA
:100DC000848980680E94E4036BE471E081EB92E027
:100DD0000E94990460ED77E080E090E00E94E002DC
:100DE0000E94EA0365E0462E512C612C712C2224CE
:100DF0002A94322C50E0852E50E0952E81E080938D
:100E000035038FB7F8944091100250911102609110
:100E10001202709113028FBF8091250390912603D7
:100E2000A0912703B0912803481B590B6A0B7B0B39
:100E30008091310390913203B0E0A0E084179507D0
:100E4000A607B70708F098C1C0E080912F03C81724
:100E500070F4E0912B03F0912C03EC0FF11D62E094
:100E600080810E947F02CF5FF0CFE1E0A6CFB12C5E
:100E700080913003B81608F061C00B2D10E0E091AE
:100E80002D03F0912E03E00FF11F61E080810E949D
:100E90007F02E0912D03F0912E03E00FF11F60E03F
:100EA00080810E94510281E090E0A0E0B0E00B2C34
:100EB00004C0880F991FAA1FBB1F0A94D2F76C01A8
:100EC0007C01E094F094A12C80912F03A816F8F4F3
:100ED000CA2DD0E0E0912B03F0912C03EC0FFD1F05
:100EE00080810E9428022496CC0FDD1FC753DD4F5E
:100EF000892B41F4888199818C299D299983888344
:100F0000A394E2CF888199818E219F21F7CFE09130
:100F10002D03F0912E03E00FF11F61E080810E940C
:100F2000510280912D0390912E03080F191F60E04C
:100F3000D8018C910E947F02B3949ACF29ECC22EE3
:100F400022E0D22EE6018F8D98A1892B21F41C8EF0
:100F50003E8E2D8E19A22696E5E0F3E0EC17FD07F4
:100F600091F710E096E0B92E80912F03181708F042
:100F700052C000E0E12EF12CEE0CFF1C97012F5225
:100F80003D4F790120913003021708F042C0D7018C
:100F90006D917C91002E02C0769567950A94E2F7D8
:100FA000129F90011124200F311DE9ECF2E080E046
:100FB000458D568D2417350709F49CC38F5F3696EF
:100FC0008A30B1F760FF23C0E9ECF2E090E080E006
:100FD000448D411117C0E0912903F0912A03E20FDB
:100FE000F31F6081B89EF001B99EF00D1124E75304
:100FF000FD4F648F368F258F10A2178E61E00E94FF
:10100000AF0005C0019636968A30910509F70F5F4B
:10101000B9CF1F5FA9CF80E0F60191A19111892F6F
:10102000F6E0CF0ED11CCC15DD05B1F79FB7F894D3
:1010300040911002509111026091120270911302BE
:101040009FBF40932503509326036093270370931B
:101050002803882309F490C08091EA02882309F4C8
:101060008BC08091E8029091E902019709F084C059
:10107000C091E502C0930A02C11183C0C09005026D
:10108000D0900602E0900702F090080280910902D9
:101090008823C9F0809104028B3209F0E7C2809165
:1010A000000290910102A0910202B09103028C0D06
:1010B0009D1DAE1DBF1D8093FC019093FD01A0936B
:1010C000FE01B093FF01E1E08091C4028111E0E0F4
:1010D000E195F0E0EF54FD4F848980680E94E403BD
:1010E000C701B6010E94BB0441E06091040281EB9C
:1010F00092E00E9491036091000270910102809140
:101100000202909103020E94BB048091090288238D
:1011100081F068EF71E081EB92E00E9499046091A8
:10112000FC017091FD018091FE019091FF010E94F0
:10113000BB04E091C402E23008F0DAC2E150F0E012
:10114000EF54FD4F848980680E94E4036091FC01A4
:101150007091FD018091FE019091FF010E94BB04FE
:101160008114910409F44ACE0E94EB01882309F40A
:101170003ECE0E9400003BCE1092350310920A0230
:101180007DCF0E94EA03CA32F1F486E591E00E9425
:10119000A804109200021092010210920202109212
:1011A000030210920502109206021092070210929A
:1011B00008021092FC011092FD011092FE011092A3
:1011C000FF011092090280910A028133F1F484E652
:1011D00091E00E94A8042091FC013091FD01409112
:1011E000FE015091FF01211531054105510509F01E
:1011F000A4C121E030E040E050E02093FC013093B6
:10120000FD014093FE015093FF0180910A02843357
:10121000F1F48DE691E00E94A8042091FC01309148
:10122000FD014091FE015091FF012115310541055D
:10123000510509F093C184E090E0A0E0B0E0809314
:10124000FC019093FD01A093FE01B093FF018091FA
:101250000A028733F1F486E791E00E94A804209106
:10126000FC013091FD014091FE015091FF012115DB
:1012700031054105510509F082C127E030E040E029
:1012800050E02093FC013093FD014093FE01509308
:10129000FF0180910A028033E9F48FE791E00E9418
:1012A000A8042091FC013091FD014091FE01509174
:1012B000FF01211531054105510561F0AAE0B0E0BB
:1012C0000E94CD0B6093FC017093FD018093FE01A1
:1012D0009093FF0180910A028233F1F488E891E053
:1012E0000E94A8042091FC013091FD014091FE0173
:1012F0005091FF01211531054105510509F050C1FB
:1013000082E090E0A0E0B0E08093FC019093FD01CA
:10131000A093FE01B093FF0180910A028533D1F4BE
:1013200081E991E00E94A8042091FC013091FD0127
:101330004091FE015091FF012115310541055105F4
:1013400009F03FC14092FC015092FD016092FE0104
:101350007092FF0180910A028833F1F48AE991E0EA
:101360000E94A8042091FC013091FD014091FE01F2
:101370005091FF01211531054105510509F032C198
:1013800028E030E040E050E02093FC013093FD0184
:101390004093FE015093FF0180910A028332B9F419
:1013A00083EA91E00E94A8048091FC019091FD01E4
:1013B000A091FE01B091FF01809300029093010281
:1013C000A0930202B093030281E08093090280910E
:1013D0000A028333F1F480EB91E00E94A80420918B
:1013E000FC013091FD014091FE015091FF0121155A
:1013F00031054105510509F006C183E090E0A0E008
:10140000B0E08093FC019093FD01A093FE01B093A6
:10141000FF0180910A028633F1F489EB91E00E948A
:10142000A8042091FC013091FD014091FE015091F2
:10143000FF01211531054105510509F0F5C026E0F0
:1014400030E040E050E02093FC013093FD014093F8
:10145000FE015093FF0180910A028933F1F482EC7E
:1014600091E00E94A8042091FC013091FD0140917F
:10147000FE015091FF01211531054105510509F08B
:10148000E4C089E090E0A0E0B0E08093FC0190939C
:10149000FD01A093FE01B093FF0180910A029FEB32
:1014A000980F943008F0EACD4091FC015091FD0175
:1014B0006091FE017091FF01409305025093060276
:1014C00060930702709308021092FC011092FD01D4
:1014D0001092FE011092FF01813439F48BEC91E0FF
:1014E0000E94A8048BE28093040280910A02823455
:1014F00039F484ED91E00E94A8048DE28093040207
:1015000080910A02833439F480EE91E00E94A804AD
:101510008AE28093040280910A02843439F48FEEC7
:1015200091E00E94A8048FE28093040264E670E0D8
:1015300080E090E00E94E002A1CDAAE0B0E00E942D
:10154000CD0B6F5F7F4F8F4F9F4F6093FC01709368
:10155000FD018093FE019093FF0157CEAAE0B0E019
:101560000E94CD0B6C5F7F4F8F4F9F4F6093FC01AC
:101570007093FD018093FE019093FF0168CEAAE075
:10158000B0E00E94CD0B695F7F4F8F4F9F4F6093FC
:10159000FC017093FD018093FE019093FF0179CED1
:1015A000AAE0B0E00E94CD0B6E5F7F4F8F4F9F4F40
:1015B0006093FC017093FD018093FE019093FF0105
:1015C000ABCEAAE0B0E00E94CD0B6B5F7F4F8F4F98
:1015D0009F4F6093FC017093FD018093FE019093F7
:1015E000FF01B8CEAAE0B0E00E94CD0B685F7F4F4C
:1015F0008F4F9F4F6093FC017093FD018093FE011C
:101600009093FF01C9CEAAE0B0E00E94CD0B6D5FC0
:101610007F4F8F4F9F4F6093FC017093FD0180932C
:10162000FE019093FF01F5CEAAE0B0E00E94CD0B41
:101630006A5F7F4F8F4F9F4F6093FC017093FD0156
:101640008093FE019093FF0106CFAAE0B0E00E94D4
:10165000CD0B675F7F4F8F4F9F4F6093FC0170935F
:10166000FD018093FE019093FF0117CF8D3289F425
:101670008091000290910102A0910202B0910302B8
:10168000A7019601281B390B4A0B5B0BDA01C90134
:1016900012CD8A32A9F420910002309101024091CA
:1016A000020250910302C701B6010E947C0B6093B5
:1016B000FC017093FD018093FE019093FF0103CD27
:1016C0008F3209F000CD209100023091010240914B
:1016D000020250910302C701B6010E94AE0B209393
:1016E000FC013093FD014093FE015093FF01EBCCD0
:1016F000E1E025CD617083CCDB018F939F930E9445
:10170000CD0BBF91AF91A29F800D911DA39F900D16
:10171000B29F900D11240895A1E21A2EAA1BBB1BA3
:10172000FD010DC0AA1FBB1FEE1FFF1FA217B307AD
:10173000E407F50720F0A21BB30BE40BF50B661FC3
:10174000771F881F991F1A9469F760957095809587
:1017500090959B01AC01BD01CF010895052E97FB2B
:101760001EF400940E94C50B57FD07D00E948C0BFD
:1017700007FC03D04EF40C94C50B50954095309562
:1017800021953F4F4F4F5F4F0895909580957095ED
:1017900061957F4F8F4F9F4F08950E94DE0BA59F4D
:1017A000900DB49F900DA49F800D911D112408955C
:1017B000EE0FFF1F0590F491E02D0994A29FB00158
:1017C000B39FC001A39F700D811D1124911DB29F75
:0E17D000700D811D1124911D0895F894FFCF16
:1017DE000405060700010203373839443435364311
:1017EE00313233422A302341000000007E011D03B6
:1017FE001F01CB0150012E01420100000000930495
:10180E001D034B034A0300000000120316031A03C4
:10181E000D0A004E616E64696E690043414C43557A
:10182E004C41544F5200427574746F6E2043616E7A
:10183E0063656C00427574746F6E2031004275746E
:10184E00746F6E203400427574746F6E20370042D0
:10185E007574746F6E203000427574746F6E203222
:10186E0000427574746F6E203500427574746F6E1D
:10187E00203800427574746F6E20457175616C006E
:10188E00427574746F6E203300427574746F6E20DF
:10189E003600427574746F6E203900416464697449
:1018AE00696F6E005375627472616374696F6E0056
:1018BE004D756C7469706C69636174696F6E004408
:0C18CE0065766573696F6E00203D0000B8
:00000001FF
