:020000040000FA
:100000000C9462000C948A000C948A000C948A0070
:100010000C948A000C948A000C948A000C948A0038
:100020000C948A000C948A000C948A000C948A0028
:100030000C948A000C948A000C948A000C948A0018
:100040000C946B040C948A000C948A000C948A0023
:100050000C948A000C948A000C948A000C948A00F8
:100060000C948A000C948A000000000024002700F1
:100070002A0000000000250028002B0000000000DE
:1000800023002600290004040404040404040202DA
:100090000202020203030303030301020408102007
:1000A0004080010204081020010204081020000012
:1000B0000008000201000003040700000000000027
:1000C00000001A0711241FBECFEFD8E0DEBFCDBF5E
:1000D00011E0A0E0B1E0E4ECFFE002C005900D9279
:1000E000A836B107D9F721E0A8E6B1E001C01D921A
:1000F000AF3FB207E1F710E0C2E6D0E004C02197BD
:10010000FE010E94DA07C136D107C9F70E94B50483
:100110000C94E0070C94000096E0899FD001112414
:10012000A858BE4F90967C936E935F9791E09196FE
:100130009C939197E091E501F091E6019091E401A3
:10014000992339F0309751F0811108C080919401C2
:100150000994309719F05C968C91FACF0895CF925C
:10016000DF92EF92FF920F931F9396E0899FF00129
:100170001124E858FE4F11A2278D30A121303105FE
:1001800051F178F02230310509F451C023303105A6
:1001900009F452C01F910F91FF90EF90DF90CF9024
:1001A00008956623B9F361E070E00E948C002FB7D8
:1001B000F8948091740190917501A0917601B091AD
:1001C00077012FBF8093D0019093D101A093D201EA
:1001D000B093D301DFCF9FB7F894C0907401D09053
:1001E0007501E0907601F09077019FBF0091D001FA
:1001F0001091D1012091D2013091D301C01AD10ABE
:10020000E20AF30A0091E2011091E30130E020E0FC
:100210000C151D052E053F0550F462E070E01F919E
:100220000F91FF90EF90DF90CF900C948C006111B4
:10023000B1CF63E070E0F3CF70E060E0F0CF8330E7
:1002400081F028F4813099F08230A9F00895873048
:10025000A9F08830C9F08430B1F4809180008F7D9E
:1002600003C0809180008F7780938000089584B5CB
:100270008F7784BD089584B58F7DFBCF8091B000CA
:100280008F778093B00008958091B0008F7DF9CF73
:10029000CF93DF93282F30E0F901E255FF4F84918F
:1002A000F901E656FF4FD491F901EA57FF4FC49187
:1002B000CC23A1F081110E941F01EC2FF0E0EE0F82
:1002C000FF1FE458FF4FA591B491EC91ED2381E01D
:1002D00090E009F480E0DF91CF91089580E090E014
:1002E000FACF1F93CF93DF93282F30E0F901E25527
:1002F000FF4F8491F901E656FF4FD491F901EA5777
:10030000FF4FC491CC23A9F0162F81110E941F0129
:10031000EC2FF0E0EE0FFF1FEE58FF4FA591B491C8
:100320008FB7F894EC91111108C0D095DE23DC93BF
:100330008FBFDF91CF911F910895DE2BF8CFCF9320
:10034000DF9390E0FC01E656FF4F24918A579F4FC0
:10035000FC0184918823C9F090E0880F991FFC016B
:10036000E859FF4FA591B491FC01EE58FF4FC5919C
:10037000D49161110DC09FB7F8948C912095822380
:100380008C938881282328839FBFDF91CF91089584
:10039000623051F49FB7F8943C91822F809583236B
:1003A0008C93E8812E2BEFCF8FB7F894EC912E2B06
:1003B0002C938FBFEACF3FB7F89480917001909152
:1003C0007101A0917201B091730126B5A89B05C07F
:1003D0002F3F19F00196A11DB11D3FBFBA2FA92FC4
:1003E000982F8827BC01CD01620F711D811D911DC1
:1003F00042E0660F771F881F991F4A95D1F708952D
:100400008F929F92AF92BF92CF92DF92EF92FF9224
:100410004B015C010E94DB016B017C010E94DB014E
:100420006C197D098E099F09683E7340810591050D
:10043000A8F321E0821A9108A108B10888EEC80E3D
:1004400083E0D81EE11CF11C81149104A104B104C5
:1004500029F7FF90EF90DF90CF90BF90AF909F90E3
:100460008F900895862F642F0C949F01862F642F00
:100470000C947101862F0C944801AF92BF92CF92D9
:10048000DF92EF92FF920F931F93CF93DF936C0154
:100490007B018B01040F151FEB015E01AE18BF0835
:1004A000C017D10759F06991D601ED91FC910190E7
:1004B000F081E02DC6010995892B79F7C501DF91FF
:1004C000CF911F910F91FF90EF90DF90CF90BF9051
:1004D000AF900895089590E080E008958F929F92E4
:1004E000AF92BF920F931F93CF93DF93CDB7DEB739
:1004F000A1970FB6F894DEBF0FBECDBF19A2423050
:1005000008F44AE08E010F5D1F4F842E912CB12C10
:10051000A12CA50194010E94A407E62FB901CA01EC
:10052000EA3044F5E05DD801EE938D01232B242BB6
:10053000252B79F790E080E0109769F0FD0101909C
:100540000020E9F73197AF014A1B5B0BBD0187EE35
:1005500091E00E943D02A1960FB6F894DEBF0FBE57
:10056000CDBFDF91CF911F910F91BF90AF909F9022
:100570008F900895E95CD7CFFC0101900020E9F746
:100580003197AF01481B590BBC0187EE91E00C94E9
:100590003D02CF93DF93EC0160E08E810E947101F8
:1005A00061E08E810E94710160E08E810E94710184
:1005B0008BE891E00197F1F7DF91CF910895CF9209
:1005C000DF92EF92FF920F931F93CF93DF936C0113
:1005D0007C0187E0E80EF11CD0E0C0E0062F10E0BF
:1005E000B8010C2E02C0759567950A94E2F7617008
:1005F000F70181917F010E9471012196C430D105DC
:1006000079F7C601DF91CF911F910F91FF90EF9085
:10061000DF90CF900C94C902CF92DF92EF92FF92BD
:100620000F931F93CF93DF93EC01F62E642F8C81F1
:100630000E9471018D818F3F19F060E00E9471016D
:100640000F2D10E08F8584FF25C06E0187E0C80E56
:10065000D11CF12CE12CB8010E2C02C075956795C8
:100660000A94E2F76170F60181916F010E947101B5
:10067000FFEFEF1AFF0A88E0E816F10461F7CE01F8
:10068000DF91CF911F910F91FF90EF90DF90CF906E
:100690000C94C902B80184E0759567958A95E1F7D5
:1006A000CE010E94DF026F2DCE01DF91CF911F910D
:1006B0000F91FF90EF90DF90CF900C94DF0240E01D
:1006C000682F87EE91E00C940C0381E00E945F0399
:1006D0008BE39FE10197F1F70895CF93DF93823089
:1006E00029F49091F60198609093F6018093FA01B5
:1006F0001092FB0180E48093FC0180E18093FD0176
:1007000080E58093FE0161E08091EB010E949F01F2
:100710008091EC018F3F19F061E00E949F0161E040
:100720008091ED010E949F01C7EED1E09E01275EFE
:1007300031408091F60184FD0BC084E090E0219669
:100740002817390744F461E08E810E949F01EECFA3
:1007500088E090E0F4CF8BE39DE00197F1F760E053
:100760008091EB010E94710160E08091ED010E9497
:1007700071018091EC018F3F19F060E00E947101DE
:100780008091F60184FD34C063E087EE91E00E9421
:10079000DF02CBE4D6E4CE010197F1F763E087EE08
:1007A00091E00E94DF022197F1F763E087EE91E08C
:1007B0000E94DF0283E592E00197F1F762E087EEA5
:1007C00091E00E94DF028091F60180620E945F0347
:1007D00084E08093F7018CE00E945F030E94650330
:1007E00082E08093F80186E0DF91CF910C945F0363
:1007F00080620E945F038BE496E40197F1F7809199
:10080000F60180620E945F0383E592E00197F1F7B1
:100810008091F60180620E945F03D5CF9091FA012A
:10082000691710F06FEF690FE62FF0E0E951FE4F06
:100830009489890F80680C945F0310926D01109267
:100840006C0110926B0110926A018BE28093180187
:10085000109269011092680110926E010E94650366
:100860008FE291E00E94BC0261E080E00E940E04F1
:1008700085E391E00C94BC0241E00E940C0381E00E
:1008800090E00895CF92DF92EF92FF926C01990F62
:10089000EE08FF08F7FE16C041E06DE287EE91E03A
:1008A0000E940C0366277727CB016C197D098E09FE
:1008B0009F094AE00E946E020196FF90EF90DF9040
:1008C000CF9008954AE0C701B601FF90EF90DF9006
:1008D000CF900C946E021F920F920FB60F921124BC
:1008E0002F933F938F939F93AF93BF938091740106
:1008F00090917501A0917601B091770130916F01CF
:1009000023E0230F2D3758F50196A11DB11D20932B
:100910006F018093740190937501A0937601B09359
:1009200077018091700190917101A0917201B09155
:1009300073010196A11DB11D809370019093710107
:10094000A0937201B0937301BF91AF919F918F916A
:100950003F912F910F900FBE0F901F90189526E892
:10096000230F0296A11DB11DD2CF789484B5826069
:1009700084BD84B5816084BD85B5826085BD85B543
:10098000816085BD80916E00816080936E001092C1
:10099000810080918100826080938100809181003C
:1009A00081608093810080918000816080938000CD
:1009B0008091B10084608093B1008091B00081602B
:1009C0008093B00080917A00846080937A00809157
:1009D0007A00826080937A0080917A0081608093AF
:1009E0007A0080917A00806880937A001092C1002A
:1009F00082E00E946D038DE391E00E94BC0264EFEF
:100A000071E080E090E00E9400020E9465038FE2A6
:100A100091E00E94BC02812C912C540183944424C7
:100A20004A94542C50E0652E50E0752E41E04093DE
:100A3000E4018FB7F8944091740150917501609171
:100A40007601709177018FBF8091D4019091D5018B
:100A5000A091D601B091D701481B590B6A0B7B0BB3
:100A60008091E0019091E101B0E0A0E0841795074A
:100A7000A607B70708F010C1C0E08091DE01C817D3
:100A800060F4E091DA01F091DB01EC0FF11D62E01E
:100A900080810E949F01CF5FF0CF312C8091DF01D8
:100AA000381608F05FC0032D10E0E091DC01F091F2
:100AB000DD01E00FF11F61E080810E949F01E09164
:100AC000DC01F091DD01E00FF11F60E080810E9408
:100AD0007101D501C401032C04C0880F991FAA1FFE
:100AE000BB1F0A94D2F76C017C01E094F094212C96
:100AF0008091DE012816F8F4C22DD0E0E091DA01F1
:100B0000F091DB01EC0FFD1F80810E9448012496CB
:100B1000CC0FDD1FC858DE4F892B41F488819981A5
:100B20008C299D29998388832394E2CF8881998198
:100B30008E219F21F7CFE091DC01F091DD01E00FE4
:100B4000F11F61E080810E9471018091DC01909130
:100B5000DD01080F191F60E0F80180810E949F01EC
:100B600033949CCFC8E7D1E0FE01878D90A1892BFB
:100B700021F4148E568E458E11A2369641E0E43B48
:100B8000F40799F7F12C8091DE01F81608F051C0B6
:100B9000E12C0F2D10E0000F111F00581E4F209167
:100BA000DF01E21608F043C0F801608171810E2C6C
:100BB00002C0769567950A94E2F7F29E900111249F
:100BC0002E0D311DE8E7F1E080E0458D568D2417AC
:100BD000350709F42DC18F5F36968A30B1F760FF73
:100BE00024C0E8E7F1E090E080E0448D411118C0B6
:100BF000E091D801F091D901E20FF31F408156E056
:100C0000589FF001599FF00D1124E858FE4F448F72
:100C1000368F258F10A2178E61E00E94AF0005C0AD
:100C2000019636968A30910501F7E394B8CFF39494
:100C3000AACF80E099A19111892F269691E0C43B1B
:100C4000D907C1F79FB7F89440917401509175018D
:100C500060917601709177019FBF4093D4015093CA
:100C6000D5016093D6017093D7018823A9F08091B4
:100C70009901882389F080919701909198010197BB
:100C800059F4C0919401C1110AC06114710409F4AE
:100C9000CDCE0E940000CACE1092E401F6CF80EDC6
:100CA0008C0F8A3090F50C2E000CDD0BE0978091B4
:100CB0006E01811118C020916C0130916D01EAE044
:100CC000E29FC001E39F900D1124C80FD91FD0935C
:100CD0006D01C0936C0160E086E00E940E04CE01BD
:100CE0000E944204D2CF20916A0130916B01FAE058
:100CF000F29FC001F39F900D1124C80FD91FD0930C
:100D00006B01C0936A0161E0E7CF8C2F8D7F8D323C
:100D100021F086ED8C0F823070F4C093180141E011
:100D200040936E0161E080E00E940E0488E491E04F
:100D30000E94BC02AACFCD3309F074C08091180183
:100D40008B3249F194F48A3209F43FC080916801F2
:100D50009091690190936D0180936C0110926B01E9
:100D600010926A0110926E0150C08D3219F18F32CB
:100D700069F760916A0170916B0161157105A9F1C4
:100D800080916C0190916D010E94900770936901B0
:100D900060936801DBCF80916C0190916D0120918F
:100DA0006A0130916B01820F931F909369018093C8
:100DB0006801CCCF80916C0190916D0120916A0106
:100DC00030916B01821B930BF0CF40916C015091DD
:100DD0006D0120916A0130916B01429FC001439FD8
:100DE000900D529F900D1124E0CF61E080E00E94B1
:100DF0000E048EE491E00E94BC0260ED77E080E09A
:100E000090E00E9400020E941D0461E080E00E94C8
:100E10000E048EE591E00E94BC02809168019091E1
:100E200069015ECFC33409F030CF0E941D042DCF7D
:100E30006170F3CE1092EA011092E90187E291E02D
:100E40009093E8018093E7011092EB018FEF80937C
:100E5000EC0181E08093ED0182E08093EE0183E07C
:100E60008093EF0184E08093F00185E08093F101AD
:100E70001092F2011092F3011092F4011092F50118
:100E80001092F60181E00E946D0310927A01109297
:100E90007E0110927D0110927F018DE191E090938F
:100EA000790180937801E4E9F1E0108214821382E1
:100EB0001582369681E0E03DF807B9F784E091E0CD
:100EC0009093DB018093DA0180E091E09093DD0163
:100ED0008093DC0184E08093DE018093DF0188E071
:100EE00091E09093D9018093D8018AE090E09093AB
:100EF000E1018093E00184EF91E09093E30180931E
:100F0000E2011092E6011092E5011092D4011092D4
:100F1000D5011092D6011092D7011092E4010895E4
:100F200097FB072E16F4009407D077FD09D00E9496
:100F3000C60707FC05D03EF4909581959F4F089514
:100F4000709561957F4F0895A1E21A2EAA1BBB1BD5
:100F5000FD010DC0AA1FBB1FEE1FFF1FA217B30785
:100F6000E407F50720F0A21BB30BE40BF50B661F9B
:100F7000771F881F991F1A9469F76095709580955F
:100F800090959B01AC01BD01CF010895AA1BBB1B2D
:100F900051E107C0AA1FBB1FA617B70710F0A61B79
:100FA000B70B881F991F5A95A9F780959095BC019A
:100FB000CD010895EE0FFF1F0590F491E02D0994E7
:100FC000F894FFCF090807060D0C0B0A3738392FA4
:100FD0003435362A3132332D43303D2B2B0000007F
:100FE00000320236023A02000000003C043D026B6F
:100FF000026A024E756D313A002020202020202008
:101000000043616C63756C61746F72004E756D3274
:101010003A004572726F723A2044697620627920F4
:0C1020003000526573756C743A200000BB
:107E0000112484B714BE81FFF0D085E080938100F7
:107E100082E08093C00088E18093C10086E0809377
:107E2000C20080E18093C4008EE0C9D0259A86E02C
:107E300020E33CEF91E0309385002093840096BBD3
:107E4000B09BFECF1D9AA8958150A9F7CC24DD24C4
:107E500088248394B5E0AB2EA1E19A2EF3E0BF2EE7
:107E6000A2D0813461F49FD0082FAFD0023811F036
:107E7000013811F484E001C083E08DD089C08234E0
:107E800011F484E103C0853419F485E0A6D080C0E4
:107E9000853579F488D0E82EFF2485D0082F10E0AE
:107EA000102F00270E291F29000F111F8ED06801E7
:107EB0006FC0863521F484E090D080E0DECF843638
:107EC00009F040C070D06FD0082F6DD080E0C81688
:107ED00080E7D80618F4F601B7BEE895C0E0D1E017
:107EE00062D089930C17E1F7F0E0CF16F0E7DF06D8
:107EF00018F0F601B7BEE89568D007B600FCFDCFD4
:107F0000A601A0E0B1E02C9130E011968C91119780
:107F100090E0982F8827822B932B1296FA010C0160
:107F200087BEE89511244E5F5F4FF1E0A038BF0790
:107F300051F7F601A7BEE89507B600FCFDCF97BE46
:107F4000E89526C08437B1F42ED02DD0F82E2BD052
:107F50003CD0F601EF2C8F010F5F1F4F84911BD097
:107F6000EA94F801C1F70894C11CD11CFA94CF0C13
:107F7000D11C0EC0853739F428D08EE10CD085E9AC
:107F80000AD08FE07ACF813511F488E018D01DD067
:107F900080E101D065CF982F8091C00085FFFCCF94
:107FA0009093C60008958091C00087FFFCCF809118
:107FB000C00084FD01C0A8958091C6000895E0E648
:107FC000F0E098E1908380830895EDDF803219F02E
:107FD00088E0F5DFFFCF84E1DECF1F93182FE3DFCA
:107FE0001150E9F7F2DF1F91089580E0E8DFEE27F6
:047FF000FF270994CA
:027FFE00040479
:00000001FF
